:020000041000EA
:1000000000B5324B212058609868022188439860DF
:10001000D860186158612E4B002199600221596106
:100020000121F02299502B49196001219960352056
:1000300000F044F80222904214D00621196600F024
:1000400034F8196E01211966002018661A6600F04E
:100050002CF8196E196E196E052000F02FF8012189
:100060000842F9D1002199601B49196000215960AB
:100070001A491B48016001219960EB211966A021F2
:10008000196600F012F800219960164914480160C1
:100090000121996001BC002800D000471248134993
:1000A000086003C880F30888084703B5996A0420EC
:1000B0000142FBD001200142F8D103BD02B5186610
:1000C0001866FFF7F2FF186E186E02BD00000240BE
:1000D000000000180000070000035F00212200005C
:1000E000F4000018222000A00001001008ED00E03C
:1000F00000000000000000000000000074B24E7A12
:1001000000200420F7010010CB010010CD010010E9
:10011000C9010010C9010010C9010010C901001077
:10012000C9010010C9010010C9010010CF01001061
:10013000C9010010C9010010D1010010D301001045
:10014000C1010010C1010010C1010010C101001067
:10015000C1010010C1010010C1010010C101001057
:10016000C1010010C1010010C1010010C101001047
:10017000C1010010C1010010C1010010C101001037
:10018000C1010010C1010010C1010010C101001027
:10019000C1010010C1010010C1010010C101001017
:1001A000C1010010C1010010C1010010C101001007
:1001B000C1010010C1010010C1010010C1010010F7
:1001C000EFF30580103800BE00BE00BE00BE00BECA
:1001D00000BE00BEF2EB887154630110746301101D
:1001E0003802001090A31AE71E481F49086006C88D
:1001F00081F3088810471D480068002801D019487D
:10020000F3E70DA40ECC002902D000F012F8F9E7B4
:100210001749184A002000E001C19142FCD116495B
:100220008847164988471649884700BEFDE701C937
:1002300001C29A42FBD3704774630110C0000020D2
:10024000981700204C7A01100000042000000420C0
:100250004C7A01100010042000100420000000005F
:10026000704700000000000008ED00E0000000D032
:1002700098170020F02900200D2900108907001090
:10028000CD280010F8B5C0460448054B10B5834290
:1002900003D0044B002B00D0984710BD98170020C6
:1002A000981700200000000006480749091A8B1023
:1002B000C90FC91810B5491003D0044B002B00D04A
:1002C000984710BD981700209817002000000000E4
:1002D00010B5074C2378002B09D1FFF7D5FF054B4C
:1002E000002B02D0044800E000BF0123237010BDA2
:1002F000201A00200000000078180110054B10B5EE
:10030000002B03D00449054800E000BFFFF7CCFFF5
:1003100010BDC04600000000241A0020781801100B
:100320007047C0460300202907D0026A002A04D083
:1003300082690020914202D070470020FCE7181D1E
:10034000FAE7C046C26A0300002A05D0426A0020CC
:10035000914200D1986A70470020FCE7036A70B5AB
:100360000400002B0CD083690025202B01D028002D
:1003700070BDC0690DF072FC0028F8D1251DF6E7AC
:100380000025F4E730B5040089B001AD280005F080
:1003900035FF236A002B0CD0A369092B1FD009213C
:1003A000134807F0ADF91348012107F0A9F901201E
:1003B00013E0231D07CD07C307CD07C32A68092112
:1003C0001A60012300202362E36AA1619A00A21847
:1003D0005162094901339162E36209B030BD0748B7
:1003E00007F08EF90648092107F08AF90120F4E7A1
:1003F000C42F0110F82F01106D560010702F01103E
:10040000A02F011070B5474C474AA544474B6A449A
:1004100013606A4600244449454B5218D450802248
:10042000444800211202684402F0ACF9424B02A891
:100430000A940D940293FFF7A5FF041E03D0200039
:100440003E4B9D4470BD3E4940A807F0A5FA3D4B88
:10045000050059781A78090211439A78DC78120459
:100460000A43240614431821E41807F059FA2E4BC6
:1004700021006B44019300902B0002AA0EA806F005
:1004800085F938226B46C4269B1818009D5106F04A
:10049000B9FB041E3AD10E9B1A689A1A11880829D2
:1004A0003BD91289002A38D09B181A689B185A68C1
:1004B00004329B181A689A1A118806292AD9D288F8
:1004C0009B18002A26D01A689B58012B28D100219E
:1004D0000EA806F0B5F9FE22036992051A600EA86F
:1004E00006F020FD041E11D1174D280007F008F971
:1004F0000D4B6B44180007F09BF9280007F000F93A
:100500006B4638229B18985907F08EFA0EA806F011
:10051000F7F994E700231B68FFDE00235B68FFDE2A
:100520000DF054FD40B3FEFFB80C00004C5D01100F
:1005300004C00000C0CC0000D0550110C04C010028
:10054000B80B000080180110F43B0110F0B5C6464E
:10055000364B00B559781A78354C090211439A7810
:10056000A544DC7812040A4324061443E4182368E3
:10057000E31A1A88042A56D99B88002B53D0E358D3
:10058000032B50D12B4B09AE09930023300033626B
:10059000F362FFF7F7FE051E06D02800CD231B01EE
:1005A0009D4480BCB846F0BD234B3200210003902F
:1005B00002900190009315A846AB06F087F815A8A5
:1005C00006F020FB051E2AD105AC22001B4B23CBD5
:1005D00023C21B681360002115A806F031F92368B7
:1005E00098464246036915A81A6006F09BFC051E52
:1005F00015D1002115A806F053F90700404601F077
:10060000CBFF3B69196801F000FF40000C4940082E
:1006100001F04AFF002806D00434A642DBD115A819
:1006200006F06EF9B9E70DF0D1FCC0468018011054
:1006300030F3FFFFD0550110B80B0000E455011056
:10064000CDCC4C3DF0B54546DE4657464E46464B72
:10065000E0B559781A78090211439A78DD781204C6
:100660000A432D061543ED182B68404CEB1A1A88E7
:10067000A544042A00D874E09B88002B00D170E0C8
:10068000EB58032B00D06CE0394B0BA80B930023E5
:1006900013931693FFF776FE041E08D02000354B07
:1006A0009D44F0BCBB46B246A946A046F0BD324BC5
:1006B000290003900290019000930BAA48AB17A861
:1006C00006F004F817A806F09DFA041E45D1002193
:1006D00017A806F0B5F88246002842D0002117A8D6
:1006E00006F0DEF8804600283BD08368002505939D
:1006F000C36806AF9B4607AB99464A461F4B13CBD0
:1007000013C21B6813601E4B069353467A5D1B6928
:1007100017A81A7006F006FC041E1ED14A46AB004C
:10072000D05801F039FF4346061C00201B691856BB
:100730005B46C01A01F0CEFE059901F080FE011C57
:10074000301C01F062FE40000E49400801F0ACFE92
:10075000002806D00135042DD7D117A806F0D0F80F
:100760009CE70DF033FCC046E024011024F3FFFFAA
:10077000D0550110DC0C0000B80B0000F45501103E
:10078000A0C1DE00CDCC4C3D10B507F07DFBFFF7DE
:1007900039FE002800D010BDFFF7D8FE0028FAD19E
:1007A000FFF750FF041E01D02000F4E7024806F0D6
:1007B000A7FF2000EFE7C0460C3001108023DB05C7
:1007C0001868000F7047C0460FB400B5084883B0E2
:1007D00002F02EFA049B002B07D005A91800019106
:1007E00002F004F8034802F023FA012002F016F8A0
:1007F000243001102C52011070B5EFF3108C72B63A
:100800000D4D2B68002BFCD0BFF35F8F0724CB0866
:10081000C618C05C01230C40A3401C0004400342E6
:1008200007D118433070BFF35F8F2C608CF31088B2
:1008300070BD1000FFF7C8FF2C0100D0F8B5474687
:10084000CE46884680B5EFF3108C72B6214D2C68E9
:10085000002CFCD0BFF35F8F9A422CD8D408072716
:10086000055D061901241740BC402C421FD007210A
:100870000127894609E0D408055D06194C46390070
:100880001440A1400C00294211D001329342F2D20F
:1008900001204042BFF35F8F00220E4B1A608CF3A1
:1008A000108800280FDBC0BCB946B046F8BD254310
:1008B00010003570EEE7BFF35F8F00232B608CF3E1
:1008C0001088012040424346002BECD00898FFF7E7
:1008D0007BFFC0462C0100D0044A1078431CDBB2D9
:1008E000172B00D9102313707047C0461810002032
:1008F00010B5064B064C82B00100009318221F234E
:100900002000FFF79BFF02B010BDC046343001103D
:10091000EC2300200021044B044ABFF35F8F02C385
:100920009342FAD17047C046000100D0800100D048
:10093000054B064A1360064A136053609360D36008
:1009400013615361936170478080808000E400E010
:1009500004E400E01F2318401E3B8340002905D01B
:10096000C021044A49005350136070478022014956
:100970008B50FAE700E100E001228240034B1B6844
:1009800013405A1E9341D8B27047C04600E100E0C0
:1009900001238340014A13607047C04600E200E033
:1009A000064B10309B688000C358054A00209B1AF4
:1009B0002F229A424041C0B27047C04600ED00E08D
:1009C0001C10002070B50D00EFF3108672B60F4AB0
:1009D0001368002BFCD0BFF35F8F0D4B10309B686A
:1009E00084001B590B4A934203D09D4201D000F072
:1009F0009DFF074B9B681D51BFF35F8FBFF35F8F58
:100A00000022024B1A6086F3108870BD240100D0CA
:100A100000ED00E0C1010010F0B557464E46DE463D
:100A20004546E0B585B0060000911700EFF3108B46
:100A300072B66A4A1368002BFCD0BFF35F8F0025A3
:100A4000674B5D579A46002D00DAA9E06B00654CB4
:100A500001935B199B009846A146C1444B46524600
:100A60009B7910361370604BB6009B6899590B1B2D
:100A70002F2B33D95D4B994200D0ACE0019B42460D
:100A80009C465B4B6544AD0063535A4B0232A2183F
:100A9000043B9B1A1B05584A5B0D651913436B8079
:100AA000564B0121AB80FF23AB71009BEF71AB6014
:100AB0004B460B4319004C4B9B689951BFF35F8F1A
:100AC000BFF35F8F0022454B1A608BF3108805B08F
:100AD000F0BCBB46B246A946A046F0BD01200A00C4
:100AE0008243D3798C46BB4231D8454613004449F2
:100AF0001B1B5B415943090D3D4B63533D4B023575
:100B00006519043B5B1B1B053B4D5B0D2B43AA4644
:100B10004D466B800425AC465546E044131F4444C3
:100B20001B1B1B055B0D1D434B46997100999D8056
:100B300099604946DF71334B01431360BBE75800AE
:100B4000C01880002018C179B9422FD902000623AD
:100B5000D356002BF3DA02932B4B61460393131DFC
:100B60009A4604235B429C46E14450464B461B1A7E
:100B70001B055B0D9C46204B95719846634640468D
:100B800003439380019B5A199200039BA418A380EE
:100B9000029B1C4AA371009B2260E771A3608AE755
:100BA00000F0C4FE002553465D574FE7908802933E
:100BB0004005131D9A46031561469C464046D444A1
:100BC000634604302018181AE0230005400D1B026C
:100BD00018430390C5E700F0A9FE4FE7240100D0B9
:100BE000E92900201C10002000ED00E0C1010010E8
:100BF00000A1FFFF4C10002000E0FFFF01BDFFFF40
:100C0000AAAA00000148804701BD000070B5012478
:100C10000443EFF30581EFF3108C72B6214A136899
:100C2000002BFCD0BFF35F8F1F4B05001F4AED1A4E
:100C30006D416A43120D1E4D8900AE6852B276585E
:100C4000A6421CD00621595691421CD01221595659
:100C5000914222D01E215956914220D02A21595624
:100C60000324914210D0134B19781A708171BFF38D
:100C70005F8F00220B4B1A608CF3108870BDAB683D
:100C80000D4C5C50EFE700246100091989005B18E6
:100C9000FF21997109499980E5E70124F4E70224CD
:100CA000F2E7C046240100D01C100020AAAA0000D0
:100CB00000ED00E0E9290020C101001001BDFFFFA7
:100CC00010B5084B084C82B00100009300220523A8
:100CD0002000FFF7B3FD002801DB1F23181A02B024
:100CE00010BDC04650300110ED290020024B9C463B
:100CF00061448900016070474000003470B5114CB8
:100D0000114DAC420FD2FF262368002B0CD0FFF709
:100D1000E3FD01002000FFF7E9FFA680BFF35F8F2E
:100D20000834AC42F0D370BDFFF7D6FD01002000BF
:100D3000FFF7DCFF2671BFF35F8F0834AC42E3D3CB
:100D4000F1E7C046881700209817002010B504006E
:100D5000FFF7C2FD01002000FFF7C8FFFF2323714A
:100D6000BFF35F8F10BDC04610B504000120FFF730
:100D7000BFFD034BC3189B002360BFF35F8F10BD03
:100D800040000034034B9C46614489000160BFF37E
:100D90005F8F7047400000340A4B1968EFF31080F2
:100DA00072B60A68002AFCD0BFF35F8F1B68BFF3DE
:100DB0005F8F00221A6080F3108840BF002000215E
:100DC0007047C046C8290020F0B5DE4657464E465B
:100DD0004546E0B583B0EFF3058203231340B54ADF
:100DE000990052580091904601229A409346B24B86
:100DF0001A60B24B01935B46B148436343460822F5
:100E00009B5E9946002B3ADA43469B881BB2002B27
:100E100000DB9DE043469B79002B00D0E1E0434698
:100E200008241C5F002C20DB43465A6963001B1911
:100E3000DB00D3189D68DC686B1C00D103E1A0487F
:100E4000009984466144826A0B69AE1A9B1A9E42DD
:100E500013D35A46036A1A420FD0994800F028FB70
:100E60008C4202DCC7D18542C5D940BF03B0F0BC7B
:100E7000BB46B246A946A046F0BD0D61EDE742462D
:100E800052695B0092464B44DB009A4453469E688D
:100E9000DF6800F00DFB8F42B6DC00D1F8E0002FD8
:100EA00000DAD9E05246534654691B69019A9342CD
:100EB00000D1CCE0414652460820085E528800042A
:100EC00021001043984704000D0023002B4300D15C
:100ED000C2E0002D00DBDFE030003900001BA9413B
:100EE00053469860D96000229A5E002A00DA8BE7A8
:100EF00043465D6953009C18E4002C19A768E46818
:100F00008C4200DD80E702D1874200D97CE746466B
:100F1000328108360DE08C4200D1C6E01E0000236D
:100F2000F25E002A0ADB53009C18E4002C19A76823
:100F3000E4689B18DB00EB188C42ECDD53461A800A
:100F40004B46338043469B881BB2002B00DA61E797
:100F500043461A69EFF3108172B61368002BFCD078
:100F6000BFF35F8F43469E88012342465B429380D6
:100F700036B21369BFF35F8F00221A6081F31088C5
:100F8000002E00DA46E743465D69083342469C4638
:100F90007700BF19FF00EF19BB6860469846082329
:100FA000D15E9246FC68002907DA0EE0A24246D0E4
:100FB00018000023C15E002906DB4B005B18DB0034
:100FC000EB18DA68A242F1DD524606800023FE5E8D
:100FD0003980002EDCDA904643469B79002B00D105
:100FE0001DE7002342469371434646460821595E59
:100FF00008364B1C00D138E747468946556902E060
:1010000006004B1C18D04B005B18DB00E8180A00E8
:101010008C46E95E43881BB2002BF1DA01235B4268
:10102000DC178360C4604A4503D031803B8903806C
:101030003A81E1464B1CE6D1B8464C46F2E69A6846
:101040004245B5D9C0E7631C00D0F8E605E72000AB
:1010500023699847002825D1534642461B881381AF
:101060001269EFF3108372B611680029FCD0BFF348
:101070005F8F4246514652880A8042464946518017
:101080001269BFF35F8F0021116083F31088BBE604
:10109000864200D803E7B7E6094800F009FA0019CC
:1010A00069411DE7656824680FE7874200D835E786
:1010B00044E7C046AC2800203C700540C90D001034
:1010C0000040054070B52E4C2569002D04D00A2142
:1010D0002C48FFF70BFE70BD2B4E0321300000F0B3
:1010E000DDF9E660FFF7F8FB284B03229C46D0238E
:1010F00022701B061B6801216370254B6044A360AE
:101100000F23800020610220638063694942A1802F
:1011100019800231198647311D83585218315A52AD
:1011200075325C39995218320131995218320131B5
:101130009952183201319952083518329D520231B4
:10114000183299521832013199521832013199529C
:101150001832013199521832013199521832013145
:1011600099520C4B0C49DC6001303562FFF72AFCC8
:1011700001210320FFF7EEFB084B1D60A7E7C046E7
:1011800064100020C82900200040054040000034C1
:10119000FFFF1000AC280020C90D0010386005408A
:1011A0000048704764100020F8B51F0008AB1B789A
:1011B00004001600002B08D100F082F932003B0039
:1011C000121A8B41002B00DA53E02269EFF31080F2
:1011D00072B61368002BFCD0BFF35F8F0223E15E71
:1011E00063694A005218D2009B18002937DB1A881D
:1011F00062802269BFF35F8F0025156080F310883D
:10120000069A9E60DF601A61079A5A615A88013215
:101210005204520C101C002A1FD082B258800804BD
:1012200010432669EFF3108772B63268002AFCD0AB
:10123000BFF35F8FA2881A80A1802369BFF35F8FFD
:1012400000221A6087F310880B4923788C460132FC
:101250009A40E36863441A60F8BD0120DDE7236922
:10126000BFF35F8F00221A6080F310880120404294
:10127000F2E70020F0E7C0463C20000070B5010016
:101280000469EFF3108C72B620680028FCD0BFF31D
:101290005F8F02200D5E4C6968004019C000241861
:1012A000002D37DB208848800869BFF35F8F002658
:1012B00006608CF31088E360638804980133206132
:1012C0005B0405985B0CA26060611A1C002B1FD0A8
:1012D00093B22804628018430A69EFF3108C72B647
:1012E0001368002BFCD0BFF35F8F8B8823808D8029
:1012F0000B69BFF35F8F00221A608CF310880B78A4
:1013000001329A40CB6808498C4663441A6070BD2C
:101310000122DDE70B69BFF35F8F00221A608CF3B7
:10132000108801204042F2E73C20000010B54389BC
:101330000A1493421ADD53009B184269DB00D3184C
:101340000469EFF3108C72B62268002AFCD0BFF358
:101350005F8F5A88090494B2090C8A4208D0036945
:10136000BFF35F8F00221A608CF31088002010BD3D
:101370008022120214435C80012302698371BFF34F
:101380005F8F002111608CF31088044902788C462D
:101390009340C268012062441360E8E73C200000EB
:1013A00040787047F0B5D6464F464646C0B5040073
:1013B0000D0082B0EFF305878946002F0ED0344927
:1013C00000204B6AAB4203D38A6A0130A24226D383
:1013D00002B0E0BCBA46B146A846F0BD2D4B9846D7
:1013E000DB689A46434650461E7800F061F80B00D1
:1013F000514602000436B600715820008E1A2900AA
:10140000801A99418F4211DC0ED020BF204A002063
:10141000536A4B45DCD3926A0130A242D8D25B1B9F
:101420005A1E9341D8B2D3E78642EED900F048F86D
:1014300022002B00121A8B41002B1ADB0023019390
:10144000154B2200009340462B00FFF717FF011EAB
:101450000FDD0F4B5A6A4A4517D39B6AA34212D33A
:101460004046FFF763FF0A4A0020536A4B45AFD35B
:10147000D1E7074A0020536A4B45A9D3926A01205D
:10148000A242A5D2CBE74A45EAD120BFE8E7C04651
:101490000040054064100020990D001010B5024A6C
:1014A0000248FFF7A9F910BD6C300110F0230020AD
:1014B0000300416A0A00986A596A8A42FAD1704761
:1014C000034B596A0A00986A596A9142FAD17047E7
:1014D0000040054070B504000D00174A536A19001A
:1014E000966A536A8B42FAD13000190024184D4194
:1014F000AB4216D813D0104A2B00526A954203D93A
:101500000D494A6A9A42FCD39A4207D10A4A02E03C
:10151000516A994202D1916AA142F9D370BDA642A3
:10152000E9D9054B5B6A1C005A1CEFD0012301244A
:101530006442E5175B42E3E700400540F8B5DE464C
:101540004E4657464546E0B58B4605000A991800B9
:10155000160000F051FB0A9B6C001F02324B64190D
:101560009C46A4006444636881469F4200D967603A
:101570002B1FDBB29846012B30D9C02380229B0160
:10158000E31812011A60294BAD0059599A460029F7
:101590001BD17301E026226853401E40802342463F
:1015A0005B01E3181E60012A30D9802380229B0151
:1015B000E31812011A6053464A4667605A51F0BC5C
:1015C000BB46B246A946A046F8BD586900F014FBD8
:1015D000013043001B18033BFDD2DAE75B46012BC9
:1015E000CBD1C02303229B01E3181A60023AA368FF
:1015F0001A42FCD07301E0262268AD0053401E4021
:1016000080230A4A5B019246E3181E605A4621680D
:10161000514003220A401A6001225B469A40A368A7
:101620001A42FCD0C1E7C04600800040F4230020ED
:10163000F0B546464F46D646C0B51F00344B440071
:101640009C462418A4006444636888461600FF2B57
:1016500002D880235B006360031FDBB29A46012B34
:1016600030D9C02380229B01E31812011A60294B54
:1016700085005959994600291BD17301E02622683B
:1016800053401E40802352465B01E3181E60012A2E
:1016900030D9802380229B01E31812011A60802335
:1016A0005B0063604B465F51E0BCBA46B146A8465A
:1016B000F0BD586900F0A0FA013043001B18033B4D
:1016C000FDD2DAE74346012BCBD1C02303229B0195
:1016D000E3181A60023AA3681A42FCD07301E026AC
:1016E0002268850053401E4080230A4A5B019146D0
:1016F000E3181E6042462168514003220A401A60E6
:10170000012342469340A2681342FCD0C1E7C04681
:1017100000800040F4230020014B8000C058704737
:10172000F4230020F8B5040021481E0017000D0026
:1017300000F062FA0100380000F05EFA069B360401
:101740001B031E432368002B20DB1A4B1A49E318A6
:101750005A1E93418022920194465B421B0B174A0A
:101760001B0363441360164A13601F000A68974303
:10177000FBD1144B2560E2182123A060136023687D
:10178000002BFCDA0823E6601360F8BD3F232268D3
:101790001340AB42D9D1A3681B051B0D8342D4D1A2
:1017A000EE22E368D2021340B342CED1EDE7C04649
:1017B000001BB7000040FDBF08C0004000E0004033
:1017C00000F000400430000010B580241C4BE405FC
:1017D0001C6000281AD001231A4C18431A4BDC61F4
:1017E0001A4C44401C62596298628021144BC9050E
:1017F0001960174817490860E021C9041960002AD8
:1018000007D18022144B12061A6010BD0E4BD8610E
:10181000EBE753019B1A9B009A18802312015B048B
:101820009A4209D213000D490B60074B5A6080227F
:10183000094BD2051A60E8E7094B1A00F3E7C046E6
:1018400000B00540D3C007B0008005402D3FF84FE1
:10185000FCFF01000820014000A00540982800205E
:10186000FFFFFF008023024A9B000B43D3627047B7
:1018700000800540142310B50100188804331B882C
:10188000984710BD162310B50100188802331B8835
:10189000984710BDF8B54746CE4680B50F1E19D003
:1018A00014239946043304000025012698464B462C
:1018B0001888434621681B88984701C4431E9841F5
:1018C000013540420640AF42F1D13000C0BCB946BC
:1018D000B046F8BD0126F8E7142370B50400188857
:1018E00004331B880D000549984703000020002C95
:1018F00001DB0130A04029009847C0465542000056
:10190000AA23064A1B0113608D235B00D3600449A0
:10191000044B19605368002BFCDA7047004002400A
:1019200000B0FA00006002407047C04610B50148A0
:10193000FEF74AFF9030011070B5074D074EB542D3
:1019400009D20024013E761BB60808CD9847230033
:101950000134B342F9D170BD301801106C18011078
:1019600070B5074D074EB54209D20024013E761BE3
:10197000B60808CD984723000134B342F9D170BDB1
:10198000641801106C180110054B064A06491A60CC
:10199000064A074B1A6010000B689843FBD170474A
:1019A00000E00040BFCDFBFE08C00040FE7F3C00D1
:1019B00000F00040044BDB6C002B03D18022034B72
:1019C000D2021A607047C046000011504C201150DE
:1019D000044A054B1A60054A1368DB018033FBD1CA
:1019E0007047C046FFFFFF0100F0004008C0004004
:1019F0004022034B9A675A671A67DA667047C046F7
:101A000000F0014010B5FEF785FF10BDF8B527497D
:101A1000274C284D641AA6103200302E00D93022EF
:101A20002800920000F0B4FEBC2C3BD830202F23BD
:101A30002C196407204A801BE40F9B1B052B16D929
:101A40003700002C02D0B300771CEA50001B33197A
:101A50009B004108EB18C900C9181A605A60083386
:101A60009942FAD1012303421CD09843C619B3000E
:101A7000EA50731C2F2E15D09B00EA50B31C2E2E5B
:101A800010D09B00EA50F31C2D2E0BD09B00EA5087
:101A9000331D2C2E06D09B00EA50731D2B2E01D037
:101AA0009B00EA50054B9D60F8BDC0460001001048
:101AB000C001001000000020C101001000ED00E096
:101AC000002310B5294C82B0A367FFF719FF01224C
:101AD000274B1A60636C012BFCD10322254B1A6043
:101AE000224A936B012BFCD1013300930121224A3E
:101AF00022480433FFF716FE052301210093204AF4
:101B00002048FFF70FFE0022022104201E4BFFF7A2
:101B10008FFD0022012105201C4BFFF789FD0022CB
:101B2000002107201A4BFFF783FD00220021082027
:101B3000174BFFF77DFD8023DB000093002200217F
:101B40000920134BFFF7FAFC0022104B002106205E
:101B5000FFF76EFD0420FFF7DFFD0E4900F04CF8A3
:101B600001000020FFF77EFE02B010BD00800040A3
:101B70003CB0004030B00040002F68590080024067
:101B8000008C864700C00240001BB7004059730715
:101B9000006CDC0240420F0001480421014B184751
:101BA0008010002095180010124A936F9B0815D2E0
:101BB0009066D166002905D0FFE7FFE7FFE7516F88
:101BC000106F704704B580210906C21751400028E4
:101BD00000D0C8430FF0E4FD002104BDF0B5146E41
:101BE000556E576F166FFFF7E3FF1466556657671C
:101BF0001667F0BD000000D0114A936F9B0813D206
:101C000010665166002905D0FFE7FFE7FFE7516F37
:101C1000106F704704B5002801D00020C0430FF0BA
:101C2000BFFD002104BDC046F0B5146E556E576F60
:101C3000166FFFF7E5FF1466556657671667F0BD28
:101C4000000000D094464A4A926F9208624601D240
:101C500028E0C046F0B5464E346E756E776F366F2D
:101C600000F020F89446424A146655665767166796
:101C70006246F0BD94463E4A926F9208624601D297
:101C800054E0C046F0B53A4E346E756E776F366FDD
:101C900000F04CF89446364A146655665767166746
:101CA0006246F0BD002B24DB11D000293EDA00B5DE
:101CB000C943404200D1013100F038F8C9434042E5
:101CC00000D10131DB43524200D1013300BD002A73
:101CD000EBD1002801D1002905D00020C90FC90788
:101CE00001D1C043410800B50FF04AFD0022002396
:101CF00000BD00B500290ADBDB43524200D10133AD
:101D000000F014F8C943404200D1013100BDC9437D
:101D1000404200D10131DB43524200D1013300F097
:101D200005F8DB43524200D1013300BD002923D125
:101D3000002B18D1002A0CD0BC460D4F38667A66AD
:101D400000210023FFE7FFE7FFE77A6F386F674660
:101D50007047002801D00748010000B50FF010FDC2
:101D60000022002300BD02000B000020002170476C
:101D7000000000D0FFFFFFFF002B00D0BFE0130CDE
:101D800028D1002AE7D080B4114F39667A66FFE780
:101D9000FFE730B4040C7B6F396F1B0423433B66B1
:101DA0007A66FFE7FFE7FFE7C04684B27B6F3D6FCF
:101DB0001B0423433B667A66FFE7FFE7C046002328
:101DC0002C042D0C7A6F386F00196941B0BC704734
:101DD000000000D0F0B594460025140E01D1120287
:101DE0000835140F01D112010435940F01D192006E
:101DF0000235D40F01D152000135D40B0134254FE7
:101E00007C66254C3C660E0C93B2FFE7FFE7FFE7CC
:101E10003C6F6643360C7703BE467343DF0B5B04AF
:101E2000C01AB941130C7343DB18C91ACE086643B4
:101E3000360CB64493B273431F0F1B01C01AB9414D
:101E4000130C73431F0B1B05C01AB941860D8F027B
:101E50003E436643360C092D24DB520A7243801A36
:101E60007703460A6643360C16235B1BDE40DF40D1
:101E7000BF1964466643821B704604350633010071
:101E8000D940A840C01900D30131A24206D2002394
:101E9000F0BD0000000000D0FFFFFFFF121B01306B
:101EA000F3D3F1E709277F1BFE406446A2B27243D9
:101EB000801A00D20139220C7243130C1204821AC8
:101EC00099410B007046043513370100F940A840D2
:101ED000801900D30131002B02D1A2420AD2F0BDF9
:101EE000013000D30131121BFAD2013BF8D1A242DA
:101EF00000D2F0BD013000D30131121BF7E7F0B57D
:101F00001C0C00D080E00CB400251C0A04D11B027C
:101F1000160E3343120208351C0B04D11B01160F99
:101F20003343120104359C0B04D19B00960F3343BD
:101F300092000235DC0B02D192185B4101351C0086
:101F4000971864410134464F7C66464C3C660E0C43
:101F5000FFE7FFE7FFE7C0463C6F6643360C7703B9
:101F6000BE4697B27743C01B00D20139C01B00D2D6
:101F700001399FB27743C91BC91B170C77437E04F5
:101F8000FF0B801BB941CE086643360C0C2D33DBAA
:101F9000B644120B1F053A431B0B97B27743C01B85
:101FA00000D201399FB27743C91B170C77433E0417
:101FB0003F0C801BB941860D8F023E4366432927A3
:101FC0007F1BFE400C3D7746AF40BF1930BCA2B22C
:101FD000ABB272437343801A9941220C7243130CC3
:101FE0001204801A994102000B000137001BA9411D
:101FF000F9D2781E0021F0BD0C277F1BFE407746EA
:102000007F0BAF40FF19E0E700245D1C07D0144FA1
:102010007D663966FFE7FFE7FFE7FFE73C6F95B2B4
:102020009EB265436643401BB141150C1E0C6543CF
:10203000664336042F0C3E432D04401BB1419942A8
:1020400004D202000B0020000021F0BD01D190421B
:10205000F7D3801A994101349942F2D3F6E7000090
:10206000000000D0FFFFFFFF48404140484018B447
:10207000134B5B68019308BD18B4114B1B680193A7
:1020800008BD94460F4A926F920805D2624618B472
:102090000B4BDB68019308BD0A4AF0B5146E556E10
:1020A000576F166F6246FFF7F2FF064A14665566D1
:1020B00057671667F0BD18B4014B9B68019308BDC4
:1020C00020190020000000D0FFB550404240504091
:1020D00059404B40594000E0FFB5154F4C00640D8E
:1020E00003D0BC4204D10C0314D80020090D09050B
:1020F0005C00640D03D0BC4204D11C030AD800224A
:102100001B0D1B0501264B4009D44B4003D58B42C8
:1021100000D18242FFBD9942FCD19042FFBD0B43EA
:10212000DB1803431343F5D0C9434918FFBD000032
:10213000FF07000000B5FFF7CFFF01D0002000BD72
:10214000012000BD00B5FFF7C7FF804100BDC046BC
:1021500000B5FFF7C1FF01D9002000BD012000BD7F
:1021600000B5FFF7B1FF804100BD012040054A00E6
:10217000121804D85A00121801D800207047012004
:10218000704700000021002805D17047C117484062
:10219000401AFAD0C90713B5064B1B6898470CBC08
:1021A000441CA2401005120B0349091B09051943E1
:1021B000114310BDC42800201F04000010B54C00BE
:1021C000620D8023D218DB00D21A5B057E2A10DD57
:1021D0009E3A13DACC170903490819435242D140F9
:1021E000640001341532202A05DAD04008436043E8
:1021F00010BD002010BD0846604310BDC80FC018B8
:10220000013810BDC94211D300B549004908002268
:1022100000F014F8002904D4002240428A411146FB
:1022200000BD80210906002000BD000018B4024B4B
:10223000DB6E019308BD00002019002018B4024B8A
:102240009B6F019308BD00002019002018B4024BB9
:10225000DB6F019308BD00002019002010B5014874
:10226000FEF7B2FA9C300110132370B51D78012DD2
:1022700019D014DD1D48FFF705FB06001C48FFF7C9
:1022800001FB1C4C80223100200000F081FA022D5D
:1022900006D01948FFF7EEFA184B186070BD154CC0
:1022A000174BA364F5E7174B124C23606360A360E0
:1022B000E36023616361A361E36123626362A362FC
:1022C000E36223636363A363E36323646364A364DC
:1022D000E36423656365A365E36523666366A366BC
:1022E000E36623676367A367E367D9E753440000A6
:1022F00053460000201900204C330000C428002061
:10230000A52300105D220010244A4B0094465B0D6B
:102310006344F0B504000D005A1C21DB5A1C35D073
:10232000342B1CDA3326F61A3700203F1CD4012147
:10233000B9400B000121B1400A0012196B41002F76
:102340001EDB0224BC4021000224B4402000160001
:10235000002544428D4126402B4030001900F0BD3D
:10236000CB0F0020D907FAE720210120891BC840A4
:102370000121B14003000A0012196B41002FE0DA7D
:1023800020240225A41BE5402900DDE7CB0F044AE9
:10239000DB071A4300201100E1E7C04601FCFFFF04
:1023A0000000F03F07B5604601880A0A0230DF2AC4
:1023B000FAD1C9B2820804D30288408800041043CD
:1023C00000E00068014A5050039007BD201900202A
:1023D00051434343C9188C46110C83B24B4310B48C
:1023E000040C614392B280B2504362431C041B0C44
:1023F000001910BC59411304120CC018514161441A
:10240000704700004840414048400E4B5B68184709
:102410000C4B1B6818470C4A936F9B0802D2094B60
:10242000DB681847F0B5146E556E576F166FFFF7DF
:10243000F6FF054A1466556657671667F0BD014BEF
:102440009B681847C8280020000000D007B5484006
:102450004140484001E0C04607B54200120E03D09B
:10246000FF2A03D1420218D8C00DC0054A00120E3F
:1024700003D0FF2A03D14A020FD8C90DC905012292
:10248000414005D4414001D5814207BD884207BD86
:102490000143491801D0C043001807BD00B5FFF73C
:1024A000DBFF804100BDC04600B5FFF7D5FF01D975
:1024B000002000BD012000BD00B5FFF7C7FF01D916
:1024C000002000BD012000BD00B5FFF7BFFF804127
:1024D00000BD0000C10FC90700D54042002817D039
:1024E000F44603B40B4B1B68984706BC81409E38EA
:1024F0004042803107D20B0607D04900490AC00587
:102500001043084360470130F8E7490A8902F5E7BC
:1025100070470000C428002041000A0E80231B06DB
:102520007E2A0BDD9E3A0BDAC117400240081843A1
:102530005242D04049000131484370470020704763
:10254000C00FC01801387047C0420DD300B540001D
:102550004008002100F00EF8002801D4404200BDE0
:102560008020000600BD0000014BDB691847000019
:10257000C8280020014B5B6A18470000C8280020CB
:10258000014B1B6B18470000C8280020014BDB6F74
:1025900018470000C82800204100090E862902DAE9
:1025A000044B1B6C1847044900B500F0DDF802BC71
:1025B0008E46F5E7C8280020DB0FC94010B501485A
:1025C000FEF702F9F43B0110132310B510481C78F4
:1025D000FFF758F90100012C0AD003DD80220D48D5
:1025E00000F0D6F80C48FFF745F90C4B186010BD09
:1025F000084C5422200000F0CBF822000849803219
:102600002368002B00D1216004349442F8D1E9E71B
:1026100053460000C82800204C330000C428002086
:10262000BD250010F0B546464F46D646C0B5FF263C
:10263000C50DCB0D354088461700041C1E40002AEE
:1026400001D000231360FF2D5ED0002E5CD0002D42
:102650005DD0201CFF2E52D03300013BB246AB426E
:102660004DDC802212049146E10F6402640A144397
:1026700042464E465202520A1643B146AB4248D039
:1026800000294FD0534600216442ED1A002D55DD3C
:102690004B460120D9114042FFF7AEFA1D2300211D
:1026A0009C462A000C2D00DD0C22664663129440E5
:1026B0004343B61A334126004C46914001335B1028
:1026C0005C435918341BAD1A002DEADCA14533DCFC
:1026D0004B46E41A4C4544DBE41A023163004B4597
:1026E00034DC31D04346002B00DA4942002F00D0C1
:1026F0003960962153462000C91AFFF741FFE0BC1C
:10270000BA46B146A846F0BDFF20C005F7E7002055
:10271000F5E7B442F3DD730000291BD1AA46E41AA1
:102720000131DFE75346ED1A002DB1DC0021B44240
:102730000CDB0121A41BD1E7002CCFDA4B46E418B7
:102740000DD54C440239C9E7CB07CBD54B460131F7
:10275000E41AC7E70121AA461C1B4942C2E7013916
:10276000BCE70131BAE7C04610B50022FFF75AFFB7
:1027700010BDC04601480421014B184790100020AD
:1027800095180010014B1B6818470000901000209E
:10279000014B5B68184700009010002010B500281E
:1027A00000D110BD00F0F8F9FBE7C0460FB430B51A
:1027B0000C4985B008AA08CA0D680392002D0CD0F8
:1027C00000920122084C5242200002A9A847012091
:1027D00005B030BC08BC04B01847180000F028FA57
:1027E0000020F5E7942800209D27001010B5094A25
:1027F0000300146884B0002C08D001220091064820
:10280000524203A9A047012004B010BD00F010FA05
:102810000020F9E7942800209D27001000BEFDE766
:10282000094A03001068002805D00849C3188B42E4
:1028300007D81360704706480449C31810608B42DC
:10284000F7D901204042F5E7902400200000042041
:10285000F029002000207047012040427047C04608
:10286000030010B508001100002B05D1044B1A68B5
:102870005B6800F033F910BD01204042FBE7C04621
:10288000085601100300013B10B508001400012B8D
:1028900006D801230022210000F0A0F8200010BD7E
:1028A00001204042FBE7C046012040427047C0463D
:1028B000012040427047C046012040427047C04658
:1028C0000300022200209A424041704710B5FFF7F2
:1028D000A5FFC04630B50D0083B01900002A0BD00B
:1028E000074B084C0192009302002B002000FFF7D9
:1028F0005DFF0120FFF792FF034B1A00F1E7C0468E
:10290000FC3001100C310110F43B011070B5FFF7E1
:1029100013F8074D074EB54209D20024013E761B3D
:10292000B60808CD984723000134B342F9D170BDF1
:102930006C18011078180110030010B50800110080
:102940001B68984710BDC046F0B5C64600B5437D2C
:1029500007000D001600002B38D0002A2EDD0021C4
:102960006A1E90466A5C037D4C1C00200A2A0CD02B
:10297000A64216D043461B5D21000D3B5A425341EF
:102980006A5CDBB24C1C0A2AF2D1002BF0D18842DF
:1029900017DB022110483B689847A64207D0200069
:1029A000E8E7864203DD311A3B6828189847AD19DD
:1029B000013D2B780D3B5A4253413B7580BCB846D4
:1029C000F0BD091A3B6828189847E2E70368110030
:1029D00028009847F2E7C04664560110F0B5DE467D
:1029E00057464E464546E0B585B017001C00060028
:1029F0000D00FEF765FD0023314A12184B4180217E
:102A000009068B4202D301222E4B52422E49080066
:102A10008A460EF0EDFE01906B1C03D130000DF0E4
:102A200029FB0500002C26D0284B9846284B1C6813
:102A3000002C15D0002F21D1264F02E02469002C54
:102A40000ED02368002BF9D03B68002B01D09C42AC
:102A5000F4D120002A003100C0472469002CF0D1B5
:102A6000019B002B28D1280005B0F0BCBB46B24624
:102A7000A946A046F0BD184B9846D7E7154B994696
:102A800002ABDF1D0A239B4602E02469002CE7D03D
:102A90002368002BF9D04B461B68002B01D0A342C2
:102AA000F3D12A0031002000C0475B4601223900E3
:102AB00020003B70C047E8E750460EF059FED2E7D1
:102AC00040420F00FFFFFF7F9017002049290010B0
:102AD000442400204C24002039290010F8B5574622
:102AE0004E464546DE4698461A4BE0B59B461A4B85
:102AF00007000E0091469A46184D5B461C68002C54
:102B000003D115E02469002C12D02B68002B01D0D2
:102B1000A342F7D1A368002BF4D0310038009847C6
:102B20000028EFDDF0BCBB46B246A946A046F8BD82
:102B300053465B6A984508D85246926A4A4502D382
:102B400002204042EEE79845FAD101200021FEF72D
:102B5000C1FCD2E744240020004005404C24002062
:102B60000A4A1368002B05D10CE01A001B691032C9
:102B7000002B07D09842F8D1002902D103691360D5
:102B8000016170470029FCD01060FAE7442400205E
:102B900010B500F08DFA10BDF0B5CE46474680B5B1
:102BA00083B06B460600DD1D2870FEF789FC00230C
:102BB0001A4A12184B41802109068B4202D3012286
:102BC000174B52421749080088460EF011FE164B6B
:102BD00081461C68002C14D0144F02E02469002C9C
:102BE0000FD02368002BF9D03B68002B01D09C420A
:102BF000F4D1200001222900FFF7A6FE2469002C51
:102C0000EFD14B46002B05D1300003B0C0BCB94614
:102C1000B046F0BD40460EF0ABFDF5E740420F0078
:102C2000FFFFFF7F90170020442400204C24002049
:102C300070B504000DF01EFA012301000500012209
:102C40002000FFF7CBFE084B1C68002C06D0636801
:102C5000002B05D098472469002CF8D1280070BDBE
:102C60002469002CF3D1F9E7442400207047C046C2
:102C70000022014B1A707047EA2900204B7900208E
:102C8000FF2B0BD18B79002B08D1CB79012B05D1F0
:102C9000082A03D9024B8A7809301A707047C04657
:102CA000EA2900200120704710B5012901D0012038
:102CB00010BD13495379107909781B020343002092
:102CC0009942F5D15378012B08D0022BF0D1002086
:102CD00064220021FEF778FD0120E9E7D37891789E
:102CE0001B021943DB0507D54A0A100001231A40CD
:102CF0007E331940FEF7F0FD01204A0A4042F5E715
:102D0000EA290020004870473057011070B50500CF
:102D100014000120012909D153780020012B05D18D
:102D2000637912791B021343072B00D070BD210079
:102D30002800024A9F3301F05FFAF7E78856011036
:102D40000123037000487047685601104B780A78D9
:102D50001B0213438A7810B512041A43CB781B0662
:102D600013439622D200934200D010BD00220120CE
:102D700011004042FEF7B0FD024B1860024B196093
:102D80007047C046E4230020E823002010B5024B22
:102D90001878FDF7FDFD10BDEB290020154B70B52F
:102DA0001A68002A22D0EFF3108172B6106800284A
:102DB000FCD0BFF35F8F00200F4A596010701B6872
:102DC000BFF35F8F186081F31088002400250B4E3D
:102DD0003078FDF7D1FD002804D10024002529001A
:102DE000200070BD3078FDF7D3FDF8E7FA24002508
:102DF000A400ECE7A4280020EC290020EB29002007
:102E000070B5040000200E0001F016FB002836D03B
:102E1000002001F027FB002831D0FEF751FB0023F2
:102E2000184A12184B41802109068B4216D2164DC2
:102E300028000EF0DDFC002821D0002001F0FCFA73
:102E400000280FD101200021404200F009FD032499
:102E5000644228000EF08CFC200070BD01220B4B58
:102E60005242E4E7002001F0FDFA0028EAD02100F8
:102E70003200002001F000FB041EEAD1E7E7032442
:102E80006442E9E740420F00CC290020FFFFFF7FAA
:102E900010B5FEF715FB00230E4A12184B41802196
:102EA00009068B4202D301220B4B52420B4C2000ED
:102EB0000EF09EFC00280CD001200021404200F0C2
:102EC000CFFC002001F022FB0028F5D120000EF0FD
:102ED0004FFC10BD40420F00FFFFFF7FCC290020B8
:102EE000F8B5DE46574680B505000C00FEF7E8FA57
:102EF0000023374A12184B41802109068B4202D326
:102F00000122344B5242344908008A460EF070FCCC
:102F1000002803D1C0BCBB46B246F8BD002001F07A
:102F20008BFA00284AD00026002C43DD2B4B9B4611
:102F300014E0A919002001F023FB07000120002163
:102F4000404200F08DFC002001F0E0FAFEF7B8FAF4
:102F5000224BF61918605960B4422BDD002001F0B5
:102F60002FFBA71B0200B84200DD3A00002AE0D187
:102F700001200021404200F073FC002001F0C6FA5D
:102F8000002001F059FA002814D0002001F018FBAD
:102F90000028E1D1FEF794FA5B460F001A685B68DF
:102FA000002184460E4812184B419F4202D8D3D1CB
:102FB0009445D1D950460EF0DBFBABE70020002151
:102FC000064B1860596050460EF0D2FBA2E7C0468F
:102FD00040420F00FFFFFF7FCC290020181900207E
:102FE00020A1070030B52B4C85B0002120000EF049
:102FF000DFFB00281CD1284B1A68002A16D0EFF3FB
:10300000108172B610680028FCD0BFF35F8F0124D6
:103010002248596002781B68D2B20470BFF35F8FF8
:103020000020186081F31088002A17D005B030BD49
:1030300001200021404200F013FC002001F012FAB0
:10304000050020000EF094FB002DEFD0144B1B6800
:10305000002BEBD0134A10689847E7E7FEF7A0F87B
:103060000400FEF72DFAFA220023920012184B41B9
:10307000802109068B4202D301220B4B52420121CF
:10308000029100210191094920000091FEF78CF87E
:10309000CCE7C046CC290020A4280020EC29002041
:1030A000E4230020E8230020FFFFFF7F9D2D001078
:1030B000D02310B51B0684B01C68FEF771F8FEF72C
:1030C0006FF9A04202D0002004B010BD2A4B0021AD
:1030D00000201B7801F070FD28480368002B47D0C2
:1030E0000120FDF7EDFDFF23254C264920701840F7
:1030F000FDF768FC20780121FDF72CFC0520FDF789
:103100004FFC002826D1082200211F48FFF73AFB78
:10311000FEF746F80400FEF7D3F9FA2200239200E6
:1031200012184B41802109068B4202D30122174B12
:103130005242012102910021019115492000009184
:10314000FEF732F80028BEDB12480121FFF708FD28
:103150000120B9E70120FDF7CBFB0B4B0100180064
:10316000FDF710FE002205200B49FDF755FCEBE7AB
:10317000FDF7ECFDB4E7C04670630110CC290020D8
:10318000EB290020E52F0010A4280020FFFFFF7F7F
:103190009D2D0010A01000208D2D001000487047BC
:1031A000CC570110004870477857011010B5040043
:1031B00017480378002B20D0002C06D1154B164859
:1031C0004380063BFF3B038010BD052C19D8134BF1
:1031D000A400E05812490123013804E001330A80B9
:1031E0000231142B0FD0C25C002AF7D1C022DBB20F
:1031F0005B00920008481343E5E7112100F01AF83C
:10320000DAE70020E0E7CA2303489B00DBE7C0467B
:10321000D4290020090400001C240020605701105C
:103220001E24002010B5024800F0D8F810BDC0469A
:10323000BC28002030B54B1E012900D1A7E0664A0A
:1032400011780D092C0030349F2900D9A2E00470B8
:10325000012B00D1BEE00F21147821400C00303446
:10326000092900D998E04470022B00D1B2E05478CB
:103270002509290030319F2C00D990E08170032B63
:1032800000D1A7E00F2121400C003034092900D9DA
:1032900087E0C470042B00D19CE0947825092900B4
:1032A00030319F2C00D97FE00171052B00D191E0D6
:1032B0000F2121400C003034092900D976E04471F7
:1032C000062B00D186E0D4782509290030319F2CC7
:1032D00000D96EE08171072B00D17BE00F212140E6
:1032E0000C003034092966D8C471082B00D171E074
:1032F00014792509290030319F2C5FD80172092BE0
:1033000068D00F2121400C003034092958D844726C
:103310000A2B5FD054792509290030319F2C52D8CF
:1033200081720B2B56D00F2121400C00303409291B
:103330004BD8C4720C2B4DD094792509290030311B
:103340009F2C00D9073101730D2B43D00F21214051
:103350000C003034092901D937310C0044730E2B8D
:1033600038D0D1790C09220030329F2900D9073298
:1033700082730F2B2ED00F220A4011003731092AF9
:1033800001D830321100C173102B23D0103000232C
:10339000037030BD07345AE737310C0063E707315B
:1033A0006CE737310C0074E707317DE737310C00EB
:1033B00085E707318EE737310C0095E707319DE748
:1033C00037310C00A3E70731AAE737310C00C4728C
:1033D0000C2BB1D1C018DAE7BC28002010B588B09A
:1033E00004000D2200216846FFF7CCF90D220021D0
:1033F00004A8FFF7C7F94B236A466846137004A96F
:103400000D220EF0ADF91521082220006944FFF7C6
:10341000BFF908B010BDC046F8B500F043F90C2361
:10342000194DFF22AB6705201849FDF7F5FA184C36
:10343000402200212000FFF7A5F9402700230126A4
:103440002121144A66702783A260136063545F31A0
:10345000618445396354104A10496360E2602787EC
:10346000A1620B606362E2620EF0D2F980239B05D9
:103470002E64EB6490230A4A0120EA508022094B13
:103480005202DA64F8BDC04600001150E104002089
:10349000942400208400105000011050800010502F
:1034A00010D001000020115010B501210520FDF7BA
:1034B00051FA10BD10B500220021024800F012F9A7
:1034C00010BDC046B4240020044B1970002904D05C
:1034D00080219023024A8902D1507047E6290020BA
:1034E000002011500B785B0602D14B78052B00D0E1
:1034F00070478A78014B1A60FAE7C0460000115005
:10350000F0B5C646C87800B58007830F1800012BB8
:1035100060D08F780A794B797F213940FC091B02F2
:103520004E001343334D32195201AA1897700127E8
:103530006740577000275B055B0DD7701383D0760B
:10354000B846CA00012C32D02B4FBC468F016244D2
:10355000BC46AC446746BA6047461760002932D083
:10356000264AC90090466246414451603F223F339B
:103570009343022837D0224937190A687F01D318AC
:103580000B602049EF19FA608B422ED8361976016C
:10359000AD19EB7E1C499B064A401343802212065C
:1035A00013436A681360012080BCB846F0BD174F12
:1035B000BC468F016244BC46AC446746BA6247468B
:1035C0001760002908D1002364012C196360104B97
:1035D000E360E8E70020E7E70B4AC900904662464F
:1035E00041445162C2E75B00C5E7FEF79FF9FA6804
:1035F000CCE7C046942400208400105004001050F2
:10360000A0280020FF0F1050000010508000105024
:103610000001105010B50EF0FBF810BD10B57F2062
:103620000C0020404000E409110000191A00034B6F
:103630004001C01800F056F8012010BD942400206D
:103640007F23180010B50840CA090B4203D107496F
:103650007D3B9B1A8B66400080188022044B400102
:103660000021C01812010EF0DBF810BD002011502F
:10367000942400207F22130010B50B400A4200D191
:1036800010BDC9095B005B1804485B01C01800232A
:1036900000220349C3700EF0C3F8F1E79424002020
:1036A000FFF7FFFF80220A4B520410B51A60094B46
:1036B00009491A6010000B689843FBD18022002151
:1036C00052010648FFF75EF80922054B5A6710BD04
:1036D00000E0004000F0004008C000400000105032
:1036E00000001150002310B5C3820133828283761B
:1036F000016104000EF064F8002804D080219023BA
:10370000074A8902D15020000EF042F8002802D06A
:103710000123237710BD20000EF072F8FAE7C046AF
:10372000002011507047C0467047C04600207047C7
:10373000002070477047C0467047C0467047C0467B
:103740007047C046024B5878431E9841C0B270473C
:10375000FC1E0020024B18784007C00F7047C0467F
:10376000FC1E0020F0B5D6464F464646C0B5314B4C
:1037700007009A461B780E00FF2B01D0012044E081
:10378000002941D0002154222B48FEF7FBFF0022E4
:103790002A4C2B4B20001A70FDF7D8FA294B1C60DD
:1037A000294C2000143CFDF7DFFA200001F00CFE4C
:1037B000264B274D1C60274B002B2BD02800FFF7F2
:1037C000BFFA254B2A7818602449002489462249EB
:1037D0000023884610E043461B6862019B18002BBB
:1037E00012D05B68002B0FD098472A780134E4B2DE
:1037F000511C2300A1420FDBA242ECD89B1A5B01B3
:103800004B445B68002BEFD10020E0BCBA46B146C8
:10381000A846F0BD2A78D7E75346310038001F701C
:10382000FFF7FAFD0028EFD03800FFF73DFE01203A
:10383000EBE7C046D4100020FC1E0020F41E002040
:10384000E7290020501F0020CC100020541F00202A
:10385000E5290020412D00104C1D00208858011042
:10386000F0B5DE4657464E464546E0B5C84B91B0EA
:1038700002931B78FF2B00D13EE1C64BC64E9B4600
:103880005F46C64B0DAC0193C54B009335686A6922
:10389000EFF3108172B61368002BFCD0BFF35F8F7B
:1038A000A9612800210001F0BDFB6A69AB69BFF383
:1038B0005F8F0021116083F31088002800D11BE185
:1038C0006378082BE2D89B00FB589F466368002B67
:1038D000DCD0A0689847D9E77F222179AF4D0A4014
:1038E0005300EB189846C809804440460123303005
:1038F00005799D430571057903339D430571002AC0
:1039000000D100E14346A74A1B7D1278934200D3C1
:10391000EFE0A54A5B011568ED18002D00D1EBE042
:10392000A36862792078AD69A847AFE79F4A13780A
:10393000002B00D1E0E01378013BDBB21370137869
:10394000002BA3D10122954D01212B780420134394
:103950002B703423EA5C8A43EA54EA5C8243EA54DB
:103960000133EA5C8A43EA54EA5C8243EA542378EE
:1039700000209B4600F0A0FC602223791A40602AB8
:1039800000D1EFE0402A00D1F5E0DB06DB0E012B91
:1039900000D113E1022B00D1C7E0002B00D0E1E001
:1039A000202A00D11CE2002A00D0DBE06379092B39
:1039B00000D9D7E07E4A9B00D3589F46774D2B789D
:1039C000DB0700D462E7FFF7BBFE5FE7019BDB7814
:1039D000DB0700D45AE76068FFF7A6FE56E76F4D95
:1039E0002B78DB0700D451E728780007C00FFFF7DA
:1039F000A5FE4BE723786A4999468B46694B6A498D
:103A000098468A4639001A7847460023B046002572
:103A10004E46894610E053461B686A019B18002BEE
:103A200000D176E0DB68300098473A780135EDB296
:103A3000511C2B008D4244DC9542ECD39B1A5B0158
:103A40005B44EFE7237858499946564B8A46984697
:103A50003100BB464E461A7800250023474689466A
:103A60000FE053461B686A019B18002B55D0DB689A
:103A7000300098473A780135EDB2511C2B008D4249
:103A800007DC9542EDD39B1A009A5B019446634490
:103A9000EDE7019D542200212800FEF773FE10225D
:103AA000FF214448FEF76EFE28002022FF2114303B
:103AB0004E465F46FEF766FE00F0F4FBFFF73CFE65
:103AC000E4E6364D542200212800FEF75BFE10226A
:103AD000FF21281DFEF756FE28002022FF2114306A
:103AE00046464F46FEF74EFE00F0DCFB2379AB70F6
:103AF000CCE6501C984213DA11B0F0BCBB46B2467B
:103B0000A946A046F0BDA3686279207800F0E8FBE2
:103B1000BCE646464F46214DE6E74E465F46CBE7BC
:103B20001F4D9B1A5B015D19FAE67023217A0B4247
:103B300018D1C80982460F330B405B0098461948DC
:103B4000EB1853441B7D00789946834266D2164891
:103B50005B01006881469944002A00D15FE14B4631
:103B6000002B68D120780021FFF76AFD80212078A2
:103B7000FFF766FD8AE6104800F09EFB01215846DB
:103B80000EAAFFF7C3F8002800D07FE6EAE7C04698
:103B9000D4100020E0570110541F0020FC1E00200C
:103BA00088580110E52900204C1D0020E72900203D
:103BB00004580110001F00200D2D0010237A0F2B38
:103BC000D0D8CF4AEB181B791578AB423ED3691C8D
:103BD0009942C7DB5D1BCB4B6D01ED18686900F0A6
:103BE0006BFB012158466B690EAA9847002800D04C
:103BF0004CE66022150023791D401A42B2D1637948
:103C00000A3B012BAED800F057FB63790A2B00D199
:103C100099E158460EA900F0D9FA37E6431C4B4506
:103C200000DAF7E04B461B1A5B019946B548814420
:103C3000002A00D1F3E04B46586900F03DFB4B46AB
:103C4000012158465B690EAA98479CE7AE4A5B0182
:103C50001568ED18002DC1D184E7A37999466B78DA
:103C60009945D6D06B78002B00D033E14B466B7072
:103C7000002B00D12BE148460138C0B2FFF792FA81
:103C8000002800D17EE143780793022B00D079E130
:103C90000122C179B1468B11491113400A403021EC
:103CA00012015B0113432A78A8468A4313432B7001
:103CB00009239A4682445646BA46C37882781B0244
:103CC0001343C31805938E4B04938E4B08938E4B6E
:103CD00009938E4B0A93059BB34200D855E1737844
:103CE00001220B2B03D13378F278F6187378042B6A
:103CF00000D044E1059B00279B1B9BB20693049BCD
:103D00000B921D78002303931BE0099A7B01156831
:103D1000ED18002D00D132E1310058462B69069A8A
:103D200098478446082803D9069A824200D313E1B3
:103D3000049B01371D78FFB26B1C03979F4200DD87
:103D40001DE1BD42E1D8039B5D1B089B6D019C46B4
:103D50006544E1E76B780CAA0232137058460123E0
:103D60000EA900F049FA91E5E3881A0AD8B20F2AA1
:103D700000D9F7E666499300CB589F460EA800F09D
:103D8000A1FA5846A179FFF795FB02222B7813433D
:103D90002B707BE5E388012B00D0E3E608222B782B
:103DA000584693430EA92B7000F010FA6EE50220DE
:103DB00029780CAB9A1C8B068908DB0F01400B435A
:103DC0001380584602230EA900F016FA5EE5E38838
:103DD000012B00D0C6E608222B7813432B7018E77E
:103DE000237A0F2B00D9BDE6EB181D79444B1B78C5
:103DF0009D4228D2444B6D011B685D19002D00D1F6
:103E0000B0E6686900F058FA012158466B690EAABD
:103E10009847B8E6002A00D0A4E6002399466279C4
:103E20000220130003928343012B15D0002A00D0F7
:103E300098E62B004344534430331B790CAA9B076C
:103E4000DB0F0232BCE75A1CAA4200DA8AE6ED1AFE
:103E50002C4B6D01ED18D4E7E388002B12D1029BA7
:103E60001878039B012B23D0FFF7EAFB434602217E
:103E7000EB18534430331A790A4301211A711A7925
:103E80000A431A714B46002B00D1FFE4586900F039
:103E900013FA4B4601215B690EAA58469847002049
:103EA00000F00AFA3523EB5CDB0700D5EEE4B0E660
:103EB000FFF7E0FB43460221EB18534430331A79F5
:103EC0008A431A711A7903998A431A71DAE7FFF75C
:103ED00033FC9EE600215846FFF7F6FA5846FFF7F6
:103EE00099FBAB78074903930491054B0649984623
:103EF0001A780591002329001D008A461BE0C04660
:103F0000E5290020885801104C1D0020101F0020BA
:103F10002C580110059B6A011B689B18002B4DD083
:103F2000DB685846984743461A780135EDB2511C74
:103F30002B008D422EDC9542ECD39B1A049A5B0138
:103F400094466344ECE70CAB9A1C584601230EA937
:103F5000157000F051F999E40B9A012A4FD0002A0C
:103F60003CD00023B07804E00133DBB20F71934200
:103F700034D2C118C9B241440D79FF2DF4D04E4658
:103F80004546574600236B70ECE54E465746FFF713
:103F9000D1FB3EE65546542200212800FEF7F2FBF5
:103FA0001022FF21281DFEF7EDFB28002022FF2113
:103FB0001430FEF7E7FB039BAB7057E65546FAE774
:103FC000FEF7A0FE021E00D1CCE5D37891781B024B
:103FD0000B4358460EA900F00FF9D4E565463B00A7
:103FE0002A0031000A9800F08DFEAC46049B039A2B
:103FF0001B7866440133934200DB6CE6BFE7174B46
:1040000029699942ADD1079AABE7FFF78FFB021EF2
:1040100000D1A7E5584613780EA900F0EDF8B2E5F7
:104020002189FFF7C3F8021EF4D19BE5022A0FD0C5
:10403000FFF77EFB021EC8D194E5FFF7AFF8021E22
:1040400000D18FE5122358460EA900F0D5F89AE565
:10405000FFF7A8F8021EB8D184E5C046C546001097
:10406000F8B557464E46DE4645460C00E0B516000C
:104070001F00002A3CD01F4B00259A46702399460A
:104080001D4B9B4617E05B462000997800F0FCFD35
:1040900000281FD021004046FFF732FA002819D02F
:1040A000A378DA09012A1CD00A9A01351370237803
:1040B000E418B5421CDA6378052B0BD1E3789B0733
:1040C0009B0FBB4206D153464A461B789846A378BD
:1040D0001A42D8D00020F0BCBB46B246A946A04642
:1040E000F8BD0B9A013513702378E418B542E2DB72
:1040F0000120F0E7D4100020FC1E0020702270B5D3
:10410000094B0C001D788B781A4201D0002070BD3D
:10411000064B2000997800F0B7FD0028F6D021006A
:104120002800FFF7EDF9F2E7D4100020FC1E002074
:104130000B007F2010B51840DB0934334000044ADF
:10414000C018044B1168C01800F05AFD10BDC046DD
:10415000501F0020FC1E00200B007F2010B51840CF
:10416000DB0934334000044AC018044B1168C018FE
:1041700000F06EFD10BDC046501F0020FC1E002048
:1041800070B57F240F480C4064000419CD096419F0
:1041900030342079C00701D5002070BD0126257973
:1041A0000948354300782571FFF738FA0028F4D123
:1041B000012223799343237123790332934323719B
:1041C000EAE7C046FC1E0020D410002070B5094C60
:1041D0000600082220000D00FEF7DAFA00238021F5
:1041E000E360A3602B783000994300220023FFF79F
:1041F000C7FF70BDDC1E0020F8B5CE46474690468E
:10420000264E80B58146082230000D001F00FEF7C3
:10421000BFFA4346B3600023F381EC79AB79240203
:104220001C43231CBC4200D93B1C9FB2B381002C11
:104230000ED0002F18D04346002B2CD03B1C402F13
:104240001BD89FB233787F2B1CD80021144A0FE073
:1042500080212B780022994348460023FFF790FFE6
:10426000C0BCB946B046F8BD7F23002231789943DF
:104270003B004846FFF784FFF2E740239FB23378C4
:104280007F2BE2D9064C3A0041462000FEF780FA27
:1042900080212200ECE70020E2E7C046DC1E00207F
:1042A0009C1E002010B5142200210248FEF76AFA75
:1042B00010BDC046DC1E0020014B18617047C0468F
:1042C000DC1E002010B5054C010008222000FEF77E
:1042D0005FFA0023A360E36010BDC046DC1E00202F
:1042E00070B5384C1D0023780600DA09C9098A42E6
:1042F00010D00020002D00D070BD21003000FFF74D
:10430000F1F82369002B03D02200032130009847E5
:104310000120F1E7A0687F2B05D8002834D02A00BF
:104320002949FEF735FAE289A1685219E38892B269
:104330004919E281A160934214D03F2D12D9A3897B
:10434000981A051C80B240282AD82078ADB27F2860
:1043500028D800219A4232D01B4A2B003000FFF7A8
:104360000FFFC9E72369002B05D02200022130008E
:10437000984700280AD080212378002299433000F2
:104380000023FFF7FDFEB7E70020B5E7002130006E
:10439000FFF756F930008021FFF752F90120ABE713
:1043A0004025D2E79A4207D0074C2A002000FEF7AA
:1043B000EFF980212200D0E780210022CDE7002202
:1043C000CBE7C046DC1E00209C1E002070B5050017
:1043D000FFF7B8F9002800D170BDFFF7BBF900283E
:1043E000FAD1C8236B43124CE618F1780029F3D0B8
:1043F00010331C19200000F0FFFD3F28ECD90020ED
:10440000F178FFF795FE0028E6D0200000F0F4FDDB
:104410003F2808D9074BEA01D218F1784023002041
:10442000FFF7AEFED8E7F1780020FFF795FED3E75F
:10443000D41D0020501D002010B50400FFF782F9A4
:10444000002801D1002010BDFFF784F90028F9D120
:10445000C8226243024B01309B181B791840F2E7D7
:10446000D41D0020C82310B543430248181800F09B
:10447000A5FD10BDE41D0020F0B5C824C64680236C
:1044800044431F4F1034050000B53C195B029A42AB
:1044900000D31C4A200092B200F012FE8046FFF7C3
:1044A00051F9002803D1404680BCB846F0BDFFF763
:1044B00051F90028F7D1C8266E43BE19F378002BB6
:1044C000F1D0200000F098FD3F28ECD90020F178D1
:1044D000FFF72EFE0028E6D0200000F08DFD3F28DB
:1044E00008D9094BEA01D218F17840230020FFF7E0
:1044F00047FED8E7F1780020FFF72EFED3E7C0464D
:10450000D41D0020FFFF0000501D0020F8B506005C
:10451000FFF718F9002801D10020F8BDFFF71AF9BC
:104520000028F9D1C82474432500134F2435ED1910
:10453000280000F043FD0028EED03F190020B97894
:10454000FFF7F6FD0028E7D00C4BF401E41821003A
:104550002800402200F0B4FDB978051E08D0030001
:1045600022000020FFF70CFE0028D5D02800D4E759
:104570000020FFF7F1FDCFE7D41D0020901D0020A3
:1045800070B5C82444430C4B0500E41880235B023B
:104590009A4200D3094A200092B200F059FE060068
:1045A000200000F00BFD3F2801D8300070BD28002E
:1045B000FFF7ACFFF9E7C046F81D0020FFFF000041
:1045C000C82310B543430248181800F015FD10BD6C
:1045D000F81D0020F0B50025184C83B0C82200213A
:1045E0002000FEF7CFF8164B21001D70FF236371EA
:1045F000E1235B02A360200008234022A37338312B
:104600000095073B103000F0A3FC27000123210098
:1046100020002600402278310093B837243000F083
:1046200097FCC0363800FCF791FB3000FCF78EFB9E
:10463000E56127622663656303B0F0BDD41D0020E9
:10464000D01D00200B4B196B00290AD01A6A002AD2
:104650000DD000221A621A63DA6100225A63012027
:1046600070471A6A002AFAD0D9611962F7E71A630B
:10467000F3E7C046D41D002070B50F4C0522002181
:104680002000FEF77FF80D4D2B78DA0707D50C4C8C
:104690009B070CD50121200000F0B6FE70BD200064
:1046A000103000F091FE2B78054C9B07F2D42000CF
:1046B00000F08AFEEEE7C046D41D0020D01D002089
:1046C000F81D0020F0B54B79060083B0022B02D113
:1046D0008B79022B03D00025280003B0F0BD214FB9
:1046E000BB78002BF7D18B7809253B700C780C191F
:1046F0006378242B0BD1082A02D80FE0AA420DD3ED
:104700002378E4185D196378ADB2242BF6D0052B1D
:1047100008D0042B02D163790A2B11D00020FFF7B7
:1047200055FED9E721003000FFF7E8FC0028D2D081
:10473000A3787B7023785D19E4186378ADB2E8E75D
:10474000094B2778019301330093022202233000A2
:10475000E119FFF785FC0028BDD00E35ED19ADB28B
:10476000DCE7C046D41D0020D61D0020F8B560232C
:1047700014001278050013400020202B07D1304A86
:104780006379277916781B023B439E4200D0F8BD1F
:104790006378222B1AD007D8202B34D0212BF6D1C6
:1047A00001293ED00120F2E7232BF0D1012940D08E
:1047B0000329F7D1234B002BF4D0E178A378090229
:1047C0000020194300E000BF0120E0E7012930D0BC
:1047D0000329E7D101252E00A378E47802392402C9
:1047E0001C431471264024321000714000F00CFE6E
:1047F000154B002BD6D06208002031002A4000E083
:1048000000BF0120C3E701290BD00329CAD10F4BF8
:10481000002BC7D0083200201100FEF797FA0120C4
:10482000B5E7072321002800094AFFF7E5FC01202E
:10483000ADE721002800FFF7C9FC0120A7E7C0462B
:10484000D41D002000000000000000004D2D0010CD
:10485000DC1D0020F0B54F464646D646364DC0B565
:10486000EA781F0080460C00AB788A423BD08B422E
:1048700010D00020E0BCBA46B146A846F0BD2F4B90
:10488000002B04D02E4800F0AFFB002851D00020B0
:10489000FFF79CFDAB78A34201D00120EAE7294B4A
:1048A000002B02D0002000E000BF0020FFF72EFE0A
:1048B0000028F2D1244C200000F080FB0028ECD12D
:1048C000002FEAD0BF06E8D1243C4046A178FFF78C
:1048D0002FFC0028E1D0002300224046A178FFF7FA
:1048E0004FFC0120C6E710239A46184EAA44310017
:1048F0005046BAB200F0ACFC154B002BBFD06B7920
:10490000FF2BBCD0002FBAD0F219914603E001363C
:10491000B145B4D06B7932789A42F8D1504600F064
:1049200063FB0028F3D15346103B597900E000BFE8
:10493000EDE700E000BFAAE7D41D00200000000062
:10494000E41D002000000000F81D0020501D002084
:10495000000000009322F0B5134C85B00021200028
:104960009200FDF70FFF23002000802640270F4D07
:104970004D337600FF332930029500930022002347
:10498000002103970196FF3000F0D6F94035201D35
:1049900028340023012200210397029501960094F8
:1049A00000F0CAF905B0F0BD9820002018200020C2
:1049B00010B5054C200000F0F5F920002538FF382F
:1049C00000F0F0F9012010BDC021002070B5084CA6
:1049D000002520003130FF30257000F0F5FC20006C
:1049E0000C3000F0F1FC2A23FF33E554657170BDF3
:1049F00098200020F8B557464546DE464E46E0B5BD
:104A00004B7980460F00FF2B27D1424B0C789946FB
:104A10002A234946FF33CB5C002B1ED14E79002E52
:104A20001BD1BB783C190B703B79002B12D098231B
:104A30005B004B449A460C234B449B46A518637875
:104A4000052B05D110E02378E4186378052B0BD0F3
:104A5000A542F8D8E01B80B200E00020F0BCBB46C5
:104A6000B246A946A046F8BDA542F3D9210040466A
:104A7000FFF744FB0028F0D0A3780136F6B2DB093B
:104A8000012B29D0504600F09FFC2A234946A278EA
:104A9000FF33CA54637922791B0213431E4A5B0514
:104AA00094465B0D942163445A4253414A46022086
:104AB0004900525C5B00824313434A4653545146BB
:104AC0004046083900F0D6F90028C6D02378E4180B
:104AD0003B79B342B3D8BDE7584600F075FC5A465F
:104AE000A3780C3A5371637921791B020B430A496D
:104AF0005B058C465B0D634459424B4102201179A2
:104B00005B0081430B43594600200839137100F0C4
:104B10007FF9DBE79820002000FEFFFF70B505005D
:104B20002A201F4CFF30205C1E006379884203D08E
:104B300000208B421DD070BD9A235B00E35A002BEE
:104B40000DD1184B002B04D000201749B2B200E061
:104B500000BF2800154900F08DF90120EBE7200087
:104B6000962331305B00E158B2B2FF3000F070FBA9
:104B7000E7E70F4B002B04D031040020090C00E0C4
:104B800000BF0C4C2800210000F042F90028E4D1BD
:104B900032002100280000F007F90120CBE7C046D1
:104BA000982000200000000018200020C0210020D4
:104BB000000000009C20002000B5030083B0002905
:104BC00010D00020012B07D80A78002A04D00B4807
:104BD000C2540120012A01D003B000BD1800FEF725
:104BE000C1FDF9E7012301A900200B80FEF7BAFD02
:104BF0000028F1D00122014B1A70EDE7F01E0020D1
:104C0000037870B5DB0704000E00DD0F002B17D111
:104C100003785B0701D5280070BD012130004942AF
:104C20000CF0D6FD2378DB07DD0F002B0AD12378AB
:104C30005B0708D40422237801251343237002E084
:104C40000025E8E7002530000CF092FDE3E7C046C0
:104C500070B50C0001210600494220000CF0B8FD9F
:104C600033785B07DD0F002B04DB20000CF080FDA8
:104C7000280070BD3378DB0704D4042233789343D3
:104C80003370F2E70025F0E7437902791B02134302
:104C9000C2785B0592075B0D920F022A1DD0032A92
:104CA0000CD00020012A08D102394A425141124A4F
:104CB0009446614499424041C0B2704702394A1E4D
:104CC00091410E4A494211408022D2009446002070
:104CD000614499424041C0B2EFE7022905D000206B
:104CE00040229A424041C0B2E7E7054A9818434241
:104CF0005841C0B2E1E7C046FF03000040FCFFFF9F
:104D000000FEFFFF8A1870B5914207D27F264C78CB
:104D1000052C04D00C7809198A42F8D870BD3400EB
:104D20008D782C4064000419ED0963550C7809193D
:104D30008A42ECD8F2E7C046F0B5C64600B582B06C
:104D4000150008AA40CA040017880BAA128801207F
:104D500090460A00217802408143200011432170CF
:104D60003A00009331000123083000F0F1F8002EE2
:104D700001D0002F08D10A9B012063604346638065
:104D800002B080BCB846F0BD26001C363000FBF7F0
:104D9000DDFF0023002D01D0330000266361A661F2
:104DA000E9E7C04601207047F8B502240B780700F8
:104DB0001C4063425C41144B64421C40134B08008E
:104DC0009C4608300D001600644400F0F7F80028F7
:104DD00007D1002E05D0344203D101242B781C4288
:104DE00001D00020F8BD38006978FFF7A1F900284C
:104DF000F7D02B781C42F4D10023002238006978C8
:104E0000FFF7BEF9EEE7C04640FEFFFFFF010000DE
:104E1000F8B50D000835060028000C0000F0CEF8AB
:104E2000002803D0012723781F4201D00020F8BDBD
:104E300030006178FFF77CF90028F7D028006288FD
:104E4000616800F03DF92378051E0BD01F42EDD1BB
:104E50000300626830006178FFF792F90028E5D01E
:104E60002800E4E71F42E1D130006178FFF774F9D0
:104E7000DCE7C046F8B5CE46474680B58A890500CE
:104E80000C000B78002A07D101261E423FD00020DB
:104E9000C0BCB946B046F8BD9B0734D5FE2380267A
:104EA0001B029946B60027000837380000F0A4F826
:104EB0008642ECD80122237890461A42E7D1280096
:104EC0006178FFF735F90028E1D0380000F094F858
:104ED000864231D84146237862881942D7D14B4661
:104EE0001840061C904200D9161CB6B20022617808
:104EF000002E00D0626833002800FFF741F9002837
:104F0000C5D03000C4E7114B40269946CBE749781D
:104F1000FFF70EF90028BAD0227863881642B6D17E
:104F200000226178002B00D062682800FFF728F982
:104F30000028ACD06088ABE7424623781A42A6D15D
:104F400028006178FFF708F9A1E7C046C0FF00001C
:104F5000F0B5C64600B5040006A80578802088464E
:104F600017001E000002824226D8E068002803D005
:104F7000012149420CF02CFC2069002803D00121BA
:104F800049420CF025FC4346236073045B0CED039F
:104F90001D430023E0686381A780E580238100280A
:104FA00001D00CF0E5FB2069002801D00CF0E0FBFB
:104FB000012080BCB846F0BD0020FAE710B5048996
:104FC00041898288A3B288B28C4207D31B1A9BB254
:104FD000101C9A4200D9181C80B210BD5100091A49
:104FE0005B189BB2F4E7C04603894089181A434214
:104FF0005841C0B27047C04610B5048941898288C3
:10500000A3B288B28C4207D31B1A9BB200209A42EB
:1050100001D9D21A90B210BD5100091A5B189BB287
:10502000F4E7C04670B5040000690E00002803D004
:10503000012149420CF0CCFB25896089A288A9B2E4
:1050400083B285422CD3CD1AADB2002D2ED0AA4208
:1050500008D2914230D3891A8BB263819A4203D825
:105060009B1A9BB29A42FBD9E28821685204520CE7
:1050700053433000C918FDF78BFB63890125591C88
:1050800089B2A2888B4213D900215200891A89B2B1
:1050900020696181002801D00CF06AFB280070BDF6
:1050A0005500ED1A4D19ADB2002DD0D1618989B2EC
:1050B00052009142ECDBE9E789188BB26381CDE7BE
:1050C000F0B546464F46D646C0B50600006989464B
:1050D0009046002803D0012149420CF079FB318928
:1050E0007289B5888BB294B2914254D31F1BBFB260
:1050F000002F4AD0BD4205D2AB4251D25B199CB2BF
:105100002F0074814346B8453DD89FB2A54203D8CD
:10511000641BA4B2A542FBD9F28831685204520C38
:10512000904662432B1B9BB2891842469F4225D969
:1051300053439BB21A0048469A46FDF729FB434663
:1051400048467D1B64195C4331685044A2B2FDF7A8
:105150001FFB7189B588CB199BB26A00994216D999
:105160009B1A9BB230697381002801D00CF000FBC0
:105170003800E0BCBA46B146A846F0BD48467A437E
:10518000FDF706FBE5E73B1CBFE773899BB26A00AE
:105190009342E7DBE4E76F003F1BDF19BFB2A7E7ED
:1051A0005B1B9CB2ACE7C046F8B50400C0680E00BB
:1051B000002803D0012149420CF00AFB25892089EF
:1051C0006189A288ADB283B28FB2884229D3DB1B3A
:1051D0009BB29A4209D8E779FF0906D1E068002816
:1051E00001D00CF0C5FA3800F8BD95421ED32B0053
:1051F0009B1A9BB29342FBD2E28820685204520C65
:1052000053433100C018FDF7C3FA6B1C9BB2A28850
:105210009D4218D9002352009B1A9BB2012723817B
:10522000DCE75100C91B5B189BB2D2E72B00E28878
:1052300020685204520C53433100C018FDF7A8FAFD
:105240000135A288ABB252009342E7DBE4E7C046E7
:10525000F0B557464546DE464E46E0B5140005001B
:105260000F0083B0002A75D0C068002803D0012148
:1052700049420CF0ADFA2E89E9796A89AB88B6B259
:1052800092B2C90945D1964200D36DE059008A1AFD
:10529000B21892B2002189469A4234D29A1A111C4D
:1052A00092B2A24200D9211C8AB29146EA885204E5
:1052B000520C90464A46B21892B292464A46D21AC8
:1052C00092B2934634009E4203D3E41AA4B29C42A5
:1052D000FBD24246624328681B1B9BB280184246A1
:1052E0004B4554D34B4639005A43FDF751FAAB882E
:1052F0005B00564501D89A4503DB5246D31A9BB250
:105300009A4653462B81E868002825D00CF030FAE5
:1053100022E0E9884904490C88469C4227D29642FB
:1053200047D3B11A89B28C465800E11A89B28B462C
:1053300061460919814208DBD11889B20E1BB6B249
:105340008A46B2423BD9361AB6B2A21992B29246F6
:10535000A146B7E700239946484603B0F0BCBB46D8
:10536000B246A946A046F0BDB21A92B292E7002119
:105370008946002BC7D04146E41A4C431600D11889
:10538000002289B28A46994693463F199AE75343C9
:105390009BB21A0039005C440193FDF7F9F94146CC
:1053A00022004A43019B286892B2F918FDF7F0F9F0
:1053B0009DE75800811A711889B28C46B5E7A1465D
:1053C000B04200DD7EE7BEE710B50400C0680028EB
:1053D00003D0012149420CF0FBF92069002803D0D9
:1053E000012149420CF0F4F90023E0686381238134
:1053F000002801D00CF0BCF92069002801D00CF085
:10540000B7F9012010BDC04670B50400C0680D009A
:10541000002803D0012149420CF0DAF92069002864
:1054200003D0012149420CF0D3F97F21E379ED014A
:105430001940E0682943E171002801D00CF098F987
:105440002069002801D00CF093F9012070BDC046FE
:1054500003BDC04610B50400FCF782FAA04710BD9A
:10546000D02202211206136D1942FCD0506540BFB4
:105470007047C046D0221206136DDB0704D4012109
:1054800020BF136D1942FBD0D0231B06986D7047C7
:1054900070B58024124B6402124A1C6013682342C8
:1054A000FCD00F20FBF768FA002105000F20FBF766
:1054B00051FA00220C4B5A70D0220C4B12061C6081
:1054C000136DDB0704D4012420BF136D1C42FBD0F5
:1054D000D02329000F201B069B6DFBF73BFA70BD04
:1054E00004200140040001409C28002004300140B9
:1054F000F0B5040087B00F200E001700FBF73CFA50
:10550000002105000F20FBF725FA0023002200925E
:10551000019301230293D0230496059400260024CE
:105520000121022003971B06002C14D01A6D104293
:10553000FCD05C6540BF1A6D114203D120BF1A6DCB
:105540001142FBD09A6DA2420AD000266C46B200EE
:10555000A458E9E79A6D1A6D1142FBD140BFE5E707
:105560000136062EF2D129000F20FBF7F3F907B020
:10557000F0BDC0460D4B0E4A70B5934210D31C00CF
:105580000C4A99180B4D0C4A92686051FF20C000DC
:1055900023500A4B0A4823500A48FFF7A9FF70BD61
:1055A00001235B421C000849ECE7C04600080420C8
:1055B00000000420F407000000ED00E05554001046
:1055C000FC07000051540010F30700001300C2B2A2
:1055D00010B5122A3DD8234B80001B589F4612233A
:1055E0000B70002010BD11230B70FAE710230B7015
:1055F000F7E70F230B70F4E70E230B70F1E70D2391
:105600000B70EEE70C230B70EBE70B230B70E8E756
:1056100009230B70E5E708230B70E2E707230B7003
:10562000DFE706230B70DCE705230B70D9E70423C3
:105630000B70D6E703230B70D3E702230B70D0E780
:105640000A230B70CDE701230B70CAE713230B70FD
:10565000C7E700220A7002000349180003F028FC83
:105660000120BFE7C8580110D8310110F0B5DE465F
:1056700045464E465746E0B516009846136883B037
:1056800004001B6801220191300005219847052282
:1056900000210500FDF776F82068201A03880A2B00
:1056A00002D94289002A0BD143461D600023994646
:1056B000484603B0F0BCBB46B246A946A046F0BD82
:1056C000A25C082AF0D10C2BEED98389E418002BB8
:1056D000EAD02368E4182368E31A1A88042A52D906
:1056E000002198888A4600280FD0215C8A46481EEF
:1056F0000021C0B284468B46042061465F46884242
:105700007F415146784201408A4651462970082A15
:1057100039D918890021002803D0215C481E814115
:10572000C9B2A9700A2A2ED958890021002803D0AD
:10573000215C481E8141C9B2E9700C2A23D99B899A
:10574000002B20D0E056019A291DFFF73FFF81462C
:10575000002812D12368E31A1A88062A15D9DB8893
:10576000002B12D0E356002B0FD0012B10D009498B
:10577000019803F09DFB012399463368290030000E
:105780005B68984794E70020DDE700236B708BE7A8
:105790006B7089E7FC31011010B54821836B984785
:1057A00010BDC046F0B557464E46DE464546CB686E
:1057B000E0B599460B69C6689A46AD4B04001A6875
:1057C00030009DB00F0000F023FF051E45D0A94B0F
:1057D000390030001A6800F01BFF049000282AD01E
:1057E000A54B39001A68300000F012FFA34B05905A
:1057F000390030001A6800F01DFF8046002800D1F3
:10580000CFE02B7F007F834230D1092B00D9D1E03C
:105810009B4ADA40D20700D4CCE0049A127F012BD5
:1058200000D1CCE0072B2ED1092A2ED0200095499B
:105830006369984707E0944B20000093934A442300
:1058400093496569A84701239A4650461DB0F0BCAC
:10585000BB46B246A946A046F0BD8E4B2000009341
:105860008A4A41238A496569A847ECE702938A4B33
:1058700003900193894B20000093844A4B2388496D
:105880006569A847DFE7122ACED10EAF3800049928
:1058900003F084FB414615A803F080FB159B15A976
:1058A0009B460E9B8C469B00DA5901230793089375
:1058B000023B5B4418009B0063445F684B461A64DC
:1058C0005B4606920997002B00DCB3E00121002320
:1058D000844616AA63455FD001CA013341435B4544
:1058E000F8D14B46D9635F6401234A465B42536358
:1058F0001363534619784B462A7F03934346049F0C
:105900000293059B2000019300972B0000F0AAFC56
:105910008246002899D12C224946885C2B7F00289A
:1059200051D0092B69D13B7F122B66D05B46022BED
:1059300000DC93E00B6C9A0700D08FE04A46D26BF4
:105940000AA80A9201220D930B920C9202F014FB0A
:105950000100002907DD4A462000236C34329847B5
:10596000002800D082E03368414630009B699847A8
:105970003368290030009B699847336830009B6981
:1059800004999847059B002B00D15EE71900336806
:1059900030009B69984758E7013304325B4599D141
:1059A0009FE7404B20000093384A492338496569F6
:1059B000A84748E720003C496369984743E7012A24
:1059C00000D033E761E7072B20D0092BCBD1049B14
:1059D0001B7F122BC7D05B46022B3FDD0B6C9B0756
:1059E0003CD14A46496C2000236CC90030329847AC
:1059F00000283BD14B461B6CA0E72C4B20000093AA
:105A0000224A742322496569A8471CE7EB68002BEA
:105A100012D14246D06800281BD00393244B029039
:105A20000193244B20000093184A7D231C4965698B
:105A3000A84708E7012154E702931D4B0390019307
:105A40001D4B20000093114A7C2315496569A84726
:105A5000F9E606A802F092FA01007AE706A802F039
:105A60008FFA00234A460100936372E78246ECE610
:105A7000205901101C590110185901101459011016
:105A800082020000DC330110D832011028320110EC
:105A9000AC320110C43201101C3301102C33011040
:105AA00000330110EC32011038330110943401102E
:105AB000D03001104435011028350110F0B54F46A3
:105AC000D6460C0080B599464B68A3B016000A93E1
:105AD0000A68236C09921093CA6B11930121636CBD
