:020000041000EA
:1000000000B5324B212058609868022188439860DF
:10001000D860186158612E4B002199600221596106
:100020000121F02299502B49196001219960352056
:1000300000F044F80222904214D00621196600F024
:1000400034F8196E01211966002018661A6600F04E
:100050002CF8196E196E196E052000F02FF8012189
:100060000842F9D1002199601B49196000215960AB
:100070001A491B48016001219960EB211966A021F2
:10008000196600F012F800219960164914480160C1
:100090000121996001BC002800D000471248134993
:1000A000086003C880F30888084703B5996A0420EC
:1000B0000142FBD001200142F8D103BD02B5186610
:1000C0001866FFF7F2FF186E186E02BD00000240BE
:1000D000000000180000070000035F00212200005C
:1000E000F4000018222000A00001001008ED00E03C
:1000F00000000000000000000000000074B24E7A12
:1001000000200420F7010010CB010010CD010010E9
:10011000C9010010C9010010C9010010C901001077
:10012000C9010010C9010010C9010010CF01001061
:10013000C9010010C9010010D1010010D301001045
:10014000C1010010C1010010C1010010C101001067
:10015000C1010010C1010010C1010010C101001057
:10016000C1010010C1010010C1010010C101001047
:10017000C1010010C1010010C1010010C101001037
:10018000C1010010C1010010C1010010C101001027
:10019000C1010010C1010010C1010010C101001017
:1001A000C1010010C1010010C1010010C101001007
:1001B000C1010010C1010010C1010010C1010010F7
:1001C000EFF30580103800BE00BE00BE00BE00BECA
:1001D00000BE00BEF2EB8871E0F70310FCF70310DD
:1001E0003802001090A31AE71E481F49086006C88D
:1001F00081F3088810471D480068002801D019487D
:10020000F3E70DA40ECC002902D000F012F8F9E7B4
:100210001749184A002000E001C19142FCD116495B
:100220008847164988471649884700BEFDE701C937
:1002300001C29A42FBD37047FCF70310C0000020B4
:10024000B0050020ECFC0310000004200000042096
:10025000ECFC03100010042000100420000000003B
:10026000704700000000000008ED00E0000000D032
:10027000B005002018140020713A0010D5020010BB
:10028000693A0010F8B5C04606480749091A8B10AC
:10029000C90FC91810B5491003D0044B002B00D06A
:1002A000984710BDB0050020B005002000000000F8
:1002B000054B10B5002B03D00449054800E000BFF2
:1002C000FFF7E2FF10BDC04600000000D012002082
:1002D0005C7B001010B503F0CBFD002810D101218C
:1002E000002003F0B5FDFA20C00001F005F8002160
:1002F000002003F0ADFDFA20C00000F0FDFFEEE7A6
:1003000001F0B8FAEBE7C04610B54024074A830075
:100310009A181268C0005440C0222240044C1B1995
:100320001A60044BC018416010BDC04604C00140B3
:1003300004D0014000400140064B8000C3181B68F8
:10034000C90092000A435A400C231340024A801805
:100350000360704704C0014004D0014080000029C0
:1003600004D0054BC018022303607047034BC0182C
:1003700002230360F9E7C04604E0014004F00140B5
:10038000D0231B061B6810B514005A4253412F227C
:100390005B4293430D4A9B18C208944607221040C3
:1003A0006246800081403C3209489200115060460C
:1003B00080001B18002C04D0802292019B18196029
:1003C00010BDC02292019B181960F9E7304101402D
:1003D00000400140F0B5D026C646360633680C4DC5
:1003E0009B009046EA5804000F0000B5104209D166
:1003F000390014430D204246EC5000F075F980BCE2
:10040000B846F0BD01F036FA33689B00EA58EFE7D2
:10041000F812002010B504000D2000F04BFAD02394
:100420001B061B6802499B005A58A2435A5010BD34
:10043000F81200200123D0228340120693629361B8
:10044000084A83009A1811684022514080320A40BD
:100450000549C0005B181A60044BC01805234360AF
:100460007047C04604C0014004D001400040014034
:100470000FB400B5084883B003F056FC049B002B72
:1004800007D005A91800019103F0D4FA034803F03E
:100490004BFC012003F0E6FA607B0010E07C0010CA
:1004A000EFF3108072B6034A1368002BFCD0BFF341
:1004B0005F8F70472C0100D0BFF35F8F0022024B8B
:1004C0001A6080F3108870472C0100D070B58C46FC
:1004D0001600EFF3108472B60F490B68002BFCD0A6
:1004E000BFF35F8F6346DB08C5180722C05C634615
:1004F0001A40012393401A000240034207D11843D7
:100500002870BFF35F8F0A6084F3108870BD614666
:100510003000FFF7ADFFC0462C0100D0F8B5CE4645
:1005200047468C4680B51C00EFF3108872B61C4914
:100530000B68002BFCD0BFF35F8FA24221D80723AA
:10054000994602E00132944218D3494601261140EF
:100550008E40D308C718C35C1E42F3D1100033434A
:100560003B70BFF35F8F00220D4B1A6088F3108839
:1005700000280EDBC0BCB946B046F8BD01204042A1
:10058000EFE7BFF35F8F00230B6088F31088012033
:1005900040426346002BEDD00898FFF769FFC04644
:1005A0002C0100D010B584460A00EFF3108472B617
:1005B0000B490B68002BFCD0BFF35F8F0723D008DB
:1005C000134001229A4063461B5C934362461354D6
:1005D000BFF35F8F00230B6084F3108810BDC0460B
:1005E0002C0100D0044A1078431CDBB2172B00D931
:1005F000102313707047C046F00400200021044B04
:10060000044ABFF35F8F02C39342FAD17047C046DA
:10061000000100D0800100D0084B094A1360094A4C
:100620001360094A1360094A1360094A1360094AB2
:100630001360094A1360094A136070478080808004
:1006400000E400E004E400E008E400E00CE400E082
:1006500010E400E014E400E018E400E01CE400E032
:100660001F2318401E3B8340002905D0C021044AA7
:100670004900535013607047802201498B50FAE7BC
:1006800000E100E001238340014A13607047C04647
:1006900000E200E070B50D00EFF3108672B60F4A6D
:1006A0001368002BFCD0BFF35F8F0D4B10309B689D
:1006B00084001B590B4A934203D09D4201D001F0A4
:1006C000D9F8074B9B681D51BFF35F8FBFF35F8F56
:1006D0000022024B1A6086F3108870BD240100D0FE
:1006E00000ED00E0C1010010F0B5DE4657464E4671
:1006F0004546E0B5824683B08B461700EFF310887D
:1007000072B6604A1368002BFCD0BFF35F8F0025E0
:100710005D4B5D579946002D00DA9AE04A466B0022
:100720005A4C5E19B6000193A31900939B7913707C
:10073000574B9A68534610339B00D15899460B1B70
:100740002F2B32D9534B994200D098E0019B0236AF
:10075000ED18514BAD006353504BA619043B9B1B46
:100760004F4A1B055B0D651913436B804D4B0121EF
:10077000AB80FF23AB715B46AB60009BEF710B431B
:1007800019004A46424B9B689950BFF35F8FBFF3F5
:100790005F8F00223B4B1A6088F3108803B0F0BCD7
:1007A000BB46B246A946A046F0BD01200A008243DE
:1007B000D379B446BB422DD83B4BB51C190013006E
:1007C0001B1B5B415943090D8C46334B6519A353E1
:1007D000324B0099043B5B1B1B05314D5B0D2B43DA
:1007E00004364B80A619131F9B1B1B055B0D1D4375
:1007F00063468B715B468B602C4B8D80CF71136091
:100800000143BEE75800C01880002018C679BE42D8
:1008100025D902000623D356002BF3DA9A46131D7E
:100820009C4623486346009E9571043EF61A3605A1
:100830001B4B760D1E43019B96805A19534692001E
:10084000A418A3715B46194AA0802260E771A360D7
:1008500097E701F00FF800254B465D575EE76646C7
:100860009A46131D9C469088043640050015A6192B
:100870006044801B00050A4E400D3043D2E700F073
:10088000F9FF63E7240100D015140020F4040020D0
:1008900000ED00E0C101001000A1FFFF24050020D1
:1008A00000E0FFFF01BDFFFFAAAA0000014880474A
:1008B00001BD0000F0B54546DE4657464E46E0B560
:1008C0000D0083B0EFF3108872B6604A1368002BF6
:1008D000FCD0BFF35F8F5E4B5E499A680300103314
:1008E0009F00D45999468C423ED0AC424FD05A4ECC
:1008F000A21B2F2A38D8594B1A689C461300012294
:10090000824013401F22024001209A4690406346D5
:10091000802283469850BFF35F8FEFF305830193E6
:10092000002B36D0994501D000F0A4FF012322000E
:100930009A439068854208D176E04B005B189B0093
:10094000F3189868854236D01A00062151560029BE
:10095000F3DA854254D05346002B27D0C0225946A3
:100960003E4B520099501960394B9B68DC51BFF3E4
:100970005F8FBFF35F8F0022344B1A6088F31088BB
:1009800003B0F0BCBB46B246A946A046F0BD0C0081
:10099000EAE7220001339A4390688542D5D10620C8
:1009A0001056130000280ADA0C0031E08023594663
:1009B0002A4AD150D8E706201856002821DB4200E9
:1009C0001118890075188946A9689960E979D97163
:1009D000062169569971002924DBAD88F11A6D054D
:1009E0002D154D44491909051D4D490D294399807F
:1009F00013181C4A9B001178F31899711070AAE71C
:100A000013000199002914D1FF3191711649918089
:100A100014490A789A71154A9B1B5B415A43120D7F
:100A20000A7098E71049E2E70620105613000028E4
:100A3000C5DA0F4A0F49D21A083A5002400D014355
:100A400099800D4952080A43DA8084E7240100D0D6
:100A500000ED00E0C1010010F404002000E100E01E
:100A600000E0FFFF1514002001BDFFFFAAAA00004F
:100A70002E05002000F0FFFF00F8FFFF084A830862
:100A80009B009B181A6810B5140003221040C00088
:100A9000FC3282409443220081400A431A6010BD18
:100AA00000E400E00123034370B59C46EFF30581A9
:100AB000EFF3108572B6214A1368002BFCD0BFF308
:100AC0005F8F1F4B04001F4AE41A64416243120DFA
:100AD0001D4C8900A66852B2765866451CD0062186
:100AE000595691421CD012215956914222D01E21B2
:100AF0005956914220D02A2159560324914210D0B0
:100B0000124B19781A708171BFF35F8F00220B4B63
:100B10001A6085F3108870BDA3680D4C5C50EFE738
:100B200000246100091989005B18FF2199710949A6
:100B30009980E5E70124F4E70224F2E7240100D0DC
:100B4000F4040020AAAA000000ED00E01514002023
:100B5000C101001001BDFFFF1F2110B5091A024895
:100B6000FFF720FD10BDC0461614002000B5074B4E
:100B700083B001000093002205230548FFF7CEFC57
:100B8000002801DB1F23181A03B000BD707B001082
:100B90001614002070B504000E001500FFF722FDAA
:100BA0000100200000F006F8A680E580BFF35F8F0B
:100BB00070BDC046024BC918890001607047C0462D
:100BC0004000003470B5114C114DAC420FD2FF26DD
:100BD0002368002B0CD0FFF705FD01002000FFF774
:100BE000E9FFA680BFF35F8F0834AC42F0D370BD3D
:100BF000FFF7F8FC01002000FFF7DCFF2671BFF3D0
:100C00005F8F0834AC42E3D3F1E7C046A80500206B
:100C1000B005002010B50400FFF7E4FC010020003F
:100C2000FFF7C8FFFF23A380BFF35F8F10BDC0464F
:100C30000A4B1968EFF3108072B60A68002AFCD0DC
:100C4000BFF35F8F1B68BFF35F8F00221A6080F3D2
:100C5000108840BF002000217047C0460C140020BF
:100C6000F0B5DE4657464E464546E0B585B0EFF353
:100C7000058303221A40B34B91005F580123934030
:100C80009B4602925A468846AF4B1A60AF4B03937D
:100C90005B46AF4843630823FE5E002E37DABB880D
:100CA0001BB2002B00DBA4E0BB79002B00D0E5E0F9
:100CB0000823F95E002920DB4B007A695B18DB0012
:100CC000D3189D68DC686B1C00D104E1A0480100CA
:100CD0004144826A0B69AE1A9B1A9E4215D30123C6
:100CE000026A029883401A420FD0994800F00CFC27
:100CF0008C4202DCCCD18542CAD940BF05B0F0BCE1
:100D0000BB46B246A946A046F0BD0D61EDE77A6943
:100D1000730091469B19DB0099444B469C68DD6843
:100D200000F0F2FB8D42BADC00D1F6E0002D00DAD3
:100D3000DBE04A464B4652691B699246039A93424E
:100D400000D1CCE04A460821785E52880004514622
:100D500010439847009001910099019A0B001343AA
:100D600000D1C2E013000A00002B00DBD9E0200014
:100D70002900801A99414B469860D96000229B5EF9
:100D8000002B00DA8BE75D007C69EA18D200A2181C
:100D900000949468D268A2468A4200DD7FE702D1BF
:100DA000844200D97BE70824A4463B81BC44009CD4
:100DB00000972F006546B4463E0006E05E00F2183C
:100DC000D200A2189768D268BA468A4207DC00D1DE
:100DD000B4E0F318DB00E518E35E002BEEDA6646BC
:100DE0004A46009F13802E80BB881BB2002B00DA7E
:100DF0005AE73A69EFF3108172B61368002BFCD002
:100E0000BFF35F8F0123BE885B42BB8036B23B6974
:100E1000BFF35F8F00221A6081F31088002E00DA82
:100E200042E73B0008333A0099467D6973009B19FD
:100E30000824115FDB004846EB18002913DB9C688F
:100E40000093A446DC6806E0A34240D00023F95E8C
:100E50003800002906DB4F007F18FF00EF19FB6800
:100E6000A342F1DD009B068000201E5E1980002E4B
:100E7000DCDA1700BB79002B00D119E70023BB7126
:100E80000823F95E4B1C00D137E73D000835AC461E
:100E90007C6903E084464B1C00D109E74B005B18DA
:100EA000DB00E0180A00E15E43881BB2002BF1DA98
:100EB00001256D42EE178560C66008257B5F934271
:100EC000E9D0634619803B8903803A81E3E7BB6838
:100ED0006345BBD9C6E7631C00D0F7E605E7534678
:100EE00050461B699847002823D14B461B883A6916
:100EF0003B81EFF3108372B611680029FCD0BFF379
:100F00005F8F49467A880A803A697E80BFF35F8F97
:100F10000021116083F31088C1E6844200D805E700
:100F2000BDE60B4800F0F0FA009B019CC01861413F
:100F300021E753460CCB009201930DE7824500D880
:100F400047E74CE7E81200203C700540610C0010B8
:100F50000040054070B52D4C2569002D04D00A21B4
:100F60002B48FFF727FE70BD2A4E0321294800F0C9
:100F7000C1FAE660FFF736FB274B0322C018D023E7
:100F800022701B061B6801216370244B8000A36044
:100F90000F2320610220638063694942A180198088
:100FA0000231198647311D83585218315A52753211
:100FB0005C399952183201319952183201319952E3
:100FC000183201319952083518329D5202311832C7
:100FD000995218320131995218320131995218320E
:100FE0000131995218320131995218320131995216
:100FF0000B4B0C49DC6001303562FFF74BFB0121E4
:101000000320FFF72DFB084B1D60A8E73C050020DF
:101010000C1400200040054040000034FFFF100089
:10102000E8120020610C001038600540004870474D
:101030003C050020F8B51F0008AB1B780400160023
:10104000002B07D100F068FA32003B00121A8B41E6
:10105000002B51DB2269EFF3108C72B61368002B62
:10106000FCD0BFF35F8F0223E15E256900293ADBE4
:101070004B0060695B18DB00C218C35A6380BFF382
:101080005F8F00232B608CF31088069B9660D760DF
:101090001361079B5361538801335B045B0C181C7D
:1010A000002B1ED083B25080080418432569EFF34B
:1010B000108672B62B68002BFCD0BFF35F8FA3881D
:1010C0001380A1802369BFF35F8F00221A6086F32B
:1010D0001088237801329A400849E3685B181A6047
:1010E000F8BD0120DEE7BFF35F8F00232B608CF398
:1010F000108801204042F3E70020F1E73C20000087
:1011000070B582B00092019301000269EFF3108480
:1011100072B61368002BFCD0BFF35F8F0223C85E4A
:101120000D6900283FDB4A69430016001B18DB00ED
:10113000D218F35A4B80BFF35F8F00232B6084F3E8
:101140001088069B1361079B5361009B019C936071
:10115000D460538801335B045B0C1D1C002B20D032
:10116000ACB20304558023430D69EFF3108C72B6C3
:101170002C68002CFCD0BFF35F8F8C881480888093
:101180000A69BFF35F8F002010608CF310880A7823
:1011900001309040CA68084952181060180002B027
:1011A00070BD0125DCE7BFF35F8F00232B6084F364
:1011B0001088013BF2E7C0463C20000010B543898F
:1011C0000A1493421ADD53009B184269DB00D318BE
:1011D0000469EFF3108C72B62268002AFCD0BFF3CA
:1011E0005F8F5A88090494B2090C8A4208D00369B7
:1011F000BFF35F8F00221A608CF31088002010BDAF
:10120000094A22435A80012302698371BFF35F8F29
:10121000002111608CF31088027804499340C26861
:10122000012052181360EAE70080FFFF3C20000015
:10123000F0B506000F0006246442E517A4197D41AD
:1012400083B08D4212D80FD000F066F922002B0037
:10125000121A8B41002B13DC002B41D030003900D7
:1012600000F064F903B0F0BD8442EDD900240025FC
:1012700000F052F922002B00121A8B41002BEBDDFB
:1012800000F04AF922002B00121A8B41002B0ADBD6
:1012900000230193144B2200009314482B00FFF706
:1012A0002FFF0130DAD02900114A1248536A9942BF
:1012B00004D8956AA542D1D29942CFD10568EFF3FF
:1012C000108C72B62B68002BFCD0BFF35F8F0368C5
:1012D000BFF35F8F00251D608CF3108820BFE5E70A
:1012E000002ABBD0CCE7C046310C00103C050020E2
:1012F000004005400C140020F0B5C64600B582B091
:10130000040000F009F9FA2206000F002000002373
:101310000021920000F082FF8019794104000D1E27
:1013200002DA01242E4D644206267642F71736195A
:101330006F41AF4214D811D000F0EEF832003B00FC
:10134000121A8B41002B15DC002B46D020002900FF
:1013500000F0ECF802B080BCB846F0BDA642EBD974
:101360000026002700F0D8F832003B00121A8B410B
:10137000002BE9DD00F0D0F832003B00121A8B415F
:10138000002B0ADB00230193164B32000093164812
:101390003B00FFF7B5FE0130D8D000233900B0463E
:1013A0009C46124A1248536A994204D8966A4645A6
:1013B000CCD29942CAD10668EFF3108772B633686F
:1013C000002BFCD0BFF35F8F0368BFF35F8F6646CF
:1013D0001E6087F3108820BFE5E7002AB6D0C9E772
:1013E000FFFFFF7F310C00103C050020004005404E
:1013F0000C140020F0B5CE46474680B504000D0021
:1014000085B0EFF305868946002E10D036490020BE
:101410004B6AAB4206D38A6A5B1B591E8B41A242C0
:101420004041184305B0C0BCB946B046F0BD2F4F8F
:10143000FB683A7898461800039200F065F8039A22
:10144000131D42469B009B5822001B1A9C462B00F2
:10145000121A8B419E4210DC0DD020BF224A002080
:10146000536A4B45DED3926A5B1B591E8B41A242E5
:1014700040411843D6E79445EFD900F04DF82200DB
:101480002B00121A8B41002B1BDB00230193184BFE
:101490002200009338002B00FFF732FE002810DDF9
:1014A000114B5A6A4A451CD39B6AA34217D30100C9
:1014B0003800FFF783FE0C4A0020536A4B45B1D336
:1014C000D1E7094A0020536A4B45ABD30020926A0A
:1014D0005B1BA24240415A1E93411843A2E74A4572
:1014E000E5D120BFE3E7C046004005403C050020B1
:1014F000310C001010B5024A0248FEF7E7FF10BD9C
:101500008C7B0010AC0900200300416A0A00986A35
:10151000596A8A42FAD17047034B596A0A00986A9D
:10152000596A9142FAD1704700400540064A536A11
:101530009942FCD807D1044B02E05A6A914202D189
:101540009A6A9042F9D8704700400540F8B5DE46E7
:101550004E4645465746E0B505008B4618000A99A9
:10156000914600F0E1FA0A9B6C001E026419304BB0
:10157000A400E418636880469E4200D966602F1F6D
:10158000FBB29A46012B2FD9C0238022294FAD00F0
:101590009B0179591201E3181A6000291BD14B46AF
:1015A00022685B015340E022134080225201A218BE
:1015B00013605346012B2FD9802380229B01E3180F
:1015C00012011A60434666607B51F0BCBB46B246CE
:1015D000A946A046F8BD786900F0A6FA013043009C
:1015E0001B18033BFDD2DAE75B46012BCCD1C023AD
:1015F00003229B01E3181A60023AA3681A42FCD046
:101600004A46236852015A40E02313408022520187
:10161000A218084F1360AD005846032321684140CB
:101620000B40136001228240A3681A42FCD0C3E73A
:1016300000800040B4090020F0B5D6464F4646462B
:10164000440098462418324BA400E41863688A4684
:101650009146C0B5FF2B02D880235B006360061F54
:10166000F6B2012E2FD9C02380222A4F85009B017C
:1016700079591201E3181A6000291BD14B462268E0
:101680005B015340E022134080225201A2181360F4
:10169000012E30D9802380229B01E31812011A60A9
:1016A00080235B00636043467B51E0BCBA46B14691
:1016B000A846F0BD786900F037FA013043001B18E6
:1016C000033BFDD2DAE75346012BCCD1C0230322E2
:1016D0009B01E3181A60023AA3681A42FCD04A46FA
:1016E000236852015A40E023134080225201A2187D
:1016F000084F1360850050460323216841400B408A
:10170000136001228240A3681A42FCD0C2E7C0469F
:1017100000800040B4090020014B8000C058704791
:10172000B4090020F0B5C646040000B523481600F1
:1017300098460D0000F0F8F90100300000F0F4F9CF
:101740004346069A1B04120313439C462368060073
:10175000002B22DB1A4B1B48E218531E9A418023B0
:101760005242120B9B011203D218174B1A60174BEF
:101770001A60130001688B43FBD12122144B2560B2
:10178000E318A6601A602268002AFCDA6246E2606A
:1017900008221A6080BCB846F0BD3F23226813407F
:1017A000AB42D7D1A3681B051B0D8342D2D1EE22D9
:1017B000E368D20213406345CCD1EBE7001BB700CE
:1017C0000040FDBF08C0004000E0004000F00040C5
:1017D000043000008023024A9B000B43D362704711
:1017E00000800540002310B50100988A1B8B9847A4
:1017F00010BDC046162310B5010018885B889847B5
:1018000010BDC046F8B54746CE4680B50F1E18D06D
:1018100014239946043304000025012698464B46BC
:101820001888434621681B88984701C4431E984185
:1018300001350640AF42F2D13000C0BCB946B046D7
:10184000F8BD0126F8E7C046AA23064A1B0113602B
:101850008D235B00D3600449044B19605368002B4F
:10186000FCDA70470040024000B0FA00006002401D
:101870007047C04610B50148FEF7FAFDB07B001076
:1018800070B5074D074EB54209D20024013E761BC4
:10189000B608013608CD01349847B442FAD170BD7C
:1018A000187B0010547B0010054B064A06491A604D
:1018B000064A074B1A6010000B689843FBD170472B
:1018C00000E00040BFCDFBFE08C00040FE7F3C00B2
:1018D00000F00040044BDB6C002B03D18022034B53
:1018E000D2021A607047C046000011504C201150BF
:1018F000044A054B1A60054A1368DB018033FBD1AB
:101900007047C046FFFFFF0100F0004008C00040E4
:101910004022034B9A675A671A67DA667047C046D7
:1019200000F0014010B5FEF769FE10BD70B5284902
:10193000284D294E6D1AAC102200302C00D93022CF
:101940003000920000F0C8FCBC2D3DD823002A3B9B
:10195000224A052B1DD9302075196D07A446001B9E
:10196000EB0F002D03DA611C8C46A1007250C01AE7
:10197000E3189B004108F318C900C9181A605A609F
:1019800008339942FAD1012303421DD098436044A1
:101990000400A300F250631C2F2C15D09B00F250C2
:1019A000A31C2E2C10D09B00F250E31C2D2C0BD02E
:1019B0009B00F250231D2C2C06D09B00F250631D7F
:1019C0002B2C01D09B00F250054B9E6070BDC04691
:1019D00000010010C001001000000020C101001033
:1019E00000ED00E0002310B5294C82B0A367FFF79B
:1019F0002BFF0122274B1A60636C012BFCD10322C1
:101A0000254B1A60224A936B012BFCD101330093C2
:101A10000121224A22480433FFF784FE05230121D5
:101A20000093204A2048FFF77DFE00220221042077
:101A30001E4BFFF701FE0022012105201C4BFFF782
:101A4000FBFD0022002107201A4BFFF7F5FD0022C5
:101A500000210820174BFFF7EFFD8023DB000093E8
:101A6000002200210920134BFFF770FD0022104BCC
:101A700000210620FFF7E0FD0420FFF74DFE0E4990
:101A800000F052F801000020FFF7A4FE02B010BDE4
:101A9000008000403CB0004030B00040002F68594A
:101AA00000800240008C864700C00240001BB70047
:101AB00040597307006CDC0240420F0001480421CA
:101AC000014B18476005002005180010014B9B686A
:101AD0001847000060050020124A936F9B0815D23A
:101AE0009066D166002905D0FFE7FFE7FFE7516F59
:101AF000106F704704B580210906C21751400028B5
:101B000000D0C84305F0E0FF002104BDF0B5146E1D
:101B1000556E576F166FFFF7E3FF146655665767EC
:101B20001667F0BD000000D0114A936F9B0813D2D6
:101B300010665166002905D0FFE7FFE7FFE7516F08
:101B4000106F704704B5002801D00020C04305F095
:101B5000BBFF002104BDC046F0B5146E556E576F33
:101B6000166FFFF7E5FF1466556657671667F0BDF9
:101B7000000000D094464A4A926F9208624601D211
:101B800028E0C046F0B5464E346E756E776F366FFE
:101B900000F020F89446424A146655665767166767
:101BA0006246F0BD94463E4A926F9208624601D268
:101BB00054E0C046F0B53A4E346E756E776F366FAE
:101BC00000F04CF89446364A146655665767166717
:101BD0006246F0BD002B24DB11D000293EDA00B5AF
:101BE000C943404200D1013100F038F8C9434042B6
:101BF00000D10131DB43524200D1013300BD002A44
:101C0000EBD1002801D1002905D00020C90FC90758
:101C100001D1C043410800B505F046FF0022002372
:101C200000BD00B500290ADBDB43524200D101337D
:101C300000F014F8C943404200D1013100BDC9434E
:101C4000404200D10131DB43524200D1013300F068
:101C500005F8DB43524200D1013300BD002923D1F6
:101C6000002B18D1002A0CD0BC460D4F38667A667E
:101C700000210023FFE7FFE7FFE77A6F386F674631
:101C80007047002801D00748010000B505F00CFF9F
:101C90000022002300BD02000B000020002170473D
:101CA000000000D0FFFFFFFF002B00D0BFE0130CAF
:101CB00028D1002AE7D080B4114F39667A66FFE751
:101CC000FFE730B4040C7B6F396F1B0423433B6682
:101CD0007A66FFE7FFE7FFE7C04684B27B6F3D6FA0
:101CE0001B0423433B667A66FFE7FFE7C0460023F9
:101CF0002C042D0C7A6F386F00196941B0BC704705
:101D0000000000D0F0B594460025140E01D1120257
:101D10000835140F01D112010435940F01D192003E
:101D20000235D40F01D152000135D40B0134254FB7
:101D30007C66254C3C660E0C93B2FFE7FFE7FFE79D
:101D40003C6F6643360C7703BE467343DF0B5B0480
:101D5000C01AB941130C7343DB18C91ACE08664385
:101D6000360CB64493B273431F0F1B01C01AB9411E
:101D7000130C73431F0B1B05C01AB941860D8F024C
:101D80003E436643360C092D24DB520A7243801A07
:101D90007703460A6643360C16235B1BDE40DF40A2
:101DA000BF1964466643821B704604350633010042
:101DB000D940A840C01900D30131A24206D2002365
:101DC000F0BD0000000000D0FFFFFFFF121B01303C
:101DD000F3D3F1E709277F1BFE406446A2B27243AA
:101DE000801A00D20139220C7243130C1204821A99
:101DF00099410B007046043513370100F940A840A3
:101E0000801900D30131002B02D1A2420AD2F0BDC9
:101E1000013000D30131121BFAD2013BF8D1A242AA
:101E200000D2F0BD013000D30131121BF7E7F0B54D
:101E30001C0C00D080E00CB400251C0A04D11B024D
:101E4000160E3343120208351C0B04D11B01160F6A
:101E50003343120104359C0B04D19B00960F33438E
:101E600092000235DC0B02D192185B4101351C0057
:101E7000971864410134464F7C66464C3C660E0C14
:101E8000FFE7FFE7FFE7C0463C6F6643360C77038A
:101E9000BE4697B27743C01B00D20139C01B00D2A7
:101EA00001399FB27743C91BC91B170C77437E04C6
:101EB000FF0B801BB941CE086643360C0C2D33DB7B
:101EC000B644120B1F053A431B0B97B27743C01B56
:101ED00000D201399FB27743C91B170C77433E04E8
:101EE0003F0C801BB941860D8F023E436643292774
:101EF0007F1BFE400C3D7746AF40BF1930BCA2B2FD
:101F0000ABB272437343801A9941220C7243130C93
:101F10001204801A994102000B000137001BA941ED
:101F2000F9D2781E0021F0BD0C277F1BFE407746BA
:101F30007F0BAF40FF19E0E700245D1C07D0144F72
:101F40007D663966FFE7FFE7FFE7FFE73C6F95B285
:101F50009EB265436643401BB141150C1E0C6543A0
:101F6000664336042F0C3E432D04401BB141994279
:101F700004D202000B0020000021F0BD01D19042EC
:101F8000F7D3801A994101349942F2D3F6E7000061
:101F9000000000D0FFFFFFFF48404140484018B418
:101FA000134B5B68019308BD18B4114B1B68019378
:101FB00008BD94460F4A926F920805D2624618B443
:101FC0000B4BDB68019308BD0A4AF0B5146E556EE1
:101FD000576F166F6246FFF7F2FF064A14665566A2
:101FE00057671667F0BD18B4014B9B68019308BD95
:101FF00078070020000000D0FFB55040424050401C
:1020000059404B40594000E0FFB5154F4C00640D5E
:1020100003D0BC4204D10C0314D80020090D0905DB
:102020005C00640D03D0BC4204D11C030AD800221A
:102030001B0D1B0501264B4009D44B4003D58B4299
:1020400000D18242FFBD9942FCD19042FFBD0B43BB
:10205000DB1803431343F5D0C9434918FFBD000003
:10206000FF07000000B5FFF7CFFF804100BDC0466D
:1020700000B5FFF7C9FF01D9002000BD012000BD58
:1020800000B5FFF7B9FF01D9002000BD012000BD58
:1020900000B5FFF7B1FF804100BD012040054A00B7
:1020A000121804D85A00121801D8002070470120D5
:1020B000704700000021002805D17047C117484033
:1020C000401AFAD0C90713B5064B1B6898470CBCD9
:1020D000441CA2401005120B0349091B09051943B2
:1020E000114310BD081300201F04000010B54C0060
:1020F000620D8023D218DB00D21A5B057E2A10DD28
:102100009E3A13DACC170903490819435242D140C9
:10211000640001341532202A05DAD04008436043B8
:1021200010BD002010BD0846604310BDC80FC01888
:10213000013810BD18B4024B5B6A019308BD000062
:102140007807002010B50148FEF792F9BC7B00101B
:10215000132370B51D78012D19D014DD1D48FFF72C
:1021600049FB06001C48FFF745FB1C4C8022310050
:10217000200000F0B1F8022D06D01948FFF732FB1D
:10218000184B186070BD154C174BA364F5E7174B3F
:10219000124C23606360A360E36023616361A36109
:1021A000E36123626362A362E36223636363A36305
:1021B000E36323646364A364E36423656365A365E5
:1021C000E36523666366A366E36623676367A367C5
:1021D000E367D9E753440000534600007807002026
:1021E0004C33000008130020F1210010452100109D
:1021F00007B5604601880A0A0230DF2AFAD1C9B25F
:10220000820804D3028840880004104300E000687C
:10221000014A5050039007BD7807002051434343C3
:10222000C9188C46110C83B24B4310B4040C6143A3
:1022300092B280B2504362431C041B0C001910BCC4
:1022400059411304120CC0185141614470470000F9
:1022500010B50148FEF70CF9BC7C0010132310B533
:102260001C781148FFF7C6FA012C0BD004DD0100E1
:1022700080220E4800F030F80D48FFF7B3FA0D4BFE
:10228000186010BD094C01005422200000F024F811
:1022900022002000084980320368002B00D1016031
:1022A00004309042F8D1E7E7534600000C130020B9
:1022B0004C33000008130020512200100148042173
:1022C000014B18477005002005180010014B1B68D2
:1022D0001847000070050020014B5B68184700009C
:1022E000700500207047C046F8B5DE4657464E469A
:1022F0004546E0B599460D9B0700884693469B07E7
:1023000028D00B9B002B3CD016000B9C0A9D361945
:10231000321B013C4B464146285DB847002CF7D1A3
:1023200035000D9B9B070ED55B46EC1A0C9BA34218
:1023300009D91E002A004B46414620200134B847E7
:102340000135B442F6D32800F0BCBB46B246A946DC
:10235000A046F8BD0B9B0C9A934214D213005D4625
:102360000C000B9A9E1A76192A004B460135210063
:102370002020B847B542F7D10B9BA046002BC4D113
:10238000E1E71500CDE75E46002BBED15D46DAE7FA
:10239000F0B54F46D6464646C0B584B09C460EAB17
:1023A0001F78129B9146BA460D9C109E119D9B076B
:1023B0004CD4002D41D1B44248D20123129F1F407A
:1023C000B8460C9B5F1E302303E001343B55A64208
:1023D00001D9202CF9D14346002B00D187E00C9B7A
:1023E0005F1E3023A54204D830E001343B55AC4297
:1023F0002CD0202CF9D1129BDB060DD5129B5B054E
:1024000057D4A64267D0A54265D00F9B102B53D05E
:10241000022B5BD0202C36D12023129C01930C9BE5
:102420004A460093039463460295FFF75DFF04B0AC
:10243000E0BCBA46B146A846F0BD0123129A13404B
:102440009846012313422DD1B442BAD3129BDB0626
:102450001ED5129B5B05D8D4002CD2D10F9B102B1C
:1024600060D00F9B022B71D0302301240C9A137083
:102470005346002B11D1129B5B0740D52B260C9A9B
:10248000631C1655C9E72300013430260C9AD65434
:10249000202CC1D05346002BEDD02D260C9A631C66
:1024A0001655BAE7002F34D0013DB44200D288E778
:1024B00095E70F9B102BAFD1129B9B063CD5202C90
:1024C000AAD058230C9A13550134A3E7202CA3D08B
:1024D0002300013407E0631E012CBFD00F9A102A9D
:1024E00036D0022AD1D162260C9AD65492E7129B9A
:1024F000DB06CDD5129B5B0500D482E785E7129AF7
:102500002300160700D488E720260C9A01331655BD
:1025100083E70C2313405F1EBB41ED1AB44200D287
:102520004FE75CE7129B9B060ED478230C9A02249B
:102530001370302353709BE7202C00D16CE7782375
:102540000C9A1355013465E75823EFE76033EDE744
:102550000C9AA61EB618129A920602D5582232700C
:1025600093E77822327090E710B5002800D110BDB3
:1025700001F090FBFBE7C04610B5002803D04A6885
:102580000B681100984710BDF0B54E46DE46574621
:102590004546E0B595B083468946924698461E9AD0
:1025A0001F9B10001900209EFFF777FD002800D028
:1025B000D2E11E981F990122C44B5242FFF752FDEF
:1025C000002800D001E11E981F990122C04B524201
:1025D000FFF75EFD002800D0D6E01E981F9900226C
:1025E000BC4BFFF755FD002800D0B5E01E981F99A1
:1025F0000022B94BFFF736FD002800D0ACE01E9852
:102600001F9900220023FFF72DFD002800D0D1E004
:1026100000230B93229B5B0500D406260024302365
:1026200006E006AA013417321355013E202C01D0D2
:10263000092EF6D81E981F99FFF758FDA74BF200F8
:102640009B180CCB050008920993FFF737FD020099
:102650000B001E981F99FFF7A2FC089A099BFFF731
:10266000C2FC06900791FFF765FD0700FFF722FD0A
:1026700002000B0006980799FFF791FC0022984B87
:1026800006900791FFF704FD002800D1E9E001372B
:102690003800FFF70FFD02000B0008980999FFF7BB
:1026A000E7FC002801D000270135002E00D1B7E05B
:1026B000069513E0172306AA9B180A213800013457
:1026C0001D19FFF731FA3031297038000A21013E17
:1026D000FFF72AFA092F00D8E1E00700202CE9D102
:1026E000069D20240CAB0693172706ABFF180DE0C0
:1026F00028000A21FFF7F0F901343031280039555C
:102700000A21FFF7E9F9051E00D1B7E0202CEFD12F
:102710000323229A1340012B17D1219B002B14D0A5
:102720000B9B002B00D1E3E0219B013B2193202B4D
:102730000BD93023219A06E006A9013417310B5535
:10274000944200D3A0E0202CF6D1229B0194039365
:10275000219B0293069B21E0229B52460493219BDE
:102760004946039358461E9B1F9C02960093019472
:10277000434600F043F90400200015B0F0BCBB460E
:10278000B246A946A046F0BD229B5B070FD40322A8
:10279000544B229901920391219902910093524640
:1027A000434649465846FFF79FFD0400E4E70422EC
:1027B0004D4BEEE71E9A1F9B00200021FFF7EFFB19
:1027C00001231E901F910B9324E70223229A544663
:1027D0001A40229B06929B0700D1ACE02600434D95
:1027E00008942F1F3200E87843464946013DD847F8
:1027F0000136BD42F6D1089C069B0434002BBBD0A9
:102800005746219AE31B9A42B6D915002200434647
:10281000494620200134D847E31BAB42F6D3ABE74F
:102820002800FFF74BFC02000B001E981F99FFF7D2
:10283000B6FB2B4B002206000F00FFF713FC0CAB7E
:102840000693002800D04FE7002230003900244BC7
:10285000FFF71EFC002800D046E7012301359D4309
:1028600042E70022069807991D4BFFF7FBFB002863
:1028700000D01AE7002F59D1013716E70323229A17
:102880001340012B00D1A6E0202C00D15DE70B9B6B
:10289000002B3AD02D23069A1355013455E7069D97
:1028A000202C00D11DE73023361906E006AA01349A
:1028B00017321355202C00D113E7A642F6D12E2350
:1028C0000CAA0134069293550EE7C046FFFFEFFFB6
:1028D000FFFFEF7F65CDCD4165CDCDC1E08100101B
:1028E0000000E03F187C0010107C0010207C0010DD
:1028F0000C23229A134257D0219B013B2193A342E0
:1029000000D916E7202C00D11FE7229B5B0704D5D6
:102910002B23069A1355013417E7229B1B0700D47B
:1029200013E72023069A135501340EE7FB0700D462
:10293000BBE60137B9E6219B042B00D84EE755468C
:102940004F46043CE4182A00434601353900202054
:10295000D847AC42F7D141E70227229B55461F409A
:102960009B0726D006975F46234EEC1C2A00B078C2
:10297000434649460135B847013EAC42F6D1069F71
:10298000002F00D1F8E65746219AE31B9A4200D85F
:10299000F2E6150022004346494620200134D8477C
:1029A000E31BAB42F6D3E7E6219BA34200D9C0E686
:1029B000CBE6219B032BD5D9069754464F46033DC2
:1029C000ED1822004346013439002020D847A542A3
:1029D000F7D1069FC6E7219B002B00D154E70B9B44
:1029E000002B85D0219B013B21939C4200D2A0E685
:1029F000202C00D04EE7A8E61C7C0010F0B5454620
:102A0000DE4657464E46E0B59BB0249C259D824647
:102A100088469346994622002B0020002900FFF7A4
:102A20003CFB002800D0C1E00122200029007C4BA3
:102A30005242FFF72DFB002800D0B7E00122200012
:102A40002900784B5242FFF70DFB002800D0ADE083
:102A50000022002320002900FFF704FB002800D0FB
:102A6000BBE108940995089809998023289ADB000E
:102A70001A400F928022289E1201164032000E96B4
:102A8000289E0F000A901E4200D0A4E00B000343D2
:102A900000D0CBE0002A00D012E2320006332693A9
:102AA000022313400C930223134200D00AE2279B17
:102AB000042B00D215E200270426043B0E930022CB
:102AC000002320002900FFF7CDFA002800D0C8E13C
:102AD000554B289A134004930E9B0393269B029315
:102AE000089B099C0093019441464B465A46504628
:102AF000FFF74AFD02002020289B00250340594291
:102B00004B415B421840531C089341464B464530AD
:102B1000D047FB17FC185C40FB0F1F270A93731E5E
:102B20000E930AABFF1806E020000A21FEF7FCFF17
:102B30000400202D08D00A212000FEF7F5FF013502
:102B400030317955092CEFD8052306930E9B564654
:102B50000593002304930A3303930A9B414602938F
:102B600012AB009330004B46089A0195FFF710FC1A
:102B70000C9B002B28D05F46279BC41BA34223D964
:102B800082461D003A194B46414620200134B04789
:102B9000A542F7D850465946279C421A01320023D5
:102BA000944200D395E1013018180DE0289B009461
:102BB00001950493279B0393269B02934B465A4609
:102BC00041465046FFF7E0FC1BB0F0BCBB46B246A6
:102BD000A946A046F0BD01432AD10E9B3200002B2E
:102BE00000D15DE70027269B0026BB4200DD82E185
:102BF0000022002320002900FFF734FA002800D02B
:102C00004BE1289B084A02961A408023DB001343BD
:102C10000493279B0393089B099C00930194CDE7A1
:102C2000FFFFEF7FFFFFEFFFFFF7FFFF0623269376
:102C3000B24B7800400DC018FFF740FAB04AB14BD4
:102C4000FFF7D1F9B04AB14BFFF7AEF93F03B04BF4
:102C50003F0B3B430C900D9100220A981900AD4B9D
:102C6000FFF79DF9AC4AAD4BFFF7BDF902000B0031
:102C70000C980D99FFF798F9FFF738FA0700FFF75E
:102C80001DFAA74AA74B0A900B91FFF7ACF9002257
:102C9000A54BFFF789F9FFF729FAA44A06000A981D
:102CA0000B99A34BFFF79FF90A900B913000FFF7A8
:102CB00005FAA04AA04BFFF796F902000B000A980C
:102CC0000B99FFF76CF902000B000A900B91FFF7CC
:102CD0008AF90C900D910A980B9902000B00FFF7EE
:102CE00063F90022109011910C980D99934BFFF706
:102CF00060F90022924BFFF757F902000B000C9885
:102D00000D99FFF756F900228E4BFFF74DF902009F
:102D10000B000C980D99FFF74CF90A9A0B9B0C903D
:102D20000D9180210020C905FFF739F902000B0041
:102D30000C980D99FFF738F902000B0010981199C3
:102D4000FFF737F90022724BFFF72EF97E4B002276
:102D5000F6183305FFF747F902000B000A900B91B4
:102D600008980999FFF77EF9002808D00A980B996E
:102D70000022734BFFF71DF90A900B91013F0A994E
:102D80000B9A0B0011003A006332C62A12D80222B5
:102D90002898042610400E9A0C90002A26D1279BD2
:102DA000042B05D9002800D0A1E0279B043B0E93FB
:102DB000042642E00222289810400E9A0C90002A25
:102DC00013D1279B052B00D889E0002800D084E090
:102DD000279B0526053B0E9332E080231B069C466D
:102DE000AC446346089409933DE605260B4300D1A5
:102DF000F9E608980999554A554BFFF741F900281B
:102E000008D0089809990022524BFFF72BF90028A7
:102E100000D0E8E6269B002B34D00F9B002B31D04E
:102E2000269B013B2693279BB34204D90C9B002B86
:102E300059D002230C9300230E93002F00D13EE6BD
:102E40000A9A0B9B08980999FFF7B3F8002208909B
:102E50000991002320002900FFF704F9002800D180
:102E600036E6089C099D289A80203B4B00061340BB
:102E7000220004930E9B0393269B02932B1800922F
:102E8000019331E6279BB342D5D90C9B002B2AD066
:102E900000230E9302330C93CFE7289B2E4A802009
:102EA000089C099D1A408023DB00134322000493F1
:102EB000279B000603932B180092019302967DE650
:102EC000052695E600230E930233002704260C9373
:102ED000F5E54B1E1B191B1A65E602230C9305260C
:102EE000AEE70423E7E5279B9B1B0E93A5E7022390
:102EF00004260C93A1E7DB1B5E1E79E601FCFFFFB5
:102F0000FB799F501344D33FB3C8608B288AC63FD8
:102F10000000F03F0000F83F61436F63A787D23F96
:102F200071A379094F930A400000E03F1655B5BBE5
:102F3000B16B0240EF39FAFE422EE63F00002C4012
:102F40000000244000001840FF0300002D431CEB4C
:102F5000E2361A3F80842E41FFF7FFFFF0B5574657
:102F6000DE464E464546E0B5A3B01F002C9B924678
:102F70000C93C94AC94B8B460B901A60002900D1AB
:102F8000BFE1002338789946002800D1C1E1C44B45
:102F90004C460993C34B0E935B460A9308E022000C
:102FA00053460A990B9DA84701343878002876D0FB
:102FB00001372528F3D110239B46083B9946043B53
:102FC0009846033B002602259C463878791C03006E
:102FD000203BDBB2102B03D8099A9B00D3589F46A5
:102FE0000300303B092B36D900252A2800D1A7E061
:102FF00000230D932E283FD00300683BDBB2122B39
:103000001BD80E9A9B00D3589F4663460F001E4361
:10301000DBE70F002E43D8E743460F001E43D4E7FB
:103020005B460F001E43D0E74B460F001E43CCE724
:10303000802378785B001E4301310F00672845D854
:103040002428ACD90300253BDBB2422BA7D89649F4
:103050009B00CB589F460025AB005D196D002D18D5
:1030600008780F000300303B303D0131092BF3D9C4
:1030700000230D932E28BFD130228020524290464B
:10308000C000064378780B0080444246092A00D8E5
:1030900051E12A2800D15EE10F000131ACE70A9B23
:1030A000A1469B46CA4503D801235B425344994637
:1030B00053464A46594600200B9DA847200023B09E
:1030C000F0BCBB46B246A946A046F0BD0300693B32
:1030D000DBB20F2B00D962E7012199408846734A81
:1030E00011408B46110042460A4200D013E10A2BE0
:1030F0002FD0072B00D052E70C9D01CD002800D126
:1031000034E121231E43B0461F260D9A12ABF61858
:10311000A14694465946340002E0000920290AD00D
:103120000F26064032003732092E00D8073A013107
:1031300062540F28F1D863464C468B460D9322E12A
:103140000C9B20CB002D52DB78780C930F000131C3
:103150004EE70C9B0D9904CB90469B46002900D16D
:1031600028E1434618784144002801D100F029FCA9
:103170000D9A94460A0004E059780133002900D1E1
:1031800095E19A42F8D163460D934346D31A0F93C3
:10319000730500D46CE10F9B0D9A934200D90F92F6
:1031A00002231A0032400C92334200D191E20C9378
:1031B0000D9BB9461E1943461B1BA84622001F0043
:1031C0000B9D08E0541C53460A99A847385D002817
:1031D00000D163E122009642F4D145464F463400C7
:1031E0000C9B002B00D097E15B460C93DDE602229E
:1031F000787816430F006D420C930131F8E6787829
:103200006C2800D159E180235B001E43013114E793
:1032100080239B0078781E4301310EE77878682878
:1032200000D150E1802301311E4306E7672800D119
:10323000C2E0472800D134E1452800D134E107211C
:103240000C9B0D9A07338B43190004960395029249
:103250000CC90B98009201930C91220053460A99D5
:10326000FFF7CCFB0400A0E6462800D1A8E0072128
:103270000C9B0D9A07338B43190004960395029219
:103280000CC90B98009201930C91220053460A99A5
:10329000FFF77AF9040088E65D2F0010CC120020B9
:1032A0004480001088800010D480001041900000FD
:1032B0002200534625200A990B9DA847013474E645
:1032C0000C9B04339B46631C9846B60700D4FFE072
:1032D0000C9B220018780A9953460B9EB04764193C
:1032E000012D00D849E245460B9EB8460A9F2A00A8
:1032F0005346013539002020B047A542F7D1474653
:1033000072E7DB4B38780B9300239946002800D0F6
:103310003DE60024C6E66F2855D000D8BCE2102355
:10332000782800D19EE09E430A239C4600230F93F9
:103330000A339B464DE000218A00521852000133A7
:103340001118187830390200303A092AF4D90D9151
:103350001F00591C50E60C9BB87804CB0237D143B0
:10336000C9170A400D920C93791C45E610233000D2
:10337000984311331843802380463000DB00184007
:103380001E4200D1C0E643460693082305930D9BD9
:103390002200049310230393002302935B460193BE
:1033A0001AAB00930A9953460B98FEF7F1FF0C9560
:1033B0000400FAE50139D4E680231B011E433EE7F1
:1033C00020231E4353E708239C4600230F93083312
:1033D0009B4680233000DB0018401E4200D11AE1DA
:1033E0000D233100994380230A009B001A40914627
:1033F000194200D0C3E180230A005B001A409046C6
:103400000C9A04320F92194200D08FE24B0600D57D
:1034100097E10B0600D4E5E20C9B1B8899464B46CE
:10342000002B00D005E210339943002800D100E2C0
:10343000002398460D9B069104935B46039300235B
:10344000059502934346D9E0582808D0622878D1E0
:1034500002239C4600230F9302339B46B9E72023A7
:103460001E43103B9C4600230F9310339B46B0E74E
:1034700002231A0032400C92334200D105E20C9331
:103480004346B9460B9E0A9FA8461D1B2200534681
:1034900039000134B047285D0028F7D145464F4632
:1034A0009EE680231B011E4320231E43C7E662467F
:1034B0000D9242469B1A0F936AE6C0239B00B87890
:1034C0001E43F91CB9E5C023B8781E43F91CB4E5C6
:1034D000012D00D84AE1631E9946A9444B46524645
:1034E0002600A146BA461C001700A8460B9D3200D4
:1034F0003B00013620200A99A847A642F7D13B009D
:1035000057469A464C460C9B320018780A99534607
:103510000B9D4444A84767E6A0460F9B9D4200D8F8
:1035200062E62C190B9E4546B8460A9FE41A2A000B
:103530005346013539002020B047A542F7D1474610
:1035400052E680233200DB001A4090461E4200D132
:10355000F3E011218E43B4469846802362469B00D7
:103560001A40934662461A4259D180235B001A40A2
:1035700091460C9A04320F9262461A4200D0A0E1A2
:1035800063465B0600D5D4E063461B0600D412E216
:103590000C9B00229B5ED8171918414089B2DA0FA4
:1035A0000C92002B00D187E188461F2612ABBB4648
:1035B0001495F71845464E46E046A14606E0280019
:1035C0000A21FEF7B1FA0500202E08D00A212800B2
:1035D000FEF7AAFA01363031B955092DEFD84C461D
:1035E000C446B1465F46149D634606930D9B059500
:1035F00004930A2303930C9B02934B4601931AAB4B
:10360000220000930A9953460B98FEF7C1FE0F9BC8
:1036100004000C93C9E40C2331009943E3E608222B
:10362000072191460C9B07338B4399444A460ACBAA
:1036300008000C92DA0F9346184300D085E000236F
:1036400099464346002B2FD100220023109211935C
:1036500000231F26994612ABF6185B461495BB460D
:10366000E04637000F934E46A146109C119D05E0A1
:10367000E522001004000D00202E0CD00A220023A9
:1036800020002900FEF78EFA01363032BA55002D9F
:10369000F0D1092CEED80F9B109411955F464C4643
:1036A000C446B1469B46149D634606930D9B059503
:1036B00004930A2303935B4602934B4601931AAB90
:1036C000220000930A9953460B98FEF761FE04000E
:1036D0006BE40F9B9D4200D896E18023DB000C93A6
:1036E0000F9B2E19F61A43460F930D9BA846994639
:1036F0005346BA461F000B9D22003B000134202098
:103700000A99A847B442F7D10F9B454698464B46C5
:103710000D933B0057469A4643461878002800D13F
:1037200062E56B1C0F930C9B002B00D1A8E60023D5
:103730003DE50C9B1B78190031E710239E43B446EE
:103740000BE70C9B1B78994669E6DA1712921392E5
:103750004A401092129813990A005A401192109AF6
:10376000119B121A8B411092119371E70C9B22004E
:1037700018780A9953460B9CA047444634E5082222
:10378000072690460C9B0733B343984442460C925D
:103790001A685B68149208931300089A134305D1C2
:1037A0001033994300239846002838D161208B06B6
:1037B00000D5412000231F2698465A4612ABF61822
:1037C000030018920F9A0A3BB14616951794199761
:1037D0004446664690469B46149F089D159103E01B
:1037E00007000D00202C13D03200002338002900E0
:1037F000FEF7D8F95B46D2B2D318092A01D81300D4
:1038000030334A4601341355A845E9D1BE42E7D9C1
:10381000189BA0469B461599169D179C199F0D9BBA
:10382000069104935B460393002305950293434658
:1038300044E761208B0600D541201F2612ABF21809
:1038400003000A3B0C934B464646A146A8461C0083
:103850005D461491BB46170002E00400202E0DD0F7
:1038600029002000FEF760F90C9BCB18092901D82C
:103870000B0030330136BB55AC42EED25F464C46AE
:10388000AB4614994546B046D4E50F9B9D4200D9FE
:1038900026E701330F93F3E5102332009A43944651
:1038A000692800D0A2E080233200DB001A40904655
:1038B0001E4200D151E64CE64346002B00D093E671
:1038C00073E60C9B1B68DA0F002B70D0D9175B18BE
:1038D0004B4098461F2612ABF618A14614955C463D
:1038E0004546BB46E04637000C9206E028000A2118
:1038F000FEF71AF90500202C08D00A212800FEF74F
:1039000013F9013430313955092DEFD85F46C446DB
:10391000A3464C46149D0C9A634606930D9B059551
:1039200004930A23029203935B4667E60C9B1B6891
:103930009846002B03D11033994300282DD16120E4
:103940008B0600D541201F2612ABF61803000A3B58
:103950004A460C93149143463100A846A1465E4660
:103960001400BB461D000F0002E00500202C0DD006
:1039700031002800FEF7D8F80C9BCB18092901D894
:103980000B00303301343B55B542EED223005F4685
:103990004C464546B346994614990D9B06910493AF
:1039A0005B4603930023059502934B4626E6434668
:1039B000002BB1D18EE70C9B1B68D817191841401A
:1039C000EDE580233200DB001A400F921E420FD03B
:1039D0000230020032400F92304219D00023A0463C
:1039E0000F939AE50C9B1B68994618E516009BE41B
:1039F00002231A0032400C92334200D08CE5002D95
:103A000000D06DE6FFF7F0FB01330F93FFF7D0FB1B
:103A10000C93F4E700B585B0039101210290009367
:103A2000034813004A4202A9FFF798FA05B000BD07
:103A30007925001010B5094A0300146884B0002CE1
:103A400008D0012200910648524203A9A047012054
:103A500004B010BD00F068F90020F9E7CC12002096
:103A60006925001000BEFDE710B5FFF7FBFFC0465B
:103A700070B5FDF705FF074D074EB54209D200248A
:103A8000013E761BB608013608CD01349847B44292
:103A9000FAD170BD547B00105C7B0010030010B5A0
:103AA000080011001B68984710BDC046F8B5437D5B
:103AB00007000D001600002B38D0002A1ADD0B7805
:103AC0000A2B18D00020012E09D0012421006B5CA4
:103AD00001340A2B1AD0B442F8D1864203DD311AE0
:103AE0003B6828189847AD19013D2B780D3B5A4289
:103AF00053413B75F8BD037D002BE3D102210E48F5
:103B00003B689847012EEED00120DEE76B1E5B5C20
:103B10000D2BE0D0884203DA091A3B682818984731
:103B2000054802213B6898472000D4E7036811004C
:103B300028009847DEE7C04630820010F0B5C64640
:103B40000B6807000D0000B5802B06D05A1C2A60B8
:103B5000ED182F7180BCB846F0BD0F4B1C68002CCF
:103B600016D00B1D98460D4E02E02469002C0FD094
:103B70002368002BF9D03368002B01D0A342F4D185
:103B8000200041462A68FFF791FF2469002CEFD1FD
:103B900001220023DBE7C046C4120020C812002027
:103BA000F0B54646D6464F46C0B582B090461C009A
:103BB00006000D00FDF7B0FC00232F4A12184B4100
:103BC000002B02DA01222D4B52422D4908008A4671
:103BD00003F08AFF81466B1C03D1300003F018FF0D
:103BE0000500002C27D0274F274B1C68002C18D02D
:103BF0004346002B21D1254B984602E02469002C36
:103C00000FD02368002BF9D043461B68002B01D04E
:103C10009C42F3D120002A003100B8472469002CCF
:103C2000EFD14B46002B23D1280002B0E0BCBA46AE
:103C3000B146A846F0BD164FD6E7144B984602E0B1
:103C40002469002CEDD02368002BF9D043461B6873
:103C5000002B01D0A342F3D12A0031002000B84745
:103C60006B460A222000DA71D91D093AB847E7E706
:103C7000504603F011FFD7E740420F00FFFFFF7FE0
:103C8000A8050020AD3A0010C4120020C812002080
:103C90009D3A0010F0B5CE46474680B583B06B46DE
:103CA0000600DD1D2870FDF737FC0023194A1218A5
:103CB0004B41002B02DA0122174B524217490800F0
:103CC000894603F011FF164B80461C68002C14D067
:103CD000144F02E02469002C0FD02368002BF9D088
:103CE0003B68002B01D09C42F4D120000122290026
:103CF000FFF7DCFE2469002CEFD14346002B05D1F1
:103D0000300003B0C0BCB946B046F0BD484603F031
:103D1000C3FEF5E740420F00FFFFFF7FA80500202C
:103D2000C4120020C812002070B5040003F070FE19
:103D300001230100050001222000FFF731FF084B9D
:103D40001C68002C06D06368002B05D098472469B6
:103D5000002CF8D1280070BD2469002CF3D1F9E7BC
:103D6000C4120020F0B5CE46474680B5A3B004008B
:103D70000E00FDF7D1FB0023264A12184B41002B01
:103D800002DA0122244B5242244803F0ADFE002304
:103D90002200019380463300214801A9FFF73AFE33
:103DA000204F019B81463C68002B19D0002C2FD05E
:103DB0001D4E02E02469002C0FD02368002BF9D09F
:103DC0003368002B01D0A342F4D12000019A02A94C
:103DD000FFF76CFE2469002CEFD100233C680193AF
:103DE000002C06D06368002B0CD098472469002C67
:103DF000F8D14346002B07D1484623B0C0BCB94692
:103E0000B046F0BD2469EBE7044803F045FEF3E754
:103E10000194EEE740420F00FFFFFF7FA80500205E
:103E20003D3B0010C4120020C81200200FB400B5A2
:103E300083B004A901C90191FFF794FF03B008BC46
:103E400004B01847014B18607047C0468008002036
:103E500010B50A000100024802F0EAFE10BDC0469B
:103E6000E8090020014B18687047C0468008002010
:103E700010B582B0FFF7F6FF002807D003F09CF9D9
:103E800003000020002B10D002B010BD684603F0E4
:103E9000EBFB0F4C6946200003F0ECFB002813D02D
:103EA0002000FFF7CFFF2000E8E7FFF7DBFF04006B
:103EB00003F09EF9064B9C4206D1236820005B6B01
:103EC00098470020FFF7BEFF01204042DCE7C046D4
:103ED000B005002010B5024800F00CF810BDC04637
:103EE0000013002010B508220149FEF7F5F910BDB6
:103EF0000013002010B588B004000D220021684690
:103F0000FEF7E4F90D22002104A8FEF7DFF94B23A8
:103F10006A466846137004A90D2203F0B5FD152109
:103F2000082220006944FEF7D7F908B010BDC0464A
:103F300010B50520FDF7F0FB030C6420034958433E
:103F4000FDF7F2FD0338FDD210BDC0469A3B0000DC
:103F5000184B70B5C4580500002C14D021680029F6
:103F600006D06368A268144803F026F80023236093
:103F70000C202056002810DA0D202056002803DAE5
:103F800000220C4BEA5070BD03F04EF80D20205675
:103F900003F032F8FF236373F2E703F045F80C20D7
:103FA000205603F029F8FF230D2023732056002804
:103FB000E6DBE9E74C08000034820010F0B5C646A5
:103FC00000B53E4C3E4B84B0C45000230621220075
:103FD00001252360013BA3810191123180460091AC
:103FE00038482100231D0832029502F01DFF0028E9
:103FF0005ED0636834485A1D1203DB011A43334B09
:1040000001681A4030238B43314980270B600368D5
:10401000280098430860802120682E4B4904C3186B
:104020001960A168BF024B005B18DB00C3181E00BB
:10403000C8363760D026B446C0269C446746B602D0
:104040003E601E00CC363260234ADC331A601D22EB
:104050000123009502F090FE204B21681820C9181A
:10406000090D0631C9B2FCF74FF9012200211820D1
:10407000FCF762F901211820FCF770F9A1682368A8
:104080004A005218D2009B18154AD8331A600020F3
:1040900002F0BAFF2073002002F0B6FF237B6073AA
:1040A0001843000604D4002004B080BCB846F0BD1C
:1040B0004046FFF74DFF06204042F5E79C090020EF
:1040C0004C0800003482001078C00140FFFFFF9FC1
:1040D00078D001403820000018771C240000E0AFA1
:1040E00001E00000F0B5DE464E4657464546E0B5D5
:1040F00087B08B4616000293002900D11CE1914B3A
:10410000C458914B21681820C918090D0631C9B24D
:10411000FCF7FAF88C4B21681D20C918090D0631EF
:10412000C9B2FCF7F1F8012200211D20FCF704F9C7
:10413000D02380221B0692049A61029B2068A1680A
:10414000002B00D118E15B46002B00D1F1E00127E4
:104150003A00CC258A40AC46036893430360636809
:1041600098464B005B18DB00C21894446246126804
:10417000C31815004246053212039246734A154091
:104180002A00554615432A004546ED012A43654657
:104190002A606F4A3D009B18802212061A601A603E
:1041A0008022002352040092019302F091FD390015
:1041B000A36820681A1D91409446802292018218BB
:1041C0001160190008318D4099001560F200411806
:1041D000013A0A615A00D218D2005E4D8218D832D4
:1041E0001560109DAD1BED00A84601256D42A84449
:1041F00045460D611F255849984611606168294060
:1042000011600C216156A0258F40544AED05AF5036
:10421000534A8D018027AA4653195D467F041A68C8
:104220003A42FCD10D220127A256AB469740A02569
:1042300003923A004346494FED05EA51039AA846D6
:10424000474D92018027994653195D4690447F045B
:104250001A683A42FCD14B463B4A424F8218120D33
:10426000D2000492C9029A18B946D20339403E4F8F
:104270001143AB460F43A025059757466146ED0510
:104280007F195D4689003D6045187D60059DB20837
:10429000BA60FD60049D039F6544ED03AC464D4646
:1042A000FF022F4065463D43304F10312F43109D94
:1042B0004118AD08AA1A4546296002998919696012
:1042C000AA6001229A401300EF6001680B4303606B
:1042D0000C228021A256264B9201D2184904136861
:1042E0000B42FCD10D228021A256214B9201D21803
:1042F000490413680B42FCD1002132000298FDF7FB
:10430000E5FF2068A1684B005B18DB00C018194B63
:10431000D83003608022D02392041B065A61FFF735
:1043200007FE002007B0F0BCBB46B246A946A04637
:10433000F0BD029B9B460AE7002B00D0DFE605207C
:104340004042EFE74C0800000000E0AF7F00FEFFB6
:10435000D010000020600000406000004404000015
:104360000C000050FF7F00FF1900400029004000B2
:104370001000005003A000005B46002BC3D00127B3
:104380003A00CC258A40AC460368934303606368D7
:1043900098464B005B18DB00C218944462461268D2
:1043A000C318150042460132120392464A4A15408C
:1043B0002A00554615432A004546ED012A43654625
:1043C0002A60464A3D009B18802212061A601A6035
:1043D0008022002352040092019302F079FC3A00FB
:1043E000A0682168031D9A409C4680239B01CB183E
:1043F0001A6002000832954082001D60F3008A189E
:10440000013B136143001B18DB00354DCB18D8333B
:104410001D60029D894615611F25324A1A60626837
:104420002A401A600C23E3562F4A9F409846A02347
:10443000DB059F504346A0272C4A9B01D218FF055D
:104440009A46FF18130080225D46190052040B683B
:104450001342FCD14246D20290464946244AAB461A
:1044600015004246234B2A40CB181B0DDB001B18BE
:10447000DB031343204AB6081A435B463B6063469E
:104480009B00CB187B6001238340BE60FA600D68FF
:1044900052462B430B608021184B4904D2181368F5
:1044A0000B42FCD10122A368216818339A408A602C
:1044B0008B681A42FCD00122A16820688A400368F8
:1044C00093430360002318220093013302F054FC4D
:1044D0002068A16817E7C0467F00FEFFD0100000EB
:1044E0002060000040600000440400000C00005008
:1044F000FF7F00FF0000E0AF1900400010000050F7
:1045000010B51720FBF796FFD024802324061B0448
:104510000022012163621720FBF70EFF1820FBF732
:1045200089FF80235B0463621920A361FBF782FF8C
:1045300080239B046362636110BDC04670B5D024C4
:10454000802524062D04A561142002F0CDFE6561AE
:10455000FA2002F0C9FE1820FBF76CFF80235B04F1
:10456000A36270BD002300B585B003930C4BD2024B
:104570001A400823090711430A4A00930A4302AB71
:1045800052BA002102920422FFF7ACFD002803D1A9
:10459000039840BA05B000BD05204042FAE7C04686
:1045A00000F8FF0F0400004010B5124BD2021A4071
:1045B0000B071A43104B8AB013434C1E04936342FB
:1045C00063411B01083300930422002104ABFFF771
:1045D00089FD00280BD1631E9C410323614299434E
:1045E000053102AB8900083358580AB010BD0520C8
:1045F0004042FAE700F8FF0F0400004010B5124BEC
:10460000D2021A400B071A43104B8AB013434C1EB8
:104610000493634263411B01083300930422002189
:1046200004ABFFF75FFD00280BD1631E9C41032301
:1046300061429943053102AB8900083358580AB0EA
:1046400010BD05204042FAE700F8FF0F02000040CD
:1046500010B5124BD2021A400B071A43104B8AB006
:1046600013434C1E0493634263411B0108330093C0
:104670000422002104ABFFF735FD00280BD1631E97
:104680009C41032361429943053102AB8900083301
:1046900058580AB010BD05204042FAE700F8FF0F55
:1046A00001000040F0B55BBAD6464F464646C0B55D
:1046B0006C4C84B00393D2026B4B22400907C45860
:1046C00011436A4A6A4B0A432168182052BAC91832
:1046D000090D0631C9B20292FBF716FE644B216840
:1046E0001D20C918090D0631C9B2FBF70DFE0122C4
:1046F00000211D20FBF720FED023802201261B066F
:1047000092049A613200A16820688A400368656853
:10471000934303604B005B18DB00C718CC373A6843
:104720009C4690466A1C1303524A9A46130042461E
:104730001A40130052461A436346ED012A433A6079
:104740004D4AC3189B18802212061A601A608022F4
:10475000002352040092019302F0BAFA3200A068DA
:104760002168031D9A409C4680239B01CB181A6048
:1047700002003500083295401D603F2382008A18F0
:10478000136143001B18DB003C4FCB18D8331F606C
:10479000002717613A4A1F371A60626880253A403D
:1047A0000C271A60E757A023BE40364ADB059E500F
:1047B000A026BB019946344AF6054E444A446D048E
:1047C00013682B42FCD12A4B304ACB181B0DDB005F
:1047D0001B18FF021740DB033B432D4F2D4A1F439D
:1047E00002AB336063469B00CB1873600223B36057
:1047F000013B8340F7600D684A442B430B608021E6
:10480000490413680B42FCD10122A36821681833C4
:104810009A408A608B681342FCD00122A16820680C
:104820008A400368934303600023182200930133F6
:1048300002F0A2FAA16823684A005218D2009B181D
:10484000154AD8331A60D02380221B0692045A617D
:10485000FFF76EFB002004B0E0BCBA46B146A846A4
:10486000F0BDC04600F8FF0F4C080000040000C077
:104870000000E0AF7F00FEFFD010000020600000CD
:1048800040600000440400000C000050FF7F00FF67
:10489000190040001000005003A00000F0B5D646FB
:1048A0004F464646C0B56C4C84B00393D2026B4B66
:1048B00022400907C4580A4369496A4B0A432168E0
:1048C0001820C918090D0631C9B20292FBF71CFD68
:1048D000644B21681D20C918090D0631C9B2FBF7C8
:1048E00013FD012200211D20FBF726FDD02380228D
:1048F00001261B0692049A613200A16820688A4052
:1049000003686568934303604B005B18DB00C718BE
:10491000CC373A689C4690466A1C1303524A9A4622
:10492000130042461A40130052461A436346ED01F3
:104930002A433A604D4AC3189B18802212061A6017
:104940001A608022002352040092019302F0C0F901
:104950003200A0682168031D9A409C4680239B0179
:10496000CB181A6002003500083295401D603F23C5
:1049700082008A18136143001B18DB003C4FCB18E0
:10498000D8331F60002717613A4A1F371A606268E0
:1049900080253A400C271A60E757A023BE40364ACC
:1049A000DB059E50A026BB019946344AF6054E44CD
:1049B0004A446D0413682B42FCD12A4B304ACB1871
:1049C0001B0DDB001B18FF021740DB033B432D4F81
:1049D0002D4A1F4302AB336063469B00CB187360C4
:1049E0000223B360013B8340F7600D684A442B43C8
:1049F0000B608021490413680B42FCD10122A3689B
:104A0000216818339A408A608B681342FCD00122D7
:104A1000A16820688A40036893430360002318223A
:104A20000093013302F0A8F9A16823684A005218E4
:104A3000D2009B18154AD8331A60D02380221B0657
:104A400092045A61FFF774FA002004B0E0BCBA4641
:104A5000B146A846F0BDC04600F8FF0F4C08000064
:104A6000040000C00000E0AF7F00FEFFD010000097
:104A70002060000040600000440400000C00005072
:104A8000FF7F00FF190040001000005003A000004D
:104A9000F0B5D6464F464646C0B56C4C84B003933D
:104AA000D2026B4B22400907C4580A4369496A4B3A
:104AB0000A4321681820C918090D0631C9B20292AB
:104AC000FBF722FC644B21681D20C918090D063133
:104AD000C9B2FBF719FC012200211D20FBF72CFCB9
:104AE000D023802201261B0692049A613200A1681D
:104AF00020688A4003686568934303604B005B1835
:104B0000DB00C718CC373A689C4690466A1C1303F2
:104B1000524A9A46130042461A40130052461A431C
:104B20006346ED012A433A604D4AC3189B18802220
:104B300012061A601A608022002352040092019328
:104B400002F0C6F83200A0682168031D9A409C4616
:104B500080239B01CB181A60020035000832954073
:104B60001D603F2382008A18136143001B18DB007D
:104B70003C4FCB18D8331F60002717613A4A1F37C4
:104B80001A60626880253A400C271A60E757A02314
:104B9000BE40364ADB059E50A026BB019946344AEA
:104BA000F6054E444A446D0413682B42FCD12A4B4F
:104BB000304ACB181B0DDB001B18FF021740DB032C
:104BC0003B432D4F2D4A1F4302AB336063469B008E
:104BD000CB1873600223B360013B8340F7600D681C
:104BE0004A442B430B608021490413680B42FCD1DB
:104BF0000122A368216818339A408A608B681342A7
:104C0000FCD00122A16820688A40036893430360B6
:104C1000002318220093013302F0AEF8A168236844
:104C20004A005218D2009B18154AD8331A60D02374
:104C300080221B0692045A61FFF77AF9002004B023
:104C4000E0BCBA46B146A846F0BDC04600F8FF0F2A
:104C50004C080000020000C00000E0AF7F00FEFF33
:104C6000D0100000206000004060000044040000FC
:104C70000C000050FF7F00FF1900400010000050A2
:104C800003A00000F0B5D6464F464646C0B56C4C72
:104C900084B00393D2026B4B22400907C4580A43E5
:104CA00069496A4B0A4321681820C918090D063161
:104CB000C9B20292FBF728FB644B21681D20C9187A
:104CC000090D0631C9B2FBF71FFB012200211D208F
:104CD000FBF732FBD023802201261B0692049A6147
:104CE0003200A16820688A400368656893430360C6
:104CF0004B005B18DB00C718CC373A689C469046DF
:104D00006A1C1303524A9A46130042461A40130083
:104D100052461A436346ED012A433A604D4AC3188E
:104D20009B18802212061A601A6080220023520407
:104D30000092019301F0CCFF3200A0682168031DAE
:104D40009A409C4680239B01CB181A6002003500D4
:104D5000083295401D603F2382008A18136143008A
:104D60001B18DB003C4FCB18D8331F60002717619E
:104D70003A4A1F371A60626880253A400C271A6049
:104D8000E757A023BE40364ADB059E50A026BB0154
:104D90009946344AF6054E444A446D0413682B4242
:104DA000FCD12A4B304ACB181B0DDB001B18FF022D
:104DB0001740DB033B432D4F2D4A1F4302AB3360AB
:104DC00063469B00CB1873600223B360013B8340B2
:104DD000F7600D684A442B430B6080214904136837
:104DE0000B42FCD10122A368216818339A408A60E3
:104DF0008B681342FCD00122A16820688A400368B6
:104E000093430360002318220093013301F0B4FFA1
:104E1000A16823684A005218D2009B18154AD8335B
:104E20001A60D02380221B0692045A61FFF780F893
:104E3000002004B0E0BCBA46B146A846F0BDC0466A
:104E400000F8FF0F4C080000010000C00000E0AFB8
:104E50007F00FEFFD01000002060000040600000D6
:104E6000440400000C000050FF7F00FF19004000C8
:104E70001000005003A0000070B58C461D00D91C26
:104E8000032399436346040082B0012B25D02423D9
:104E90000420174ED202324066462A433607324378
:104EA00080260430F6058000324320180431426029
:104EB000E3180091042200212000FFF713F9061ED9
:104EC0000FD12100069B2831994203D02A001800F7
:104ED000FDF702FA300002B070BD0020103113332C
:104EE000D7E7052103484942FEF7A0FFF2E7C04695
:104EF00000F8FF0F287C0010F0B5D6464F46464616
:104F0000C0B5050089469246984688B0022927D048
:104F100041460323CC1C9C435346204ADB021340EA
:104F20004A4616070E431E432800C023109A1B064C
:104F300028300434334390422ED011006B62424635
:104F4000FDF7CAF92900002322002800243100932C
:104F5000FFF7C8F808B0E0BCBA46B146A846F0BDB5
:104F600008270F4C0F4E05E02022039B1A420BD15D
:104F7000013C0BD3042200212800009702AB0296CB
:104F8000FFF7B0F80028EFD0002CC1D10648FEF79B
:104F9000CBFE06204042DDE76B62D3E700F8FF0F4F
:104FA000E7030000044000405C7E0010836870B599
:104FB000CC0B0500E403A3420DD0802263405204D1
:104FC000934219D2FF22120413420CD1FF22120283
:104FD000134201D1AC6070BD012128000A4A230AA6
:104FE000FFF750FEF6E7230C01212800074AFFF7E0
:104FF00049FEAB686340E9E7230E0121044AFFF74D
:1050000041FEAB686340DDE70A0001000B000100D0
:105010000C000100F0B5C64603300C0000B58D1E33
:1050200087081DD07B1E072B59D92B000B435B072C
:1050300055D1C1088846C90023002A008C4666184D
:1050400003CB03C29E42FBD143465800874207D0A0
:105050006346E25AE3185B881B0413436246AB5075
:105060006B885BBA6B80A31C1A6813BA6B60A31DB4
:1050700019680BBAAB6023000A331B681BBAEB60DC
:105080008A23DB059A4203D0280080BCB846F0BDD5
:1050900080231B059942F7D1230022002600AE335E
:1050A000B2321B8812682E3631699818884221D88E
:1050B0003A34E418A218944240D20027002004E0B9
:1050C000DD291BD0E418A24226D963780233E11807
:1050D0008A42F7D321783029F2D12000F2E72A0062
:1050E000BF00EF19938851881B040B4308C29742F5
:1050F000F8D1B5E701235B42AB60C5E7A178002991
:10510000E0D1E1785029DDD12179F229DAD1617934
:105110000129D7D12700D5E7431E98418000002FF1
:1051200001D002221043B28BD20601D501221043D6
:105130008422A95CA9520432A854A5E70020F2E712
:10514000F0B5C6460E0005000B0000B501211A4A55
:10515000FFF798FD330001212800174AFFF792FD61
:10516000002E25D003230327984640240BE001207E
:1051700002F0BAF8013C3300012128000E4AFFF783
:1051800081FD002C0FD0012128000B4AFFF760FAA7
:105190000028ECDB43460340BB42E8D1FF28E6D0C1
:1051A00080BCB846F0BD31000448FEF73FFEF7E78B
:1051B000012300279846D8E71F000100447C001017
:1051C000F0B54746CE4680B5C37C05000F0090463B
:1051D00083B0002B05D1006801F012FC012800D03B
:1051E00093E0280001F012FCAB7C002B05D10121DB
:1051F0002800FFF7A5FF0123AB74EB7C002B00D147
:105200006DE0FA24A40003E02418002C00D17CE017
:10521000082200212800FFF7C7F9431CF4D0C3057A
:1052200000D4BCE0C02203035B0D591ED2009142A2
:1052300000D3AEE0800700D5ABE02C00283400227C
:10524000022128000094FFF717FE00283BD1298D8A
:105250006A8D0B00134300D1A1E00123EB745F4B77
:105260009C460B005340634500D09EE0D24392B26F
:10527000914200D096E00B2900D89DE0237AAB73D1
:105280000F2362791340022B22D8627A9446664635
:105290006A7BB21AD2B2142A3AD90C291CD0012B3B
:1052A00038D0022B5CD01B2900D891E0E3792D8AFD
:1052B000E3185A89954200D087E0424610331C1B00
:1052C0000C1B3C60136003B0C0BCB946B046F0BDD7
:1052D0000B2040420C29F6D104204042F3E704227F
:1052E00000212800FFF78AF93D4B84B299461B88BC
:1052F0000600A34202D0862303422BD1002C41D1C9
:105300004B461C80B40600D57BE701204042DAE71B
:105310006E73C2E710295ED9E379E318DA78920058
:1053200004329B181A7B882A49D15A7B6C2A46D1B1
:10533000DA7C002A3DD11A7D102A3AD15A7D182AEA
:1053400037D142461C1B091B18391833396001201C
:105350001360B8E70104090C2248FEF767FDCDE7AA
:1053600010292FD9E2790220A218D3789B000433A8
:10537000D31892781C1BD2070C1B144342463C6086
:105380001360A0E72300042200212800FFF780FB20
:10539000B6E7012301212800134AFFF773FC00231D
:1053A000EB74B2E7022040428DE71048FEF73EFD65
:1053B000ABE70A20404286E70320404283E709200A
:1053C000404280E7072040427DE7062040427AE7DE
:1053D0000520404277E70820404274E7FFFF0000C5
:1053E00012140020687C00100D000100947C001055
:1053F000F0B5DE4657464E4645460400E0B585B05A
:105400009B468946924601F001FBA37C002B05D107
:1054100001212000FFF794FE0123A374A37B002B3E
:1054200024D02D4E2D4FB36A98460EE0A17B002963
:1054300003D1237B627B9A421CD14346ED1ABD42C5
:1054400041D8FA20800001F021FF200003AA02A920
:10545000B56AFFF7B5FE0128E8D103990298FFF776
:10546000D9FD0100200001F0D7FADFE7237B627B42
:105470009A42D6D052465D460C3292B22A80D2432E
:105480006A804A466A71023A501E82410120002118
:10549000524282432B710E320133A971EA71298184
:1054A00069812373534603220F3393432000002264
:1054B00000950231FFF720FD05B0F0BCBB46B246B7
:1054C000A946A046F0BD637B227B0548FEF7AEFCF3
:1054D00002204042F0E7C0460040054040420F0035
:1054E000C07C0010F0B557464E46DE464546E0B556
:1054F000294E9346B76A9946284AB36A05008A46F8
:1055000083B0DB1B93422ED8254B984610E002282F
:1055100020D0002803DB01004046FEF787FCFA207C
:10552000800001F0B3FEB36A1C4ADB1B93421AD819
:105530006946280001AAFFF743FE041E23D0012874
:10554000E5D101990098FFF765FD0100280001F001
:1055500063FAE4E70099019B4A0028685208C90FE2
:1055600001F0F2FEDBE74B465A46514602240D4855
:10557000FEF75CFC6442200003B0F0BCBB46B246C0
:10558000A946A046F0BD009A4A4500D94A4601996D
:105590000C9802F085F9EEE7004005403F420F000D
:1055A000E47C0010107D001044239C46F0B5C646F4
:1055B00084446346884600B5040084B008001600A1
:1055C000039302F025FA039B41469846471C3A0094
:1055D00005001800FCF780FE4346320ADF197A7096
:1055E000320CBA70320EFA702A00039380232132F3
:1055F0003E701B019A4221D80822238AFF320133D0
:105600006263063AFF3A23821B041343E3630023D9
:105610002A00236423006F1D00212000A763153298
:105620002833FFF7E5FE002808D10822039B02215A
:10563000009320003B00FF32FFF754FF04B080BC12
:10564000B846F0BDF0B5CE46474680B5060083B0FB
:105650000500080099468846170002F0D9F944363B
:10566000441C3A004946301902F01AF9220041461A
:105670003000E419FCF730FE220080231C321B01AD
:105680009A421FD8298A0A9B01311B0329820904E7
:10569000194302231943002308272B642B00FF37EB
:1056A000E963280000216F63AC6328330C3AFFF7ED
:1056B0009FFE002806D123003A0002212800009610
:1056C000FFF710FF03B0C0BCB946B046F0BDC046FE
:1056D000836870B5CE0B04000D00F6039E420DD01A
:1056E000802273405204934239D2FF2212041342A3
:1056F0002CD1FF221202134221D1A66080226D0418
:105700006D0C12022A4301212000FEF7A1FFC025E3
:10571000A36806006D05AB420FD080226B40520497
:10572000934238D2FF221204134228D1FF221202E0
:1057300013421CD1C0235B05A360300070BD012162
:105740002000194A330AFFF79DFAD6E7330C0121EE
:105750002000164AFFF796FAA3687340C9E7330E94
:105760000121134AFFF78EFAA3687340BDE7C023F7
:10577000012120000C4A5B03FFF784FADAE7C0231B
:105780000A4A5B0101212000FFF77CFAC023A268CE
:105790005B055340CAE7182301212000044AFFF7A4
:1057A00071FAA3686B40BDE70A0001000B0001001D
:1057B0000C000100F0B5C64698468368CE0B040085
:1057C0000D00170000B5F6039E420DD080227340F5
:1057D0005204934262D2FF221204134255D1FF2297
:1057E0001202134224D1A66080226D046D0C1202B5
:1057F0004346012120002A43012F20D0FFF74EF815
:10580000C025A3686D05AB420FD080226B405204C7
:10581000934217D2FF22120413421FD1FF22120219
:1058200013422AD1C0235B05A36080BCB846F0BDFB
:10583000012120001D4A330AFFF724FAD3E7FFF7BE
:1058400021FADDE718231A4A01212000FFF71AFA8E
:10585000FF22A36812046B401342DFD0C023154A15
:105860005B0101212000FFF70DFAC023A2685B0550
:105870005340FF2212021342D4D0C0230121200042
:105880000A4A5B03FFF7FEF9CCE7330C0121200045
:10589000084AFFF7F7F9A3687340A0E7330E012128
:1058A000034AFFF7EFF9A368734094E70A00010089
:1058B0000C0001000B000100F8B5CE46474604007D
:1058C0000D0080B5012900D1E0E1D64BC8279846EC
:1058D0003F02C02641462000FFF768FB3A00012145
:1058E0002000FEF7B5FEA3687605B34212D08022F1
:1058F00073405204934200D3E5E0FF2212041342A6
:1059000000D0EDE0FF221202134200D0F8E0C023E5
:105910005B05A36041462000FFF748FB3A000121E8
:105920002000FEF795FEC026A36881467605B342A7
:1059300012D0802273405204934200D39DE1FF2293
:105940001204134200D08CE1FF221202134200D055
:105950007FE1C0235B05A3604B46DE0700D49DE1D9
:10596000012D00D197E1B04DB04E31002000FFF77E
:105970001DFB03232A0001212000FFF783F9C02229
:10598000A3685205934212D053408022520493429E
:1059900000D353E1FF221204134200D036E1FF226C
:1059A0001202134200D029E1C0235B05A36031003D
:1059B0002000FFF7FBFA2A0001212000FEF748FE35
:1059C000C022A3685205934212D053408022520451
:1059D000934200D307E1FF221204134200D0F6E005
:1059E000FF221202134200D0E9E0C0235B05A3604E
:1059F00041462000FFF7DAFA3A00C02700230121D0
:105A00002000FFF73FF9A3687F05BB4212D0802238
:105A10007B405204934200D3C8E0FF221204134299
:105A200000D0B7E0FF221202134200D0AAE0C02348
:105A30005B05A360C027012001F056FC3100200067
:105A4000FFF7B4FA01232A0001212000FFF71AF919
:105A5000A3687F05BB4211D080227B405204934251
:105A600000D386E0FF221204134200D075E0FF222B
:105A70001202134269D1C0235B05A36031002000EC
:105A8000FFF794FA2A00C02501212000FEF7E0FD6F
:105A9000A3686D05AB420FD080226B405204934245
:105AA0004AD2FF22120413423AD1FF2212021342B9
:105AB0002ED1C0235B05A360012001F015FCC0BC02
:105AC000B946B046F8BD1823594A01212000FFF716
:105AD000D9F8FF22A36812047340134200D111E7E2
