:020000041000EA
:1000000000B5324B212058609868022188439860DF
:10001000D860186158612E4B002199600221596106
:100020000121F02299502B49196001219960352056
:1000300000F044F80222904214D00621196600F024
:1000400034F8196E01211966002018661A6600F04E
:100050002CF8196E196E196E052000F02FF8012189
:100060000842F9D1002199601B49196000215960AB
:100070001A491B48016001219960EB211966A021F2
:10008000196600F012F800219960164914480160C1
:100090000121996001BC002800D000471248134993
:1000A000086003C880F30888084703B5996A0420EC
:1000B0000142FBD001200142F8D103BD02B5186610
:1000C0001866FFF7F2FF186E186E02BD00000240BE
:1000D000000000180000070000035F00212200005C
:1000E000F4000018222000A00001001008ED00E03C
:1000F00000000000000000000000000074B24E7A12
:1001000000200420F7010010CB010010CD010010E9
:10011000C9010010C9010010C9010010C901001077
:10012000C9010010C9010010C9010010CF01001061
:10013000C9010010C9010010D1010010D301001045
:10014000C1010010C1010010C1010010C101001067
:10015000C1010010C1010010C1010010C101001057
:10016000C1010010C1010010C1010010C101001047
:10017000C1010010C1010010C1010010C101001037
:10018000C1010010C1010010C1010010C101001027
:10019000C1010010C1010010C1010010C101001017
:1001A000C1010010C1010010C1010010C101001007
:1001B000C1010010C1010010C1010010C1010010F7
:1001C000EFF30580103800BE00BE00BE00BE00BECA
:1001D00000BE00BEF2EB8871349E0210549E0210E5
:1001E0003802001090A31AE71E481F49086006C88D
:1001F00081F3088810471D480068002801D019487D
:10020000F3E70DA40ECC002902D000F012F8F9E7B4
:100210001749184A002000E001C19142FCD116495B
:100220008847164988471649884700BEFDE701C937
:1002300001C29A42FBD37047549E0210C0000020B6
:10024000DC19002070B70210000004200000042018
:1002500070B70210001004200010042000000000FD
:10026000704700000000000008ED00E0000000D032
:10027000DC19002098E1032059530010B10500104B
:1002800019530010F8B5C0460448054B10B5834219
:1002900003D0044B002B00D0984710BDDC19002080
:1002A000DC1900200000000006480749091A8B10DD
:1002B000C90FC91810B5491003D0044B002B00D04A
:1002C000984710BDDC190020DC1900200000000058
:1002D00010B5074C2378002B09D1FFF7D5FF054B4C
:1002E000002B02D0044800E000BF0123237010BDA2
:1002F000B83C032000000000D0A40110054B10B54D
:10030000002B03D00449054800E000BFFFF7CCFFF5
:1003100010BDC04600000000BC3C0320D0A401106A
:100320007047C046030020291DD090228258002A21
:1003300019D08069814218D0012A14D0586B8142AB
:100340001AD0022A0FD0186D814217D0032A0AD082
:10035000D86E814214D0042A05D088229A580020F1
:100360008A420FD070470020FCE70022D000801A9C
:10037000800004301818F5E70122F7E70222F5E7BC
:100380000322F3E70422F1E7BC2282580300002A8B
:100390001DD09420185881421BD0012A17D09820D4
:1003A000185881421AD0022A11D09C201858814234
:1003B00016D0032A0BD0A0201858814212D0042A4C
:1003C00005D0A4229A5800208A420DD07047002000
:1003D000FCE700222A329200D058F7E70122F9E721
:1003E0000222F7E70322F5E70422F3E7902370B532
:1003F000C55804000E00002D47D08369202B2DD056
:10040000012D42D0636B202B2FD0022D3DD0236DC8
:10041000202B32D0032D38D0E36E202B08D0042DB2
:1004200033D08823E3580025202B0ED0280070BD40
:100430003100206F18F086FC0028F0D10323DD0086
:10044000ED1AAD0004356519F0E76C33E058310062
:1004500018F078FC04230028E8D1F0E7C06918F010
:1004600071FC0028CCD10023E9E73100A06B18F023
:1004700069FC0028C9D10123E1E73100606D18F063
:1004800061FC0028C6D10223D9E70025CEE7C0468B
:10049000F0B546464F46D6461500C0B5984606000C
:1004A0000F0020293DD003681B689847002827D1FA
:1004B00090239C46F358042B2AD81C245C43A14665
:1004C000B1444A46111D2A0031CA31C10D0013CA78
:1004D00013C51268BC212A604A469761624694207F
:1004E00044460133B35073589A00B2181750013381
:1004F000143014507350E0BCBA46B146A846F0BD63
:100500000B480BF0E3FE39000A480BF0DFFEF2E780
:10051000390009480BF0DAFE052108480BF0D6FE39
:10052000E9E707480BF0D2FE06480BF0CFFEE2E702
:100530001CA501104CA5011070A50110A4A5011067
:10054000D0A4011004A5011010B50C4C94B068465D
:100550000D2101F009F850226946200003F0E4F96A
:10056000200000F0D7FF200000F0CEFF044805F087
:10057000C1F8C82001F0E0FF14B010BDDC3F03203B
:10058000B8A5011010B5094C0021200000F0CEFFE5
:100590000221200000F0D0FF0021200000F0DEFF4B
:1005A0000321200000F0CEFF10BDC046DC3F032039
:1005B000F0B5D6464F464646C0B5E6B005F04CF815
:1005C00001F040F8FFF7C0FFFFF7DCFF052001F066
:1005D0002BF9A02300228021002001F0A5F801F0D2
:1005E0008BF8012001F06CF8534B1422694600246B
:1005F000059390238918CC5069462C338A1835A866
:10060000D45009F0FFFD09214C4B35AA05A8FFF78E
:100610003FFF35A808F0F0F81321494B35AA05A88B
:10062000FFF736FF35A809F06DF80321454B35AAD1
:1006300005A8FFF72DFF35A809F0B2FE1121424BA6
:1006400035AA05A8FFF724FF35A80AF015FC1621E6
:100650003E4B35AA05A8FFF71BFFC82292023C4B70
:100660003C49039402940194009235A805AA0AF02B
:100670007DFE35A80BF0A8F8002135A80AF0D6FEBB
:100680000021060035A80AF001FFA024070003227C
:10069000002104A803F042F9E401032104A8013C6D
:1006A00001F018F8002CF8D12B4805F023F82B485E
:1006B00007F0B8FD2A4B2B4D9A462B4B2B4C9946F5
:1006C0002B4B984607F02AFD0128FBD12022A023BE
:1006D00080212870002001F027F801F00DF880211A
:1006E0002000C90100F0F6FF8023DB011900E018AB
:1006F00000F0F0FF1F2300221F21002001F014F85A
:1007000000F0FAFF80215046090100F0E3FFC0220B
:1007100049469201306903F007F935A80BF0E4F976
:100720003B69186803F09CF802000B00404605F096
:1007300065F800232B70C5E7BCD10110758400104B
:10074000818600101D830010B98500108586001079
:10075000E0190020ECD10110D0A5011071080010A3
:1007600074D9032091E103203CCC032038480320B6
:10077000F0A50110F0B5CE464746394BC026994644
:1007800080B53601374F85B04E447B783D780133D4
:100790001B021D432BB2ADB2E80AC000019303F067
:1007A00009F8314902F0A7FF03F054F8C4B2680910
:1007B0008000C0B202F0FEFF2B4902F09CFF03F064
:1007C00049F8019BC5B2D800C0B202F0F3FF264938
:1007D00002F091FF03F03EF801068846C2B2110410
:1007E000019121060291210210020A4329040A43C1
:1007F00041460390280684460A43039928020D4384
:1008000021040D4361460D4321004B4601430198ED
:1008100001430298014319605D609A60D9601D61CF
:100820005A619961DD611A6259629D62DA621963E7
:100830005D639A63D9631D645A649964DD641A65C3
:1008400059659D65DA656033B342E4D1074B0137E2
:100850009F429AD105B0C0BCB946B046F0BDC04673
:100860003CCC032074D9032000007F4373E10320B4
:10087000F8B51D4B4746CE4698461C4B80269946F8
:1008800080B51B4C1B4F1C4D360143461B78002B7B
:10089000FBD102220121380000F042FEBB68002B90
:1008A00008D0802221003800120200F051FEBB68FF
:1008B000002BF6D100233F20104AA15CE9541842D6
:1008C00005D1C132A15C0133E9541842F9D001339A
:1008D0000132B342F1D1FFF74DFF01234A46012017
:1008E000137007F011FCD0E791E1032092E103209F
:1008F00038480320DC3F032074D90320A2300000D5
:100900009823826B70B50400D35898479423A26B48
:100910002000D3589847A0254C2602E0A35D012B68
:1009200007D0A36B0422442120005B59984700287C
:10093000F4D09C23A26B2000D35898470023A060DA
:100940006060A37370BDC0468068704780230A0052
:10095000816B10B50400CB5829219847AC23A26BBA
:100960002000D3589847002010BDC046F8B5802716
:100970000400AC260D00836B3622DB590B2198470F
:10098000A36B20009B599847A36B0322DB590C21D2
:1009900020009847A36B20009B599847A36BAA059A
:1009A000DB590D212000920E9847A36B20009B5924
:1009B0009847A36B3622DB590B2120009847A36B85
:1009C00020009B599847A36B0222DB590C21200081
:1009D0009847A36B20009B599847A36B2A01DB59CA
:1009E0000D212000D2B29847A36B20009B59984755
:1009F0000020F8BDC16302730364704710B5C37B68
:100A00000400012B13D000230B4AE3732282A26B54
:100A1000A3606360803320212000D35801229847CF
:100A2000AC23A26B2000D3589847002010BD036C64
:100A3000002BE8D09847E6E70103000080230A0076
:100A4000816B10B50400CB582A219847AC23A26BC8
:100A50002000D3589847002010BDC0468023826BE9
:100A600010B504000721D35840229847AC23A26B4D
:100A70002000D3589847024B0020238210BDC04667
:100A80000411000080230A00816B10B50400CB58CC
:100A900026219847AC23A26B2000D358984700200A
:100AA00010BDC046F8B5437B0400822B19D0CFB2ED
:100AB0008026AC25A36B09129B59CAB220003121B4
:100AC0009847A36B20005B599847A36B3A009B594A
:100AD000322120009847A36B20005B5998470020E3
:100AE000F8BD024BCF5C3900E2E7C0465711002049
:100AF000F8B5437B04000D00842B0BD880230A0C2F
:100B0000816BD2B2CB5833219847AC23A26B200023
:100B1000D35898478027AC26A36B2A0ADB59342187
:100B20002000D2B29847A36B20009B599847A36B33
:100B3000EAB2DB59352120009847A36B20009B596E
:100B400098470020F8BDC04680230A00816B10B58D
:100B50000400CB5827219847AC23A26B2000D35820
:100B60009847002010BDC04680230A00816B10B555
:100B70000400CB5824219847AC23A26B2000D35803
:100B80009847002010BDC04680230A00816B10B535
:100B90000400CB5825219847AC23A26B2000D358E2
:100BA0009847002010BDC04680230A00816B10B515
:100BB0000400CB5823219847AC23A26B2000D358C4
:100BC0009847002010BDC04680230A00816B10B5F5
:100BD0000400CB5822219847AC23A26B2000D358A5
:100BE0009847002010BDC046802310B5826B0721B6
:100BF000D3588022984710BD802310B5826B042102
:100C0000D3580222984710BD802310B5826B04216F
:100C1000D3580122984710BDF8B58427836B040090
:100C2000DB5945219847A36B0600DB59462120007C
:100C30009847A36B0500DB594721200098472D02F8
:100C4000000428433043F8BD842310B51400826BA0
:100C5000D3589847204010BD802310B5846B1943AA
:100C60000C33E358984710BD7F2310B5826B1940B1
:100C70000933D358984710BD70B504008426032566
:100C8000A36B442120009B59984728400228F7D1A4
:100C900070BDC046F8B580250400836B4F788E7810
:100CA0005B590A780B219847A36B3A005B592000E7
:100CB0000C219847A36B32005B590D212000984707
:100CC000F8BDC04680230A00816B10B50400CB58E4
:100CD0002B219847AC23A26B2000D35898470020C3
:100CE00010BDC04610B5007800F0A6FC10BDC0468F
:100CF00070B580260400AC25836B30229B590B21F4
:100D00009847A36B20005B599847A36B29229B59F6
:100D10000C2120009847A36B20005B599847A36BD8
:100D2000012207219B5920009847A36B20005B59A3
:100D30009847052001F000FC8423A26B4821200085
:100D4000D358984770BDC04610B53C2000F03AFC1F
:100D500010BDC04670B50400007800F06DFC3D2069
:100D600000F030FC002000F02DFC002000F02AFCF8
:100D70000500208800F05AFCA3682800013BA3600E
:100D800070BDC04670B50D0014000600007800F07C
:100D900053FCE8B200F016FCE0B200F013FC30881F
:100DA00000F044FC012070BD10B5008800F03EFC4E
:100DB00010BDC04670B50C000500007800F03CFC8A
:100DC000E0B200F0FFFB002000F0FCFB002000F090
:100DD000F9FB0400288800F029FC200070BDC04603
:100DE00070B5C37B0400002B0BD0094D836B290029
:100DF000027B5B6F9847C1B2002903D02800E36BE8
:100E0000984770BDA823A26B2000D3589847F8E7F5
:100E1000CC4603204A1E53425A410123816BD20122
:100E200070B51A4304007F33CB5830219847AC2368
:100E3000A26B2000D3589847637B842B08D9842663
:100E40000825A36B442120009B5998470542F8D1FF
:100E5000002070BD10B5437B04000A00842B09D824
:100E60008023816BCB5828219847AC23A26B2000AC
:100E7000D3589847002010BD70B58025836B427B06
:100E80005E5913007D33DBB20400012B11D9842A93
:100E900003D807220221B04770BD01222821B047A4
:100EA000AC23A26B2000D35898474C230122E25474
:100EB000F2E700220B21B047AC26A36B20009B5920
:100EC0009847A36B28220C2120005B599847A36BFD
:100ED00020009B599847A36BD0220E2120005B591C
:100EE0009847A36B20009B599847A36B00220D21C4
:100EF00020005B599847A36B20009B599847A36B30
:100F000000220B2120005B599847A36B20009B59BE
:100F10009847A36B2A220C2120005B599847A36BAA
:100F200020009B599847A36B10220E2120005B598B
:100F30009847A36B20009B599847A36B7E220D21F5
:100F400020005B599847A36B20009B599847A36BDF
:100F50000F220B2120005B599847A36B20009B595F
:100F60009847A36B12220C2120005B599847A36B72
:100F700020009B599847A36B00220E2120005B594B
:100F80009847A36B20009B599847A36B20005B599F
:100F900001220D219847A36B20009B5998477BE7BE
:100FA00070B58025836B427B5E5913007D33DBB2C5
:100FB0000400012B11D9842A03D805220221B0474D
:100FC00070BD00222821B047AC23A26B2000D3586B
:100FD00098474C230022E254F2E700220B21B0474D
:100FE000AC26A36B20009B599847A36B28220C21A9
:100FF00020005B599847A36B20009B599847A36B2F
:10100000D0220E2120005B599847A36B20009B59EA
:101010009847A36B00220D2120005B599847A36BD2
:1010200020009B599847A36B00220B2120005B599D
:101030009847A36B20009B599847A36B2A220C2149
:1010400020005B599847A36B20009B599847A36BDE
:1010500010220E2120005B599847A36B20009B595A
:101060009847A36B7E220D2120005B599847A36B04
:1010700020009B599847A36B0F220B2120005B593E
:101080009847A36B20009B599847A36B12220C2111
:1010900020005B599847A36B20009B599847A36B8E
:1010A00000220E2120005B599847A36B20009B591A
:1010B0009847A36B20005B5900220D219847A36B32
:1010C00020009B5998477BE710B5437B04000A003A
:1010D000842B09D98023816BCB582C219847AC23D2
:1010E000A26B2000D3589847002010BD10B5437B59
:1010F00004000A00842B09D98023816BCB582D2151
:101100009847AC23A26B2000D3589847002010BD0D
:10111000F8B5836B05009B6E0C0016009847071E00
:1011200002D00027002E01D13800F8BDAF68B742C9
:101130001BD8287800F080FAA423AA6B2800D35883
:101140009847AB7B002B12D0002F07D0E619002068
:1011500000F038FA20700134B442F8D1288800F049
:1011600065FAAB68DB1BAB60DEE73700E1E7013314
:10117000AB73002000F026FAE6E7C0464A1E534251
:101180005A418023816B70B50400CB58D2013021C5
:101190009847AC23A26B2000D3589847637B842BDD
:1011A00008D984260825A36B442120009B59984721
:1011B0000542F8D1002070BD4A1E53425A41022315
:1011C000816BD20170B51A4304007E33CB583021B5
:1011D0009847AC23A26B2000D3589847637B842B9D
:1011E00008D984260825A36B442120009B599847E1
:1011F0000542F8D1002070BD012370B5C373C36BE5
:1012000004000D00002B3BD08023826B2021D3589B
:1012100001229847AC23A26B2000D3589847637BE8
:10122000842B13D980222A438023A16B2000CB5822
:1012300021219847AC23A26B2000D3589847A823BC
:10124000A26B2000D3589847002070BD0D2DE9D81F
:101250000D4AAB00D3589F468922E5E78122E3E798
:101260008C22E1E78222DFE78422DDE78622DBE7CA
:101270008722D9E78822D7E78B22D5E78A22D3E7CE
:1012800001204042E1E7C046188E021070B51E00F2
:10129000037C04000D0093420AD08023816BCB585D
:1012A000027420219847AC23A26B2000D3589847A2
:1012B000637CAB4216D0637B6574842B06D80D2DFE
:1012C00004D8184AAB00D3589F4601258023A26B4F
:1012D0002000D35821212A009847AC23A26B20007C
:1012E000D35898478023A26B01212000D3583200A5
:1012F0009847A823A26B2000D3589847002070BDC0
:101300000925E3E70C25E1E70225DFE70425DDE712
:101310000625DBE70725D9E70825D7E70B25D5E71D
:101320000A25D3E7508E0210F8B5037C04000D00A7
:1013300093420DD08027AC26836B02742021DB59A9
:101340009847A36B20009B599847637B842B20D838
:10135000637CAB4216D0637B6574842B06D80D2D5D
:1013600004D81B4AAB00D3589F4601258023A26BAB
:101370002000D35821212A009847AC23A26B2000DB
:10138000D3589847A823A26B2000D3589847002031
:10139000F8BDA36B65742000DB592A002121984712
:1013A000A36B20009B599847D2E70925DEE70C255F
:1013B000DCE70225DAE70425D8E70625D6E7072586
:1013C000D4E70825D2E70B25D0E70A25CEE7C046AB
:1013D000888E02108423826B10B5D35804004021FC
:1013E0009847AC23A26B6073D35820009847637B67
:1013F0007F33DBB2062B1CD80F4A9B00D3589F4685
:101400000E4B0F4A1A600F4A0F4B13602000143026
:1014100016CB16C016CB16C016CB16C010BD094A87
:101420000A4B5360F2E7074B5B68EFE7054B9B689D
:10143000ECE7044B1B68E9E7C08E0210081200209D
:101440000CA60110E03903209C1100207811002027
:101450008023826B70B504000721D358402298473F
:10146000AC23A26B2000D35898472000FFF7B2FFAF
:10147000637B7D33DBB2012B02D8224B2362A36254
:101480008426A36B41219B59200098473F23442287
:10149000AC250340A354A36B20005B599847A36B72
:1014A00042219B59200098470F2345220340A35413
:1014B000A36B20005B599847A36B43219B592000E5
:1014C00098471F2346220340A354A36B20005B5977
:1014D0009847A36B49219B59200098474723E05424
:1014E000A36B20005B5998473223A16BE25C4E331B
:1014F0002000CB580A219847A36B20005B599847DE
:10150000002070BDFFFF000010B5836B1B6898477B
:1015100010BDC04610B5836B5B68984710BDC046D0
:1015200010B5836B9B68984710BDC04610B5836BA0
:10153000DB6A984710BDC04610B5836B1B6B98479C
:1015400010BDC04610B5836B1B6D984710BDC046DB
:1015500010B5836B5B6F984710BDC04610B5836BA9
:101560009B6D984710BDC04670B50D000E4B0F4ADD
:10157000EEB21A600E4A04005A600E4A9A6000F0F9
:1015800033F8300000F046F8300000F055F8002342
:101590006373E381084B20002382084B2560A3631B
:1015A000074BA36470BDC046E03903200812002039
:1015B000E4110020C011002004110000DC8E021094
:1015C0002C12002010B584B06B460F246C44D91D3A
:1015D000087001232200034818F026FF207804B089
:1015E00010BDC0460000044010B50849084806F088
:1015F000E5FC01210C2000F07BF901210B2000F01B
:1016000077F901210A2000F073F910BD001BB70023
:101610000000044010B5040000F084F90123D0223A
:10162000A340120600205362536110BD0123D02253
:1016300083401206536170470123D0228340120673
:101640009361704710B5194C1949200006F0B6FC9B
:101650000222184963680A6021681340053251402C
:10166000C8320A40144904200A60144A0121136058
:1016700000F03EF90121072000F03AF9012106208F
:1016800000F036F9152000F04DF9D024802324060F
:101690009B036362052000F045F920231420636258
:1016A00000F040F980235B03636210BD00C003407B
:1016B00000093D0004F0034000D0034004E0034073
:1016C000D02380221B069203002801D05A61704764
:1016D0009A61FCE770B58023D024202524069B0363
:1016E000A5610A0063610100024818F08DFEA56142
:1016F00070BDC04600C0034030B583B06A462C239D
:10170000D024D3718023202524069B03A561A361E7
:101710006B460122D91D034818F076FE656103B0BF
:1017200030BDC04600C00340F0B54E46DE465746C9
:101730004546E0B5D02485B08027202501932A2393
:10174000914602AA2406D61DBF03337083468A46FB
:10175000A56131000122A761324818F055FE002230
:101760006561904632703100A561013267612D4894
:1017700018F04AFE5A46A561310032702948A56129
:101780000122676118F040FE4246A56131003270C7
:101790002448A5610132676118F036FE5246A56102
:1017A000310032701F48A5610122676118F02CFEDC
:1017B0002B23A561310033700122A5611948A7616F
:1017C00018F022FE42466561310032701548A5616D
:1017D0000132676118F018FE4A46A5613100327087
:1017E0001048A5610122676118F00EFE4246A5610E
:1017F000310032700B48A5610132676118F004FEB8
:10180000019BA561012233703100A5610548676124
:1018100018F0FAFDA56105B0F0BCBB46B246A9467A
:10182000A046F0BD00C00340F0B5C646D0248025D8
:1018300000B524066D0382B08046A561642000F0E7
:101840007BFE6561C82000F077FE6B468027DE1DB9
:1018500020250123BF03337031000122A5612348F5
:10186000A76118F0D1FDC820656100F065FE112365
:10187000310033700122A5611C48A76118F0C4FD36
:10188000C820656100F058FE3A2331003370012210
:10189000A5611648A76118F0B7FD434665613100A0
:1018A00033700122A5611148676118F0ADFD342342
:1018B000A561310033700122A5610C48A76118F0C1
:1018C000A3FDC820656100F037FE29230122337093
:1018D0003100A5610548A76118F096FDC820656133
:1018E00000F02AFE02B080BCB846F0BD00C0034044
:1018F000094A83009A1810B5146840225440803277
:101900002240064CC000A44663441A60044B9C4627
:101910006044416010BDC04604C0014004D0014095
:10192000004001400123D02283401206936293615C
:10193000094A83009A1811684022514080320A40B7
:101940000649C0008C4663441A60054B9C4605233B
:10195000604443607047C04604C0014004D0014069
:10196000004001408023DB051868000F7047C04627
:101970000FB400B5084883B003F0BCFE049B002BF5
:1019800007D005A91800019103F056FC034803F0A5
:10199000B1FE012003F068FC20A60110ACCB0110C1
:1019A00070B5EFF3108C72B60D4D2B68002BFCD088
:1019B000BFF35F8F0724CB08C618C05C01230C401F
:1019C000A3401C000440034207D118433070BFF30A
:1019D0005F8F2C608CF3108870BD1000FFF7C8FF7C
:1019E0002C0100D0F8B54746CE46884680B5EFF3C7
:1019F000108C72B61C4D2C68002CFCD0BFF35F8F8E
:101A00009A4222D807210126894602E001329342F8
:101A100018D34D4637001540AF40D4080119045D76
:101A20002742F3D110003C430C70BFF35F8F0022BC
:101A30000D4B1A608CF3108800280EDBC0BCB94631
:101A4000B046F8BD01204042EFE7BFF35F8F0023AF
:101A50002B608CF31088012040424346002BEDD0D0
:101A60000898FFF785FFC0462C0100D0044A107883
:101A7000431CDBB2172B00D9102313707047C046EC
:101A80003112002010B5064B064C82B001000093C5
:101A900018221F232000FFF7A5FF02B010BDC0468B
:101AA00030A60110D44703200021044B044ABFF3A1
:101AB0005F8F02C39342FAD17047C046000100D045
:101AC000800100D0054B064A1360064A136053603C
:101AD0009360D3601361536193617047808080800D
:101AE00000E400E004E400E01F2318401E3B8340B4
:101AF000002905D0C021044A4900535013607047A3
:101B0000802201498B50FAE700E100E00122824087
:101B1000034B1B6813405A1E9341D8B27047C0460E
:101B200000E100E001238340014A13607047C04692
:101B300000E200E0064B10309B688000C358054A65
:101B400000209B1A2F229A424041C0B27047C046E3
:101B500000ED00E03412002070B50D00EFF31086A8
:101B600072B60F4A1368002BFCD0BFF35F8F0D4B8A
:101B700010309B6884001B590B4A934203D09D424E
:101B800001D001F033F8074B9B681D51BFF35F8F05
:101B9000BFF35F8F0022024B1A6086F3108870BD7E
:101BA000240100D000ED00E0C1010010F0B557465F
:101BB0004E46DE464546E0B585B00600009117006A
:101BC000EFF3108B72B66A4A1368002BFCD0BFF398
:101BD0005F8F0025674B5D579A46002D00DAA9E01C
:101BE0006B00654C01935B199B009846A146C1446C
:101BF0004B4652469B7910361370604BB6009B687B
:101C000099590B1B2F2B33D95D4B994200D0ACE077
:101C1000019B42469C465B4B6544AD0063535A4B67
:101C20000232A218043B9B1A1B05584A5B0D65192A
:101C300013436B80564B0121AB80FF23AB71009B9C
:101C4000EF71AB604B460B4319004C4B9B689951AD
:101C5000BFF35F8FBFF35F8F0022454B1A608BF39A
:101C6000108805B0F0BCBB46B246A946A046F0BD00
:101C700001200A008243D3798C46BB4231D84546C5
:101C8000130044491B1B5B415943090D3D4B6353F2
:101C90003D4B02356519043B5B1B1B053B4D5B0D42
:101CA0002B43AA464D466B800425AC465546E0447E
:101CB000131F44441B1B1B055B0D1D434B469971B1
:101CC00000999D8099604946DF71334B0143136051
:101CD000BBE75800C01880002018C179B9422FD93D
:101CE00002000623D356002BF3DA02932B4B6146F6
:101CF0000393131D9A4604235B429C46E1445046DD
:101D00004B461B1A1B055B0D9C46204B9571984654
:101D10006346404603439380019B5A199200039BFC
:101D2000A418A380029B1C4AA371009B2260E77148
:101D3000A3608AE700F05AFF002553465D574FE73E
:101D4000908802934005131D9A46031561469C46F0
:101D50004046D444634604302018181AE023000596
:101D6000400D1B0218430390C5E700F03FFF4FE70B
:101D7000240100D093E103203412002000ED00E0A4
:101D8000C101001000A1FFFF6412002000E0FFFF6E
:101D900001BDFFFFAAAA00000148804701BD000065
:101DA00070B501240443EFF30581EFF3108C72B694
:101DB000214A1368002BFCD0BFF35F8F1F4B050037
:101DC0001F4AED1A6D416A43120D1E4D8900AE681F
:101DD00052B27658A6421CD00621595691421CD0C8
:101DE00012215956914222D01E215956914220D09B
:101DF0002A2159560324914210D0134B19781A7096
:101E00008171BFF35F8F00220B4B1A608CF3108837
:101E100070BDAB680D4C5C50EFE700246100091900
:101E200089005B18FF21997109499980E5E7012430
:101E3000F4E70224F2E7C046240100D03412002067
:101E4000AAAA000000ED00E093E10320C101001008
:101E500001BDFFFF10B5084B084C82B00100009394
:101E6000002205232000FFF7BDFD002801DB1F2312
:101E7000181A02B010BDC0464CA6011097E103200D
:101E8000024B9C4661448900016070474000003469
:101E900070B5114C114DAC420FD2FF262368002BB8
:101EA0000CD0FFF7E3FD01002000FFF7E9FFA6805B
:101EB000BFF35F8F0834AC42F0D370BDFFF7D6FD9F
:101EC00001002000FFF7DCFF2671BFF35F8F0834AD
:101ED000AC42E3D3F1E7C046CC190020DC19002066
:101EE00010B50400FFF7C2FD01002000FFF7C8FF96
:101EF000FF232371BFF35F8F10BDC04610B50400F0
:101F00000120FFF7BFFD034BC3189B002360BFF305
:101F10005F8F10BD40000034034B9C466144890034
:101F20000160BFF35F8F7047400000340A4B1968AF
:101F3000EFF3108072B60A68002AFCD0BFF35F8FFF
:101F40001B68BFF35F8F00221A6080F3108840BFC8
:101F5000002000217047C04670D90320F0B5DE464E
:101F600057464E464546E0B587B0EFF3058303225A
:101F700001251A40954091008846A946B34B03922B
:101F80005C58B34B1D60B34B04934B46B24843635C
:101F90000823E55E002D37DAA3881BB2002B00DB97
:101FA000ADE0A379002B00D0EEE00823E05E00282E
:101FB00020DB430062691B18DB00D3189E68DD68D4
:101FC000731C00D111E1A44801004144826A0B69ED
:101FD000B71A9B1A9F4215D30123026A03988340C4
:101FE0001A420FD09C4800F0B5FB8D4202DCCCD1E8
:101FF0008642CAD940BF07B0F0BCBB46B246A9462C
:10200000A046F0BD0E61EDE762696B0092465B1978
:10201000DB009A4453469E68DF6800F09BFB8F42CA
:10202000BADC00D103E1002F00DAE8E05246534663
:1020300052691B699346049A934200D1D9E05246F3
:102040000821605E5288000459461043984700906A
:1020500001910099019A0B001000134300D1CEE0CA
:1020600013000A00B61A9F41002806DB7A4800F0E8
:1020700071FB009E019F36184F4153469E60DF6002
:1020800000229A5E002A00DA86E7530099186069F8
:10209000C900411802938B68C9689B46B94200DDAC
:1020A0007AE702D1B34200D976E708239C46A444DC
:1020B000059565462281A446029B2C0006E053004C
:1020C0009918C90041188D68C968AB469B18DB0098
:1020D000C318B94206DC00D1B3E01C000023E25E65
:1020E000002AECDA230064469C4653461A80634675
:1020F000059D1D80A3881BB2002B00DA51E72269E1
:10210000EFF3108172B61368002BFCD0BFF35F8F22
:102110000123A7885B42A3803FB22369BFF35F8F8F
:1021200000221A6081F31088002F00DA39E72300BB
:10213000083322009A4666697B00DB19DB00F3183E
:10214000996850468C460824115FDD68002910DB31
:10215000029306E0AB4244D00023E15E2000002958
:1021600006DB4C006418E4003419E368AB42F1DD8F
:10217000029B078000201F5E1980002FDCDA14000C
:10218000A379002B00D110E70023A37126000823B8
:10219000E15E08364B1C00D12CE70800A2466569B9
:1021A00002E03E004B1C1AD04B005B18DB00EF181E
:1021B0000A008C46E95E7B881BB2002BF1DA012312
:1021C0005B42DC17BB60FC60824205D05346318025
:1021D0001B893B8053461A8160464B1CE4D1544610
:1021E000E5E6A3686345B7D9C2E76B1C00D0EAE611
:1021F000F8E65B4658461B69984700281BD15346B2
:102200001B8822692381EFF3108372B611680029BD
:10221000FCD0BFF35F8F514662880A8022696580D7
:10222000BFF35F8F0021116083F31088B4E686420C
:1022300000D8F8E6B0E65B461A685B680092019346
:1022400007E7B34500D848E74CE7C04654D8032019
:102250003C7005405D1F00100040054070B52E4CDD
:102260002569002D04D00A212C48FFF709FE70BD16
:102270002B4E0321300000F063FAE660FFF7F6FB17
:10228000284B03229C46D02322701B061B68012189
:102290006370254B6044A3600F23800020610220FF
:1022A000638063694942A1801980023119864731F0
:1022B0001D83585218315A5275325C39995218326E
:1022C0000131995218320131995218320131995223
:1022D000083518329D5202311832995218320131A4
:1022E00099521832013199521832013199521832EB
:1022F000013199521832013199520C4B0C49DC6072
:1023000001303562FFF728FC01210320FFF7ECFBC9
:10231000084B1D60A7E7C0467C12002070D903203F
:102320000040054040000034FFFF100054D8032057
:102330005D1F001038600540004870477C12002087
:10234000F8B51F0008AB1B7804001600002B08D15D
:1023500000F008FA32003B00121A8B41002B00DA21
:1023600052E02269EFF3108072B61368002BFCD0A4
:10237000BFF35F8F0223E15E63694A005218D20007
:102380009B182269002936DB1D886580BFF35F8FAB
:102390000025156080F31088069A9E60DF601A6140
:1023A000079A5A615A8801325204520C101C002AB2
:1023B0001FD082B25880080410432669EFF31087BB
:1023C00072B63268002AFCD0BFF35F8FA2881A80F1
:1023D000A1802369BFF35F8F00221A6087F3108802
:1023E0000A4923788C4601329A40E36863441A60B4
:1023F000F8BD0120DDE7BFF35F8F0023136080F39A
:10240000108801204042F3E70020F1E73C20000063
:1024100070B501000469EFF3108C72B620680028D3
:10242000FCD0BFF35F8F02200D5E4C69680040193D
:10243000C00024180869002D36DB26884E80BFF3C3
:102440005F8F002606608CF31088E3606388049831
:10245000013320615B0405985B0CA26060611A1C6B
:10246000002B1FD093B22804628018430A69EFF34F
:10247000108C72B61368002BFCD0BFF35F8F8B8873
:1024800023808D800B69BFF35F8F00221A608CF36D
:1024900010880B7801329A40CB6808498C46634417
:1024A0001A6070BD0122DDE7BFF35F8F0023036078
:1024B0008CF3108801204042F3E7C0463C20000026
:1024C00010B543890A1493421ADD53009B184269E0
:1024D000DB00D3180469EFF3108C72B62268002A6F
:1024E000FCD0BFF35F8F5A88090494B2090C8A426A
:1024F00008D00369BFF35F8F00221A608CF3108845
:10250000002010BD8022120214435C800123026966
:102510008371BFF35F8F002111608CF31088044931
:1025200002788C469340C268012062441360E8E759
:102530003C20000040787047F0B5C64600B582B038
:10254000040000F00FF9FA2206000F00200000231B
:102550000021920001F0ACF88019794104000D1EB1
:1025600002DA01242E4D644206267642F717361908
:102570006F41AF4214D811D000F0F4F832003B00A4
:10258000121A8B41002B15DC002B46D020002900AD
:1025900000F026F902B080BCB846F0BDA642EBD9E7
:1025A0000026002700F0DEF832003B00121A8B41B3
:1025B000002BE9DD00F0D6F832003B00121A8B4107
:1025C000002B0ADB00230193164B320000931648C0
:1025D0003B00FFF71DFF0130D8D000233900B04683
:1025E0009C46124A1248536A994204D8966A464554
:1025F000CCD29942CAD10668EFF3108772B633681D
:10260000002BFCD0BFF35F8F0368BFF35F8F66467C
:102610001E6087F3108820BFE5E7002AB6D0C9E71F
:10262000FFFFFF7F2D1F00107C120020004005409F
:1026300070D90320F0B557464E46DE464546E0B514
:1026400006000F0085B0EFF3058399468B46002BFB
:1026500012D0384900204B6ABB4206D38A6ADB1B82
:10266000591E8B41B2424041184305B0F0BCBB46F5
:10267000B246A946A046F0BD2F4B9A46DB68984665
:1026800053461B784046039300F064F84246039B90
:10269000040004339B009B580D001B1A39003000C6
:1026A000001BA941894510DC0DD020BF214A002024
:1026B000536A5B45D9D3926ADB1B591E8B41B242E8
:1026C00040411843D1E78342EFD900F04BF8320084
:1026D0003B00121A8B41002B1ADB00230193174B8E
:1026E0003200009350463B00FFF792FE011E0FDDC3
:1026F000104B5A6A5A451BD39B6AB34216D35046B5
:10270000FFF7DEFE0B4A0020536A5B45ADD3D2E7EC
:10271000084A0020536A5B45A7D30020926ADB1B5E
:10272000B24240415A1E934118439EE75A45E6D1B2
:1027300020BFE4E7004005407C1200202D1F001060
:1027400010B5024A0248FFF72BF910BD68A6011028
:10275000D84703200300416A0A00986A596A8A42EE
:10276000FAD17047034B596A0A00986A596A914234
:10277000FAD170470040054070B504000D00174ABB
:10278000536A1900966A536A8B42FAD130001900D5
:1027900024184D41AB4216D813D0104B2A005B6A67
:1027A0009D4203D90D494B6A9342FCD3934207D112
:1027B0000A4A02E0516A994202D1916AA142F9D3D0
:1027C00070BDA642E9D9054B5B6A1C005A1CEFD0CC
:1027D000012201246442E5175242E3E7004005402C
:1027E000064A536A9942FCD807D1044B02E05A6A60
:1027F000914202D19A6A9042F9D870470040054050
:10280000F8B5DE464E4657464546E0B58B460500D0
:102810000A991800160000F04FFB0A9B6C001F027B
:10282000324B64199C46A4006444636881469F420D
:1028300000D967602B1FDBB29846012B30D9C0232B
:1028400080229B01E31812011A60294BAD005959EF
:102850009A4600291BD17301E026226853401E408E
:10286000802342465B01E3181E60012A30D9802391
:1028700080229B01E31812011A6053464A466760A2
:102880005A51F0BCBB46B246A946A046F8BD5869AD
:1028900000F012FB013043001B18033BFDD2DAE7C6
:1028A0005B46012BCBD1C02303229B01E3181A60A6
:1028B000023AA3681A42FCD07301E0262268AD00F8
:1028C00053401E4080230A4A5B019246E3181E6073
:1028D0005A462168514003220A401A6001225B4691
:1028E0009A40A3681A42FCD0C1E7C046008000406D
:1028F000DC470320F0B546464F46D646C0B51F001C
:10290000344B44009C462418A40064446368884601
:102910001600FF2B02D880235B006360031FDBB22D
:102920009A46012B30D9C02380229B01E318120163
:102930001A60294B85005959994600291BD173010A
:10294000E026226853401E40802352465B01E31874
:102950001E60012A30D9802380229B01E3181201D6
:102960001A6080235B0063604B465F51E0BCBA464F
:10297000B146A846F0BD586900F09EFA0130430008
:102980001B18033BFDD2DAE74346012BCBD1C02312
:1029900003229B01E3181A60023AA3681A42FCD092
:1029A0007301E0262268850053401E4080230A4AB6
:1029B0005B019146E3181E604246216851400322A4
:1029C0000A401A60012342469340A2681342FCD099
:1029D000C1E7C04600800040DC470320014B800077
:1029E000C0587047DC470320F8B5040021481E009A
:1029F00017000D0000F060FA0100380000F05CFAEA
:102A0000069B36041B031E432368002B20DB1A4B56
:102A10001A49E3185A1E93418022920194465B4260
:102A20001B0B174A1B0363441360164A13601F00F5
:102A30000A689743FBD1144B2560E2182123A0605C
:102A400013602368002BFCDA0823E6601360F8BDEE
:102A50003F2322681340AB42D9D1A3681B051B0D4D
:102A60008342D4D1EE22E368D2021340B342CED1E6
:102A7000EDE7C046001BB7000040FDBF08C00040A6
:102A800000E0004000F000400430000010B5802459
:102A90001C4BE4051C6000281AD001231A4C184373
:102AA0001A4BDC611A4C44401C62596298628021C6
:102AB000144BC9051960174817490860E021C9047B
:102AC0001960002A07D18022144B12061A6010BD2B
:102AD0000E4BD861EBE753019B1A9B009A18802399
:102AE00012015B049A4209D213000D490B60074B97
:102AF0005A608022094BD2051A60E8E7094B1A0098
:102B0000F3E7C04600B00540D3C007B000800540E1
:102B10002D3FF84FFCFF01000820014000A00540B8
:102B200040D80320FFFFFF008023024A9B000B4395
:102B3000D362704700800540002310B50100988AD9
:102B40001B8B984710BDC046162310B5010018888E
:102B500002331B88984710BDF8B54746CE4680B56E
:102B60000F1E18D0142399460433040000250126B3
:102B700098464B461888434621681B88984701C4ED
:102B8000431E984101350640AF42F2D13000C0BC2F
:102B9000B946B046F8BD0126F8E7C046002370B537
:102BA00004000D00988A05491B8B984703000020FC
:102BB000002C01DB0130A04029009847554200005D
:102BC000AA23064A1B0113608D235B00D3600449CE
:102BD000044B19605368002BFCDA70470040024038
:102BE00000B0FA00006002407047C04610B50148CE
:102BF000FEF7BEFE8CA6011070B5074D074EB5421C
:102C000009D20024013E761BB60808CD9847230060
:102C10000134B342F9D170BD88A40110C4A40110DD
:102C200070B5074D074EB54209D20024013E761B10
:102C3000B60808CD984723000134B342F9D170BDDE
:102C4000BCA40110C4A40110054B064A06491A6031
:102C5000064A074B1A6010000B689843FBD1704777
:102C600000E00040BFCDFBFE08C00040FE7F3C00FE
:102C700000F00040044BDB6C002B03D18022034B9F
:102C8000D2021A607047C046000011504C2011500B
:102C9000044A054B1A60054A1368DB018033FBD1F7
:102CA0007047C046FFFFFF0100F0004008C0004031
:102CB0004022034B9A675A671A67DA667047C04624
:102CC00000F0014010B5FEF7EFFE10BDF8B5274942
:102CD000274C284D641AA6103200302E00D930221D
:102CE0002800920000F020FEBC2C3BD830202F237F
:102CF0002C196407204A801BE40F9B1B052B16D957
:102D00003700002C02D0B300771CEA50001B3319A7
:102D10009B004108EB18C900C9181A605A600833B3
:102D20009942FAD1012303421CD09843C619B3003B
:102D3000EA50731C2F2E15D09B00EA50B31C2E2E88
:102D400010D09B00EA50F31C2D2E0BD09B00EA50B4
:102D5000331D2C2E06D09B00EA50731D2B2E01D064
:102D60009B00EA50054B9D60F8BDC0460001001075
:102D7000C001001000000020C101001000ED00E0C3
:102D8000002310B5294C82B0A367FFF719FF012279
:102D9000274B1A60636C012BFCD10322254B1A6070
:102DA000224A936B012BFCD1013300930121224A6B
:102DB00022480433FFF718FE052301210093204A1F
:102DC0002048FFF711FE0022022104201E4BFFF7CE
:102DD00091FD0022012105201C4BFFF78BFD0022F5
:102DE000002107201A4BFFF785FD00220021082053
:102DF000174BFFF77FFD8023DB00009300220021AB
:102E00000920134BFFF7FCFC0022104B0021062089
:102E1000FFF770FD0420FFF7E1FD0E4900F04CF8CC
:102E200001000020FFF780FE02B010BD00800040CE
:102E30003CB0004030B00040002F68590080024094
:102E4000008C864700C00240001BB7004059730742
:102E5000006CDC0240420F0001480421014B18477E
:102E6000A0120020592B0010124A936F9B0815D214
:102E70009066D166002905D0FFE7FFE7FFE7516FB5
:102E8000106F704704B580210906C2175140002811
:102E900000D0C84317F0A0FA002104BDF0B5146EAD
:102EA000556E576F166FFFF7E3FF14665566576749
:102EB0001667F0BD000000D0114A936F9B0813D233
:102EC00010665166002905D0FFE7FFE7FFE7516F65
:102ED000106F704704B5002801D00020C04317F0E0
:102EE0007BFA002104BDC046F0B5146E556E576FD5
:102EF000166FFFF7E5FF1466556657671667F0BD56
:102F0000000000D094464A4A926F9208624601D26D
:102F100028E0C046F0B5464E346E756E776F366F5A
:102F200000F020F89446424A1466556657671667C3
:102F30006246F0BD94463E4A926F9208624601D2C4
:102F400054E0C046F0B53A4E346E756E776F366F0A
:102F500000F04CF89446364A146655665767166773
:102F60006246F0BD002B24DB11D000293EDA00B50B
:102F7000C943404200D1013100F038F8C943404212
:102F800000D10131DB43524200D1013300BD002AA0
:102F9000EBD1002801D1002905D00020C90FC907B5
:102FA00001D1C043410800B517F00EFA00220023FA
:102FB00000BD00B500290ADBDB43524200D10133DA
:102FC00000F014F8C943404200D1013100BDC943AB
:102FD000404200D10131DB43524200D1013300F0C5
:102FE00005F8DB43524200D1013300BD002923D153
:102FF000002B18D1002A0CD0BC460D4F38667A66DB
:1030000000210023FFE7FFE7FFE77A6F386F67468D
:103010007047002801D00748010000B517F0D4F927
:103020000022002300BD02000B0000200021704799
:10303000000000D0FFFFFFFF002B00D0BFE0130C0B
:1030400028D1002AE7D080B4114F39667A66FFE7AD
:10305000FFE730B4040C7B6F396F1B0423433B66DE
:103060007A66FFE7FFE7FFE7C04684B27B6F3D6FFC
:103070001B0423433B667A66FFE7FFE7C046002355
:103080002C042D0C7A6F386F00196941B0BC704761
:10309000000000D0F0B594460025140E01D11202B4
:1030A0000835140F01D112010435940F01D192009B
:1030B0000235D40F01D152000135D40B0134254F14
:1030C0007C66254C3C660E0C93B2FFE7FFE7FFE7FA
:1030D0003C6F6643360C7703BE467343DF0B5B04DD
:1030E000C01AB941130C7343DB18C91ACE086643E2
:1030F000360CB64493B273431F0F1B01C01AB9417B
:10310000130C73431F0B1B05C01AB941860D8F02A8
:103110003E436643360C092D24DB520A7243801A63
:103120007703460A6643360C16235B1BDE40DF40FE
:10313000BF1964466643821B70460435063301009E
:10314000D940A840C01900D30131A24206D20023C1
:10315000F0BD0000000000D0FFFFFFFF121B013098
:10316000F3D3F1E709277F1BFE406446A2B2724306
:10317000801A00D20139220C7243130C1204821AF5
:1031800099410B007046043513370100F940A840FF
:10319000801900D30131002B02D1A2420AD2F0BD26
:1031A000013000D30131121BFAD2013BF8D1A24207
:1031B00000D2F0BD013000D30131121BF7E7F0B5AA
:1031C0001C0C00D080E00CB400251C0A04D11B02AA
:1031D000160E3343120208351C0B04D11B01160FC7
:1031E0003343120104359C0B04D19B00960F3343EB
:1031F00092000235DC0B02D192185B4101351C00B4
:10320000971864410134464F7C66464C3C660E0C70
:10321000FFE7FFE7FFE7C0463C6F6643360C7703E6
:10322000BE4697B27743C01B00D20139C01B00D203
:1032300001399FB27743C91BC91B170C77437E0422
:10324000FF0B801BB941CE086643360C0C2D33DBD7
:10325000B644120B1F053A431B0B97B27743C01BB2
:1032600000D201399FB27743C91B170C77433E0444
:103270003F0C801BB941860D8F023E4366432927D0
:103280007F1BFE400C3D7746AF40BF1930BCA2B259
:10329000ABB272437343801A9941220C7243130CF0
:1032A0001204801A994102000B000137001BA9414A
:1032B000F9D2781E0021F0BD0C277F1BFE40774617
:1032C0007F0BAF40FF19E0E700245D1C07D0144FCF
:1032D0007D663966FFE7FFE7FFE7FFE73C6F95B2E2
:1032E0009EB265436643401BB141150C1E0C6543FD
:1032F000664336042F0C3E432D04401BB1419942D6
:1033000004D202000B0020000021F0BD01D1904248
:10331000F7D3801A994101349942F2D3F6E70000BD
:10332000000000D0FFFFFFFF48404140484018B474
:10333000134B5B68019308BD18B4114B1B680193D4
:1033400008BD94460F4A926F920805D2624618B49F
:103350000B4BDB68019308BD0A4AF0B5146E556E3D
:10336000576F166F6246FFF7F2FF064A14665566FE
:1033700057671667F0BD18B4014B9B68019308BDF1
:10338000B83B0320000000D0FFB550404240504001
:1033900059404B40594000E0FFB5154F4C00640DBB
:1033A00003D0BC4204D10C0314D80020090D090538
:1033B0005C00640D03D0BC4204D11C030AD8002277
:1033C0001B0D1B0501264B4009D44B4003D58B42F6
:1033D00000D18242FFBD9942FCD19042FFBD0B4318
:1033E000DB1803431343F5D0C9434918FFBD000060
:1033F000FF07000000B5FFF7CFFF01D0002000BDA0
:10340000012000BD00B5FFF7C7FF804100BDC046E9
:1034100000B5FFF7C1FF01D9002000BD012000BDAC
:1034200000B5FFF7B1FF01D9002000BD012000BDAC
:1034300000B5FFF7A9FF804100BD012040054A000B
:10344000121804D85A00121801D800207047012021
:10345000704700000021002805D17047C11748407F
:10346000401AFAD0C90713B5064B1B6898470CBC25
:10347000441CA2401005120B0349091B09051943FE
:10348000114310BD6CD803201F04000010B54C0080
:10349000620D8023D218DB00D21A5B057E2A10DD74
:1034A0009E3A13DACC170903490819435242D14016
:1034B000640001341532202A05DAD0400843604305
:1034C00010BD002010BD0846604310BDC80FC018D5
:1034D000013810BD18B4024B5B6A019308BD0000AF
:1034E000B83B0320C94211D300B549004908002266
:1034F00000F014F8002904D4002240428A41114609
:1035000000BD80210906002000BD000018B4024B58
:10351000DB6E019308BD0000B83B032018B4024BDA
:103520009B6F019308BD0000B83B032018B4024B09
:10353000DB6F019308BD0000B83B032010B50148C4
:10354000FEF716FA98A60110132370B51D78012D09
:1035500019D014DD1D48FFF7F7FA06001C48FFF7E5
:10356000F3FA1C4C80223100200000F0DDF9022D1E
:1035700006D01948FFF7E0FA184B186070BD154CDB
:10358000174BA364F5E7174B124C23606360A360ED
:10359000E36023616361A361E36123626362A36209
:1035A000E36223636363A363E36323646364A364E9
:1035B000E36423656365A365E36523666366A366C9
:1035C000E36623676367A367E367D9E753440000B3
:1035D00053460000B83B03204C3300006CD8032056
:1035E000853600103D350010244A4B0094465B0D93
:1035F0006344F0B504000D005A1C21DB5A1C35D081
:10360000342B1CDA3326F61A3700203F1CD4012154
:10361000B9400B000121B1400A0012196B41002F83
:103620001EDB0224BC4021000224B440200016000E
:10363000002544428D4126402B4030001900F0BD4A
:10364000CB0F0020D907FAE720210120891BC840B1
:103650000121B14003000A0012196B41002FE0DA8A
:1036600020240225A41BE5402900DDE7CB0F044AF6
:10367000DB071A4300201100E1E7C04601FCFFFF11
:103680000000F03F07B5604601880A0A0230DF2AD1
:10369000FAD1C9B2820804D30288408800041043DA
:1036A00000E00068014A5050039007BDB83B03207A
:1036B00051434343C9188C46110C83B24B4310B499
:1036C000040C614392B280B2504362431C041B0C51
:1036D000001910BC59411304120CC0185141614427
:1036E000704700004840414048400E4B5B68184717
:1036F0000C4B1B6818470C4A936F9B0802D2094B6E
:10370000DB681847F0B5146E556E576F166FFFF7EC
:10371000F6FF054A1466556657671667F0BD014BFC
:103720009B68184770D80320000000D007B54840B8
:103730004140484001E0C04607B54200120E03D0A8
:10374000FF2A03D1420218D8C00DC0054A00120E4C
:1037500003D0FF2A03D14A020FD8C90DC90501229F
:10376000414005D4414001D5814207BD884207BD93
:103770000143491801D0C043001807BD00B5FFF749
:10378000DBFF804100BDC04600B5FFF7D5FF01D982
:10379000002000BD012000BD00B5FFF7C7FF01D923
:1037A000002000BD012000BD00B5FFF7BFFF804134
:1037B00000BD0000C10FC90700D54042002817D046
:1037C000F44603B40B4B1B68984706BC81409E38F7
:1037D0004042803107D20B0607D04900490AC00594
:1037E0001043084360470130F8E7490A8902F5E7CA
:1037F000704700006CD8032041000A0E80231B068E
:103800007E2A0BDD9E3A0BDAC117400240081843AE
:103810005242D04049000131484370470020704770
:10382000C00FC01801387047C0420DD300B540002A
:103830004008002100F00EF8002801D4404200BDED
:103840008020000600BD0000014BDB691847000026
:1038500070D80320014B5B6A1847000070D8032022
:10386000014BDB6F1847000070D8032010B50148EA
:10387000FEF77EF87CA80110132310B510481C78C1
:10388000FFF762F90100012C0AD003DD80220D4808
:1038900000F04AF80C48FFF74FF90C4B186010BDC8
:1038A000084C5422200000F03FF8220008498032E2
:1038B0002368002B00D1216004349442F8D1E9E759
:1038C0005346000070D803204C3300006CD803200E
:1038D0006D38001043001B0E7F3B5A1C0DDB5A1C39
:1038E0000ED0172B08DA1622D21A0123934018188B
:1038F000022393405B4218407047C00FC007FBE7AC
:10390000C00FC307FE2080051843F5E701480421D6
:10391000014B1847B0120020592B0010014B1B68B7
:1039200018470000B0120020014B5B6818470000E8
:10393000B01200207047C046F8B55746DE464E46E6
:103940004546E0B599460A9B07009A460D9B884676
:1039500093460B9C9B073BD10C9B9C423DD21E1B6C
:103960000B9415000C005E442A004B4601352100E3
:103970002020B847B542F7D1A0460B9C002C20D0A0
:10398000454636195346321B013C185D29004B460B
:10399000B847002CF6D12B00350098460D9B9B07AD
:1039A0000FD55B46EC1A0C9BA3420AD946469846B3
:1039B0002A004B46310020200134B84701354445E8
:1039C000F6D32800F0BCBB46B246A946A046F8BDD7
:1039D00016001500002CD3D1E0E716001500002CCE
:1039E000CED1EEE7F0B54546DE4657464E46E0B549
:1039F00085B09C4610AB1B78149F934698460F9C4D
:103A0000129E139DBB074CD4002D42D1B44248D224
:103A100001233B4099460E9B013B9A46302304E02C
:103A2000524601341355A64201D9202CF8D14B46F9
:103A3000002B00D183E00E9B013B99463023A54229
:103A400005D82EE04A4601341355AC4229D0202C2B
:103A5000F8D1FB060CD57B0554D4A64263D0A54211
:103A600061D0119B102B50D0022B57D0202C32D17B
:103A7000202301930E9B5A460093039763460295B9
:103A8000FFF75AFF05B0F0BCBB46B246A946A046B8
:103A9000F0BD01233B40994601233B422AD1B44269
:103AA000B9D3FB061CD57B05DBD4002CD5D1119BEB
:103AB000102B5BD0119B022B6BD0302301240E9A6C
:103AC00013704346002B10D17B073ED52B260E9A50
:103AD000631C1655CDE72300013430260E9AD654C8
:103AE000202CC5D04346002BEED02D260E9A631C09
:103AF0001655BEE74346002B2FD0013DB44200D2FD
:103B000089E798E7119B102BB2D1BB0637D5202C43
:103B1000AED058230E9A13550134A7E7202CA7D016
:103B20002300013407E0631E012CC0D0119A102A33
:103B300031D0022AD1D162260E9AD65496E7FB06DE
:103B4000CED57B0500D488E78BE723003E0790D5D0
:103B500020260E9A013316558BE70C233B405A1E44
:103B60009341ED1AB44200D255E764E7BB060ED488
:103B700078230E9A0224137030235370A1E7202C6F
:103B800000D175E778230E9A135501346EE7582358
:103B9000EFE76033EDE70E9AA61E91464E44BA0653
:103BA00002D55822327098E77822327095E7C046E5
:103BB00010B5002800D110BD01F052FDFBE7C04652
:103BC0000B0010B5002802D049681B68984710BD4B
:103BD000F0B55746DE464E464546E0B595B08346BD
:103BE0000F00924698461E9A1F9B10001900209EB7
:103BF000FFF723FC002800D0EAE11E981F9901225C
:103C0000C54B5242FFF7FEFB002800D014E11E987E
:103C10001F990122C14B5242FFF70AFC002800D035
:103C2000E9E01E981F990022BD4BFFF701FC002818
:103C300000D0C8E01E981F990022BA4BFFF7E2FBA4
:103C4000002800D0BFE01E981F9900220023FFF734
:103C5000D9FB002800D0E4E000230B93229B5B05F6
:103C600000D406260024302307E0172106AA0134D9
:103C700052181355013E202C01D0092EF5D81E985C
:103C80001F99FFF703FCA84BF2009B181A685B68AA
:103C9000050008920993FFF7E1FB02000B001E9854
:103CA0001F99FFF744FB089A099BFFF764FB0690F6
:103CB0000791FFF70FFC8146FFF7CCFB02000B00DA
:103CC00006980799FFF733FB0022984B069007915F
:103CD000FFF7AEFB002800D10DE101239C46E14433
:103CE0004846FFF7B7FB02000B0008980999FFF759
:103CF0008FFB002802D0002399460135002E00D109
:103D0000D9E006954D46B94614E006AA9446172315
:103D10000A216344280001341F19FFF7CDF8303120
:103D2000397028000A21013EFFF7C6F8092D00D896
:103D300017E10500202CE8D14F46069D20240CAE4B
:103D400006AA17239446634499465B46B3460693F6
:103D50000FE04B4628000A210134E618FFF784F8EB
:103D60003031280031700A21FFF77EF8051E00D19E
:103D7000E4E0202CEDD1069B5E469B460323229A6D
:103D80001340012B18D1219B002B15D00B9B002B2E
:103D900000D1FDE0219B013B2193202B0CD9302346
:103DA000219A07E0172006A9013409180B559442FF
:103DB00000D3CCE0202CF5D1229B01940393219BCE
:103DC0000096029322E0229B52460493219B3900E5
:103DD000039358461E9B1F9C0296009301944346F2
:103DE00000F04AF90400200015B0F0BCBB46B24612
:103DF000A946A046F0BD229B5B070FD403224C4B83
:103E000022990192039121990093029143465246CF
:103E100039005846FFF790FD0400E4E70422454BC3
:103E2000EEE71E9A1F9B00200021FFF780FA012376
:103E30001E901F910B9311E7229B54469B0711D1B3
:103E4000219B042B0ED9219B55469C465E46043C83
:103E500064442A004346013539002020B047A5427A
:103E6000F7D1B346344D26002B1F99465B46A34637
:103E70001C003200E87843463900013DA047013676
:103E80004D45F6D123005C469B46229B04349B079C
:103E9000A9D55346219AE31A9A42A4D95E46150041
:103EA0002200434639002020B04753460134E31A2C
:103EB0009D42F5D897E72800FFF7D0FA02000B00E3
:103EC0001E981F99FFF733FA0022184B06900791AE
:103ED000FFF798FA0CAE002800D031E70698079952
:103EE0000022124BFFF7A4FA002800D028E7012394
:103EF00001359D4324E70022069807990B4BFFF7F5
:103F000081FA002800D0F9E64B46002B5CD1012352
:103F10009C46E144F2E6C046FFFFEFFFFFFFEF7F64
:103F200065CDCD4165CDCDC1909102100000E03F3F
:103F3000F8A60110F0A6011000A70110069B5E462E
:103F40009B460323229A1340012B00D181E0202CB1
:103F500000D131E70B9B002B27D02D2333550134A3
:103F60002AE74F46069D202C00D1E7E63022331980
:103F700007E0172006A9013409180A55202C00D1A2
:103F8000DCE6A342F5D12E220CAE0134F254D7E682
:103F90000C23229A134257D0219B013B2193A34229
:103FA00000D9FCE6202C00D106E7229B5B0703D555
:103FB0002B2333550134FFE6229B1B0700D4FBE67D
:103FC000202333550134F7E6DB0700D496E69EE75D
:103FD000229B55469B0711D1219B032B0ED9219B78
:103FE00054469C465E46033D6544220043460134E8
:103FF00039002020B047AC42F7D1B346B9465F46FE
:104000001C4EEC1C2A00B078434649460135B8479F
:10401000013EAC42F6D1229BBB464F469B0700D4E3
:10402000E1E65346219AE31A9A4200D8DBE65E465F
:1040300015002200434639002020B0475346013482
:10404000E31AAB42F5D3CEE6219BA34200D9A6E604
:10405000B2E6219B002B00D179E70B9B002B97D078
:10406000219B013B21939C4200D298E6202C00D05A
:1040700073E7A1E6FCA60110F0B5DE4657464E46B2
:104080004546E0B599B081468B4692469846229ABD
:10409000239B10001900FFF7D0F9002800D0CAE0D8
:1040A000229823990122824B5242FFF7C1F900283E
:1040B00000D0C0E02298239901227E4B5242FFF7A4
:1040C000A1F9002800D0B6E022982399002200230D
:1040D000FFF798F9002800D0C9E1229B239C0893A0
:1040E0000994089809998023269ADB001A400D92BA
:1040F0008022269C1201144022000B94269C07006B
:104100000E001C4200D0ADE00B00034300D0D5E010
:10411000002A00D00AE2220006332493022313402F
:104120000C930223134200D002E2259B042B00D201
:104130000FE2043B0B93002304250A9300222298EC
:1041400023990023FFF75EF9002800D003E25A4BC1
:10415000269A134004930B9B0393249B0293089B82
:10416000099C009301945946434652464846FFF73E
:104170002FFD02002020269B1F27034059424B4160
:104180005B421840531C0893594643464530C84784
:104190000A9AD317D4185C40D30F0A936B1E0B9363
:1041A00008AB9C460025674401E0202D0FD020007D
:1041B0000A21FEF781FE01357E1930313170200071
:1041C0000A21FEF779FE26000400092EEDD805230A
:1041D00006930B9B59460593002304930A330393DC
:1041E0000A9B4846029310AB0093089A43460195F8
:1041F000FFF7F8FB0C9B002B2DD05346C41A259BD0
:10420000A34228D94D465F4681461E0053463900D9
:104210001A19202043460134A847A642F6D853462F
:1042200048462599C21A01320023914200D386E103
:10423000013018180FE0269B0493259B0393249BC1
:104240000293229B239C0093019443465246594675
:104250004846FFF7BDFC19B0F0BCBB46B246A946C4
:10426000A046F0BD01432BD10B9B2200002B00D1B7
:1042700054E700230A93249B0A9A0024934200DD0A
:1042800085E12298239900220023FFF7BBF800283C
:1042900000D035E1269B084A02941A408023DB00B7
:1042A00013430493259B0393089B099CCBE7C046CB
:1042B000FFFFEF7FFFFFEFFFFFF7FFFF06232493D2
:1042C000B44B70009C46400D6044FFF7C7F8B24AFB
:1042D000B24BFFF750F8B24AB24BFFF72DF8360356
:1042E000B14B360B334304000D0038001900002297
:1042F000AE4BFFF71CF8AE4AAE4BFFF73CF802009E
:104300000B0020002900FFF717F8FFF7BFF80A900D
:10431000FFF7A4F8A84AA94B04000D00FFF72BF8FB
:104320000022A74BFFF708F8FFF7B0F8A54A0600F0
:10433000A54B20002900FFF71EF8040030000D00F7
:104340000C96FFF78BF8A14AA14BFFF714F8020077
:104350000B0020002900FEF7EAFF02000B00060018
:104360000F00FFF708F8320004000D003B0030009A
:104370003900FEF7E1FF00220E900F91954B2000CF
:104380002900FEF7DEFF0022934BFEF7D5FF020067
:104390000B0020002900FEF7D4FF00228F4BFEF710
:1043A000CBFF02000B0020002900FEF7CAFF0D0022
:1043B0008021040032003B000020C905FEF7B7FF52
:1043C00002000B0020002900FEF7B6FF02000B00E0
:1043D0000E980F99FEF7B5FF0022734BFEF7ACFF66
:1043E0007F4B0C9C9C46644400222305FEF7C3FFD0
:1043F00006000F0002000B0008980999FFF702F869
:1044000000280AD00A9B3000013B39000A930022A1
:10441000714BFEF796FF06000F000A9A33006332D5
:104420003900C62A12D802222698042510400B9A79
:104430000C90002A25D1259B042B05D9002800D0FB
:10444000A1E0259B043B0B93042541E00222269822
:1044500010400B9A0C90002A12D1259B052B76D97F
:10446000002872D1259B0525053B0B9334E0802263
:1044700012069446229B0893239B6344099330E6DB
:1044800005250B4300D1F6E608980999554A564B85
:10449000FEF7C6FF002808D0089809990022534B60
:1044A000FEF7B0FF002800D0E5E6249B002B1CD0CF
:1044B0000D9B002B19D0249B013B2493259BAB42E1
:1044C00004D90C9B002B5AD002230C9300230B938E
:1044D0000A9B002B00D131E60898099932003B0075
:1044E000FEF72FFF0890099128E6259BAB42EDD9F6
:1044F0000C9B002B43D000230B9302330C93E7E774
:104500008020269B3A4A00061A4080238446029463
:10451000089C099D2900DB0013430493259B6144FB
:10452000220003930B00009201938EE60524A8E677
:1045300000230B930A93023304250C93FEE55346A4
:104540008C46013B63441B1A72E602230C9305253B
:10455000C2E70423EDE58020089E099F000639008C
:104560008446269A224B6144134004930B9B3200ED
:104570000393249B02930B0000920193F3E5259B88
:104580005B1B0B93A4E7022304250C93A0E79C1A62
:10459000013C76E601FCFFFFFB799F501344D33FBB
:1045A000B3C8608B288AC63F0000F03F0000F83F88
:1045B00061436F63A787D23F71A379094F930A4084
:1045C0000000E03F1655B5BBB16B0240EF39FAFE73
:1045D000422EE63F00002C4000002440000018401E
:1045E000FF0300002D431CEBE2361A3F80842E416E
:1045F000FFF7FFFFF0B5DE4657464E464546E0B5AD
:10460000A5B01E002E9B92460C93CD4ACD4B804602
:104610008B461A60002900D1EAE1002330789946E0
:10462000002800D1ECE1C84B4C460B93C74B4546E4
:1046300057460E930AE0631C984622003B005946F9
:10464000A84744463078002800D187E00136252865
:10465000F1D108239A46043B9946023B9846013B18
:1046600000229C460D943078711C0300203BDBB285
:10467000102B03D80B9C9B00E3589F460300303B54
:1046800089460D9C092B3AD9002398462A2800D147
:10469000C1E000239A462E284BD00300683BDBB2D2
:1046A000122B1ED80E999B00CB589F4663460E00D6
:1046B0001A43D8E743460E001A43D4E74B460E0090
:1046C0001A43D0E710230E001A43CCE753460E00DE
:1046D0001A43C8E780235B001A43FF3B9C4670786F
:1046E000E1444E4667284FD82428A4D90300253B2F
:1046F000DBB2422B9FD896499B00CB589F460023A4
:1047000094461E0000E00131B3009B195B001E18A7
:104710000878303E0300303B092BF4D90123624670
:1047200089469C460023B0469A460E00E1442E2856
:10473000B3D13021802049428C46C00002437078BA
:104740004B4684446146092900D86CE12A2800D1EF
:104750007AE101239C464E46E1449EE7A146A846E5
:10476000BA46CA4503D801235B425344994653468F
:104770004A4659460020C047200025B0F0BCBB4641
:10478000B246A946A046F0BD0300693BDBB20D93DB
:104790000F2B00D94FE7012199408C466D4989467E
:1047A00061464B4619400F91634649460B4200D083
:1047B00028E10D9B0A2B3AD0072B00D03BE70C9B3E
:1047C000190008C98846002B00D14BE12120024383
:1047D000914614A98C461F220F2162448C465146F3
:1047E0000D950C91A24615000F9902E020290CD0DE
:1047F000130064461C4020003730092C00D80738CD
:10480000013168541A090F2BF0D80C9B54460D9DAA
:104810009A460F9133E10C9B02CB8846002947DB77
:104820000C9301239C4670784E46E14431E70C9B83
:1048300002CB14935346002B00D138E19C460878F4
:104840000B000C908C44002801D100F098FC8946A4
:104850006146944603E05A780133002A01D08B4226
:10486000F9D1494662465B1A0C900F93530500D567
:1048700020E10223180010400D90134200D1CBE339
:104880000D930B1BB1469A465E460C9822003B00E6
:104890003100A84753460134185D0028F6D1B346CD
:1048A0004E460D9B002B00D0C7E1149B0C93C9E62C
:1048B0000C9301239C46283849420243884670786D
:1048C0004E46E144E5E670786C2800D17FE1802314
:1048D0005B001A43FF3B9C46E14402E780239B00B8
:1048E0001A4301239C467078E144FAE67078682800
:1048F00000D173E180231A437F3B9C46E144F0E6FC
:10490000672800D103E1472800D15AE1452800D1AA
:104910005AE10492072142460C9B03920733524608
:104920008B43190002920CC92800009201930C914C
:1049300022003B005946FFF79FFB040082E6C04679
:10494000F54500103CD80320F48F02103890021077
:104950008490021041900000462800D1DBE00492D0
:10496000072142460C9B0392073352468B431900A2
:1049700002920CC92800009201930C9122003B0086
:104980005946FFF725F904005CE6631C98462200AF
:104990003B0059462520A847444653E60C9B043368
:1049A0000D93631C9946920700D422E10C9B2200D0
:1049B000187859463B00A84743464444012B00D889
:1049C00085E23300B8462E005F4625004C469946E6
:1049D00022004346013439002020B047AC42F7D1D1
:1049E0002C00BB46350047464E460D9B0C9329E6EE
:1049F000DB4B3078984600239946002800D012E619
:104A00000024AEE66F2800D188E000D80BE3102325
:104A1000782800D1CFE09A430A239C4600230F93C5
:104A20000A330D9380E05646B100891949000133DD
:104A30000E181878303E010030390929F4D9B246F1
:104A40001E000133994628E60C9B023602CB8A46AB
:104A5000C9435046C917084082460C933078731CEE
:104A600099461AE6102310009843113318438146E3
:104A700080201300C0000340024200D1A9E64B464B
:104A800006930823059353460493102303930023AE
:104A900002930F9B220001931CAB009359463B00ED
:104AA0002800FEF79FFF434604000C93CAE501234C
:104AB0005B42C3E60F9B534501D953460F93022334
:104AC000180010400D90134200D1B7E10D93D1466C
:104AD0000B1B9A463300A1442E0022004D460C9831
:104AE000B9465F469B4608E04B463900541CB04728
:104AF0005346185D002877D022009542F4D15B46DA
:104B0000BB464F46A94635004C461E00C9E68023E9
:104B10001B011A43FDE620231A4320E708239C4685
:104B200000230F9308330D9380231100DB001940FD
:104B30001A4200D116E10D239A431000802302008F
:104B40009B001A401492184200D0C2E18023020058
:104B50005B001A4091460C9A04320F92184200D022
:104B6000B7E2430600D59FE1030600D419E30C9B8E
:104B70001B880993002B00D0FCE1103398430029D7
:104B800000D1F7E100239946434605935346049329
:104B90000D9B069003930023D2E0582808D062288A
:104BA00067D102239C4600230F9302330D93BBE78A
:104BB00020231A43103B9C4600230F9310330D9380
:104BC000B2E780231B011A4320231A43A1E6C02326
:104BD0009B001A43F31C9946B07882E5C0231A4320
:104BE000F31C9946B0787CE535005E46BB464F46DF
:104BF00057E64346012B00D863E1631E43449A46BF
:104C00003300B9462E005F4655469B46A246220019
:104C10004B46013439002020B047AC42F7D1350073
:104C20005E46BB464F46A14654460C9B4A46187802
:104C300059463B004444A847D7E6A1460F9B9845F8
:104C400000D832E64444E41A3300B8462E005F46EA
:104C500025004C4699462200434601343900202065
:104C6000B047AC42F7D12C00BB46350047464E4614
:104C70001BE680231000DB0018401A4200D10FE130
:104C8000112118008A430D920D9A802311009B0078
:104C900019408C461A4269D1802311005B001940EB
:104CA00089460C9904310F911A4200D0CAE11300D1
:104CB0005B0600D5F0E013001B0600D459E20C9B04
:104CC00000229B5ED9175A184A4092B2D90F0C9114
:104CD000002B00D1F9E1100014AA944642461F238C
:104CE000149252466344A84616944D460400B946B1
:104CF000B2461F00159201E0202D0FD020000A219E
:104D0000FEF7DAF801357E193031317020000A21C2
:104D1000FEF7D2F826000400092EEDD8149B4F466A
:104D2000A94645469846159B56469A46169C0D9BA5
:104D3000069343460593534604930A2303930C9B1F
:104D400002934B4601931CAB2200009359463B0053
:104D50002800FEF747FE0F9B04000C9372E4C04648
:104D6000353900100C239A431000E7E607220C9B0C
:104D700007339343013294469C4462460C920CCB19
:104D8000D90F0F911100194300D191E0D917139158
:104D90001291514010911399594011911098119905
:104DA000129A139B801A99411090119114AA002312
:104DB000944642469946149252461F336344A8468D
:104DC000B24616944E46109C119DB94615921F008E
:104DD00001E0202E10D0200029000A220023FEF737
:104DE000A9F8013630322B00BA550D00220004001C
:104DF000002BEED1092AECD8149B1094119545464E
:104E00009846159B4F46B14656469A46169C0D9BB2
:104E1000069343460593534604930A2303930F9B3B
:104E200002934B4601931CAB2200009359463B0072
:104E30002800FEF7D7FD0400FFF704FC0F9B984500
:104E400000D8C1E18023DB000D9343460F9A1B1964
:104E50009B1A994633002E004D46B9465F469B4645
:104E60000C9122004B46013439002020B047AC425F
:104E7000F7D143460C9901330F930B7835000C930F
:104E80005E46BB464F46002B00D10EE50D9B002B26
:104E900000D1F6E4002319E60C9B1B781A0015E7F5
:104EA00010239A430D92EFE60C9B1B78099361E661
:104EB000002399460028AAD10022002310921193C2
:104EC00074E70C9B2200187859463B00A8474C46D3
:104ED0008BE50C9AFA3BFF3B07329A430133994624
:104EE00091444B460C931368526815921A4306D1AD
:104EF0001032904300220992002900D081E0612203
:104F0000810600D54122D2B20A9214AA91460A9A89
:104F100000210A3A149242461792524618925A4673
:104F20000991B3461F311E000F9B4944BA4619949C
:104F30001A950024674698468946159D16901B923F
:104F40000AE03032D2B24B4601341A55A8454AD055
:104F5000202C4AD006000D003A0000233000290022
:104F6000FDF7E8FFD2B2092AEBD9149B9C466244B4
:104F7000D2B2E8E76123820600D54123DBB20A3BC7
:104F80000C93434614A91F228C4615935346624442
:104F9000A046B2464C461797A9461700099D0D9E9C
:104FA0001490169308E03033DBB201343B55B54220
:104FB0000ED3202C0CD0050031002800FDF77CFF1B
:104FC000CBB20929EFD90C9A94466344DBB2ECE7E3
:104FD000159B4D46A14644469846169B5646149846
:104FE0009A46179FD0E5B742B2D9179B57469846C5
:104FF000189B5E469A461B9B09949B461698199CE3
:105000001A9D43460593534604930D9B06900393C4
:1050100000230293099B05E70F9B984500D914E7ED
:1050200001330F932DE41023110099430D9169284A
:1050300000D0BAE080231000DB0018401A4200D1F3
:1050400022E61DE60C9B1B68DA0F1100002B00D135
:105050008CE0DA179818504014AA914642461F2354
:10506000149252464B44A046A94616970400654642
:10507000B2461F000C91159201E0202D0FD02000A8
:105080000A21FDF719FF01357E19303131702000FA
:105090000A21FDF711FF26000400092EEDD8149B0C
:1050A000444698460C9BAC461900159B56464D4607
:1050B0009A46169F0D9B02910693434605935346CD
:1050C00004930A23039363463CE6002800D02EE6AF
:1050D00002E60C9B1B689946002B03D110339843C2
:1050E000002938D16123820600D54123DBB20A3B77
:1050F0000C9343461693534614A91F228C461793CC
:105100002B006244A0464D46B246189799461700B8
:10511000149C0D9E159008E03033DBB201343B55F2
:10512000B5420ED3202C0CD0050031002800FDF72D
:10513000C3FECBB20929EFD90C9A94466344DBB283
:10514000ECE7169B149444469846179B56464D46EA
:105150009A461598189F43460593534604930D9B12
:105160000690039300230293149BEBE50028A1D142
:1051700072E70C9B1B68D9175A184A40A6E5802392
:105180001000DB0018409C460F901A420FD00220FE
:10519000030013400F93104219D00023A1460F9330
:1051A0004CE50C9B1B680993E4E40A0034E40223F9
:1051B000180010400D90134200D03EE54346002BEE
:1051C00000D042E6FFF771FB01330F937FE46346A3
:1051D0000D93F3E710B50C0084B00394012402A9E9
:1051E00002900093034813006242FFF703FA04B0F1
:1051F00010BDC046C13B00100FB430B50C4985B09E
:1052000008AA08CA0D680392002D0CD00092012252
:10521000084C5242200002A9A847012005B030BC2A
:1052200008BC04B01847180000F064FA0020F5E745
:105230003CD80320B13B001010B5094A03001468A4
:1052400084B0002C08D0012200910648524203A9E4
:10525000A047012004B010BD00F04CFA0020F9E78F
:105260003CD80320B13B001000BEFDE7094A030013
:105270001068002805D00849C3188B4207D813606E
:10528000704706480449C31810608B42F7D90120C3
:105290004042F5E738C803200000042098E10320CD
:1052A00000207047012040427047C046030010B5FF
:1052B00008001100002B05D1044B1A685B6800F050
:1052C00071F910BD01204042FBE7C046988F0210E3
:1052D0000300013B10B508001400012B06D8012380
:1052E0000022210000F0E0F8200010BD0120404223
:1052F000FBE7C046012040427047C04601204042C3
:105300007047C046012040427047C0460300022259
:1053100000209A424041704710B5FFF7A5FFC046F4
:1053200030B50D0083B01900002A0BD0074B084C94
:105330000192009302002B002000FFF75DFF012087
:10534000FFF792FF034B1A00F1E7C04608A70110D0
:1053500018A701107CA8011070B5FDF74DFC074D92
:10536000074EB54209D20024013E761BB60808CD8F
:10537000984723000134B342F9D170BDC4A4011091
:10538000D0A40110030010B5080011001B68984755
:1053900010BDC046F0B5C64600B5437D07000C0001
:1053A0001600002B46D0002A17DD0B780A2B24D0DC
:1053B00000239846012E13D001252900635C013596
:1053C0000A2B26D0B542F8D1464509DCA419013C88
:1053D00023780D3B5A4253413B7580BCB846F0BD23
:1053E0004346E018A419F11A013C3B68984723781A
:1053F0000D3B5A4253413B75EFE7037D002BD7D15C
:1054000002210F483B689847012EDFD001239846C0
:10541000D2E7631E5B5C0D2BD4D0884504DA43468B
:10542000C91AE0183B689847022105483B68A8461E
:105430009847C7E70368110020009847CDE7C046AA
:10544000E0910210F0B5C6460B6806000C0000B5EE
:10545000802B06D05A1C2260E418267180BCB84606
:10546000F0BD0F4B1D68002D16D00B1D98460D4F3B
:1054700002E02D69002D0FD02B68002BF9D03B687E
:10548000002B01D0AB42F4D1280041462268FFF73F
:1054900081FF2D69002DEFD101220023DBE7C046FB
:1054A0002C48032034480320F0B54546DE464E46DE
:1054B0005746E0B583B091461C0080460D00FDF7CD
:1054C00051F90023304A12184B41002B02DA012215
:1054D0002E4B52422E4908008A4614F0ADFF0700B9
:1054E0006B1C03D140460FF035FF0500002C27D080
:1054F000284E294B1C68002C18D04B46002B21D17C
:10550000264B994602E02469002C0FD02368002B1B
:10551000F9D04B461B68002B01D09C42F3D12000F0
:105520002A004146B0472469002CEFD1002F26D134
:10553000280003B0F0BCBB46B246A946A046F0BD69
:10554000174ED6E7154B99460A239B4602E024697D
:10555000002CEBD02368002BF9D04B461B68002BA6
:1055600001D0A342F3D12A0041462000B0476B4648
:105570005A462000DA71D91D0122B047E7E75046AC
:1055800014F01AFFD4E7C04640420F00FFFFFF7F30
:10559000D4190020955300102C48032034480320D0
:1055A00085530010F8B557464E464546DE469846A8
:1055B0001A4BE0B59B461A4B07000E0091469A46DF
:1055C000184D5B461C68002C03D115E02469002CA3
:1055D00012D02B68002B01D0A342F7D1A368002B77
:1055E000F4D03100380098470028EFDDF0BCBB460E
:1055F000B246A946A046F8BD53465B6A984508D80E
:105600005246926A4A4502D302204042EEE798454C
:10561000FAD101200021FDF7AFF8D2E72C48032092
:1056200000400540344803200A4A1368002B05D186
:105630000CE01A001B691032002B07D08342F8D10E
:10564000002902D118691060196170470029FCD047
:105650001060FAE72C48032010B500F0F1FA10BDF5
:10566000F0B5CE46474680B583B06B460600DD1DDB
:105670002870FDF777F80023194A12184B41002BC8
:1056800002DA0122174B524217490800884614F0EB
:10569000D3FE164B81461C68002C14D0144F02E038
:1056A0002469002C0FD02368002BF9D03B68002B15
:1056B00001D09C42F4D1200001222900FFF76AFEAC
:1056C0002469002CEFD14B46002B05D1300003B0EC
:1056D000C0BCB946B046F0BD404614F06DFEF5E7DB
:1056E00040420F00FFFFFF7FD41900202C48032009
:1056F0003448032070B504000FF02CFE0123010094
:10570000050001222000FFF7CFFE084B1C68002C8B
:1057100006D06368002B05D098472469002CF8D187
:10572000280070BD2469002CF3D1F9E72C48032030
:10573000F0B5CE46474680B5A3B004000D00FDF796
:1057400011F80023274A12184B41002B02DA0122DC
:10575000254B5242254E300014F06EFE00232200ED
:10576000019307002B00224801A9FFF733FD214BCD
:10577000804699461C68019B002B1AD0002C2FD024
:105780001D4D02E02469002C0FD02368002BF9D0B6
:105790002B68002B01D0A342F4D12000019A02A96A
:1057A000FFF7F8FD2469002CEFD14B461C6800235D
:1057B0000193002C06D06368002B0BD09847246916
:1057C000002CF8D1002F07D1404623B0C0BCB94609
:1057D000B046F0BD2469ECE7300014F0EDFDF3E7CE
:1057E0000194EFE740420F00FFFFFF7FD419002034
:1057F000455400102C480320344803200FB400B552
:1058000083B004A901C90191FFF792FF03B008BC5E
:1058100004B018477047C0460022014B1A70704709
:1058200094E103204B790020FF2B0BD18B79002BC7
:1058300008D1CB79012B05D1082A03D9024B8A78EC
:1058400009301A707047C04694E103200120704768
:1058500010B5012913D112495379107909781B0227
:1058600003430020994200D010BD5378012B08D08B
:10587000022BF9D1642200210020FDF707F9012055
:10588000F2E7D37891781B021943480ADB0501D46B
:10589000012040427F238A05D20F1940FDF77EF98F
:1058A00094E1032000487047AC92021070B50500E7
:1058B00014000120012909D153780020012B05D1C2
:1058C000637912791B021343072B00D070BD2100AE
:1058D0002800024A9F3301F055FAF7E704920210BC
:1058E0000123037000487047E49102104B780A7856
:1058F0001B0213438A7810B512041A43CB781B0697
:1059000013439622D200934200D010BD0022012002
:1059100011004042FDF742F9024B1860024B19603A
:105920007047C046CC470320D047032010B5024B38
:105930001878FCF7F7F810BD95E10320154B70B50A
:105940001A68002A22D0EFF3108172B6106800287E
:10595000FCD0BFF35F8F00200F4A596010701B68A6
:10596000BFF35F8F186081F31088002400250B4E71
:105970003078FCF7CBF8002804D10024002529005A
:10598000200070BD3078FCF7CDF8F8E7FA24002548
:10599000A400ECE74CD8032096E1032095E1032016
:1059A00070B5040000200E0001F00AFB002834D07E
:1059B000002001F01BFB00282FD0FCF7D3FE0023B2
:1059C000174A12184B41002B16DB164D280014F015
:1059D00033FD002821D0002001F0F2FA00280FD179
:1059E00001200021404200F001FD03246442280010
:1059F00014F0E2FC200070BD01220B4B5242E4E7A0
:105A0000002001F0F3FA0028EAD021003200002043
:105A100001F0F6FA041EEAD1E7E703246442E9E75D
:105A200040420F0074E10320FFFFFF7F10B5FCF739
:105A300099FE00230D4A12184B41002B02DA012275
:105A40000B4B52420B4C200014F0F6FC00280CD0FB
:105A500001200021404200F0C9FC002001F014FBAD
:105A60000028F5D1200014F0A7FC10BD40420F0023
:105A7000FFFFFF7F74E10320F8B5DE46574680B58F
:105A800005000C00FCF76EFE0023364A12184B414D
:105A9000002B02DA0122344B5242344908008A4674
:105AA00014F0CAFC002803D1C0BCBB46B246F8BD06
:105AB000002001F085FA00284AD00026002C43DDA2
:105AC0002B4B9B4614E0A919002001F017FB07009F
:105AD00001200021404200F089FC002001F0D4FAAE
