:020000041000EA
:1000000000B5324B212058609868022188439860DF
:10001000D860186158612E4B002199600221596106
:100020000121F02299502B49196001219960352056
:1000300000F044F80222904214D00621196600F024
:1000400034F8196E01211966002018661A6600F04E
:100050002CF8196E196E196E052000F02FF8012189
:100060000842F9D1002199601B49196000215960AB
:100070001A491B48016001219960EB211966A021F2
:10008000196600F012F800219960164914480160C1
:100090000121996001BC002800D000471248134993
:1000A000086003C880F30888084703B5996A0420EC
:1000B0000142FBD001200142F8D103BD02B5186610
:1000C0001866FFF7F2FF186E186E02BD00000240BE
:1000D000000000180000070000035F00212200005C
:1000E000F4000018222000A00001001008ED00E03C
:1000F00000000000000000000000000074B24E7A12
:1001000000200420F7010010CB010010CD010010E9
:10011000C9010010C9010010C9010010C901001077
:10012000C9010010C9010010C9010010CF01001061
:10013000C9010010C9010010D1010010D301001045
:10014000C1010010C1010010C1010010C101001067
:10015000C1010010C1010010C1010010C101001057
:10016000C1010010C1010010C1010010C101001047
:10017000C1010010C1010010C1010010C101001037
:10018000C1010010C1010010C1010010C101001027
:10019000C1010010C1010010C1010010C101001017
:1001A000C1010010C1010010C1010010C101001007
:1001B000C1010010C1010010C1010010C1010010F7
:1001C000EFF30580103800BE00BE00BE00BE00BECA
:1001D00000BE00BEF2EB887148610010686100103B
:1001E0003802001090A31AE71E481F49086006C88D
:1001F00081F3088810471D480068002801D019487D
:10020000F3E70DA40ECC002902D000F012F8F9E7B4
:100210001749184A002000E001C19142FCD116495B
:100220008847164988471649884700BEFDE701C937
:1002300001C29A42FBD3704768610010C0000020E1
:1002400008920020B0F200100000042000000420FA
:10025000B0F2001000100420001004200000000084
:10026000704700000000000008ED00E0000000D032
:1002700008920020F8A30020F52B0010D9030010ED
:10028000ED2B0010F8B5C0460448054B10B583426D
:1002900003D0044B002B00D0984710BD081200205B
:1002A000081200200000000006480749091A8B10B8
:1002B000C90FC91810B5491003D0044B002B00D04A
:1002C000984710BD0812002008120020000000000E
:1002D00010B5074C2378002B09D1FFF7D5FF054B4C
:1002E000002B02D0044800E000BF0123237010BDA2
:1002F0009094002000000000505B0010054B10B5EA
:10030000002B03D00449054800E000BFFFF7CCFFF5
:1003100010BDC0460000000094940020505B001007
:10032000F8B50F4C0F4D104F104E2378002BFCD119
:1003300002220121280000F0B3FEAB68002B08D098
:10034000802239002800120200F0C2FEAB68002BA8
:10035000F6D101230120337005F052FAE5E7C046DB
:10036000F1A300204096002008120020F2A30020F4
:1003700010B50C4C94B068460D2100F0B5FE50222B
:100380006946200002F00AFC200000F083FE2000F5
:1003900000F07AFE044802F07DFDC82001F016FF4F
:1003A00014B010BD40960020505B001010B5094CF1
:1003B0000021200000F07AFE0221200000F07CFEE7
:1003C0000021200000F08AFE0321200000F07AFEC8
:1003D00010BDC0464096002070B582B002F00AFD04
:1003E00000F0F0FEFFF7C4FFFFF7E0FF052000F08C
:1003F000E5FFA02300228021002000F053FF00F041
:100400003BFF012000F01CFFA0240322002101A8D3
:1004100002F0BEFBE401032101A8013C00F01AFF39
:10042000002CF8D1124802F035FD124805F042FACE
:100430008023114DDB01114CEE1805F0EBF901287A
:10044000FBD1A023202280212070002000F02AFF71
:1004500000F012FF80212800C90100F0FBFE80217E
:100460003000C90100F0F6FE00232370E5E7C04626
:10047000685B00102103001008120020F1A3002087
:100480009823826B70B50400D35898479423A26BCD
:100490002000D3589847A0254C2602E0A35D012BED
:1004A00007D0A36B0422442120005B599847002801
:1004B000F4D09C23A26B2000D35898470023A0605F
:1004C0006060A37370BDC0468068704780230A00D7
:1004D000816B10B50400CB5829219847AC23A26B3F
:1004E0002000D3589847002010BDC046F8B580279B
:1004F0000400AC260D00836B3622DB590B21984794
:10050000A36B20009B599847A36B0322DB590C2156
:1005100020009847A36B20009B599847A36BAA051E
:10052000DB590D212000920E9847A36B20009B59A8
:100530009847A36B3622DB590B2120009847A36B09
:1005400020009B599847A36B0222DB590C21200005
:100550009847A36B20009B599847A36B2A01DB594E
:100560000D212000D2B29847A36B20009B599847D9
:100570000020F8BDC16302730364704710B5C37BEC
:100580000400012B13D000230B4AE3732282A26BD9
:10059000A3606360803320212000D3580122984754
:1005A000AC23A26B2000D3589847002010BD036CE9
:1005B000002BE8D09847E6E70103000080230A00FB
:1005C000816B10B50400CB582A219847AC23A26B4D
:1005D0002000D3589847002010BDC0468023826B6E
:1005E00010B504000721D35840229847AC23A26BD2
:1005F0002000D3589847024B0020238210BDC046EC
:100600000410000080230A00816B10B50400CB5851
:1006100026219847AC23A26B2000D358984700208E
:1006200010BDC046F8B5437B0400822B19D0CFB271
:100630008026AC25A36B09129B59CAB22000312138
:100640009847A36B20005B599847A36B3A009B59CE
:10065000322120009847A36B20005B599847002067
:10066000F8BD024BCF5C3900E2E7C0465F100020C6
:10067000F8B5437B04000D00842B0BD880230A0CB3
:10068000816BD2B2CB5833219847AC23A26B2000A8
:10069000D35898478027AC26A36B2A0ADB5934210C
:1006A0002000D2B29847A36B20009B599847A36BB8
:1006B000EAB2DB59352120009847A36B20009B59F3
:1006C00098470020F8BDC04680230A00816B10B512
:1006D0000400CB5827219847AC23A26B2000D358A5
:1006E0009847002010BDC04680230A00816B10B5DA
:1006F0000400CB5824219847AC23A26B2000D35888
:100700009847002010BDC04680230A00816B10B5B9
:100710000400CB5825219847AC23A26B2000D35866
:100720009847002010BDC04680230A00816B10B599
:100730000400CB5823219847AC23A26B2000D35848
:100740009847002010BDC04680230A00816B10B579
:100750000400CB5822219847AC23A26B2000D35829
:100760009847002010BDC046802310B5826B07213A
:10077000D3588022984710BD802310B5826B042186
:10078000D3580222984710BD802310B5826B0421F4
:10079000D3580122984710BDF8B58427836B040015
:1007A000DB5945219847A36B0600DB594621200001
:1007B0009847A36B0500DB594721200098472D027D
:1007C000000428433043F8BD842310B51400826B25
:1007D000D3589847204010BD802310B5846B19432F
:1007E0000C33E358984710BD7F2310B5826B194036
:1007F0000933D358984710BD70B5040084260325EB
:10080000A36B442120009B59984728400228F7D128
:1008100070BDC046F8B580250400836B4F788E7894
:100820005B590A780B219847A36B3A005B5920006B
:100830000C219847A36B32005B590D21200098478B
:10084000F8BDC04680230A00816B10B50400CB5868
:100850002B219847AC23A26B2000D3589847002047
:1008600010BDC04610B5007800F0A6FC10BDC04613
:1008700070B580260400AC25836B30229B590B2178
:100880009847A36B20005B599847A36B29229B597B
:100890000C2120009847A36B20005B599847A36B5D
:1008A000012207219B5920009847A36B20005B5928
:1008B0009847052001F08AFC8423A26B4821200080
:1008C000D358984770BDC04610B53C2000F03AFCA4
:1008D00010BDC04670B50400007800F06DFC3D20EE
:1008E00000F030FC002000F02DFC002000F02AFC7D
:1008F0000500208800F05AFCA3682800013BA36093
:1009000070BDC04670B50D0014000600007800F000
:1009100053FCE8B200F016FCE0B200F013FC3088A3
:1009200000F044FC012070BD10B5008800F03EFCD2
:1009300010BDC04670B50C000500007800F03CFC0E
:10094000E0B200F0FFFB002000F0FCFB002000F014
:10095000F9FB0400288800F029FC200070BDC04687
:1009600070B5C37B0400002B0BD0094D836B2900AD
:10097000027B5B6F9847C1B2002903D02800E36B6C
:10098000984770BDA823A26B2000D3589847F8E77A
:10099000349D00204A1E53425A410123816BD201EB
:1009A00070B51A4304007F33CB5830219847AC23ED
:1009B000A26B2000D3589847637B842B08D98426E8
:1009C0000825A36B442120009B5998470542F8D184
:1009D000002070BD10B5437B04000A00842B09D8A9
:1009E0008023816BCB5828219847AC23A26B200031
:1009F000D3589847002010BD70B58025836B427B8B
:100A00005E5913007D33DBB20400012B11D9842A17
:100A100003D807220221B04770BD01222821B04728
:100A2000AC23A26B2000D35898474C230122E254F8
:100A3000F2E700220B21B047AC26A36B20009B59A4
:100A40009847A36B28220C2120005B599847A36B81
:100A500020009B599847A36BD0220E2120005B59A0
:100A60009847A36B20009B599847A36B00220D2148
:100A700020005B599847A36B20009B599847A36BB4
:100A800000220B2120005B599847A36B20009B5943
:100A90009847A36B2A220C2120005B599847A36B2F
:100AA00020009B599847A36B10220E2120005B5910
:100AB0009847A36B20009B599847A36B7E220D217A
:100AC00020005B599847A36B20009B599847A36B64
:100AD0000F220B2120005B599847A36B20009B59E4
:100AE0009847A36B12220C2120005B599847A36BF7
:100AF00020009B599847A36B00220E2120005B59D0
:100B00009847A36B20009B599847A36B20005B5923
:100B100001220D219847A36B20009B5998477BE742
:100B200070B58025836B427B5E5913007D33DBB249
:100B30000400012B11D9842A03D805220221B047D1
:100B400070BD00222821B047AC23A26B2000D358EF
:100B500098474C230022E254F2E700220B21B047D1
:100B6000AC26A36B20009B599847A36B28220C212D
:100B700020005B599847A36B20009B599847A36BB3
:100B8000D0220E2120005B599847A36B20009B596F
:100B90009847A36B00220D2120005B599847A36B57
:100BA00020009B599847A36B00220B2120005B5922
:100BB0009847A36B20009B599847A36B2A220C21CE
:100BC00020005B599847A36B20009B599847A36B63
:100BD00010220E2120005B599847A36B20009B59DF
:100BE0009847A36B7E220D2120005B599847A36B89
:100BF00020009B599847A36B0F220B2120005B59C3
:100C00009847A36B20009B599847A36B12220C2195
:100C100020005B599847A36B20009B599847A36B12
:100C200000220E2120005B599847A36B20009B599E
:100C30009847A36B20005B5900220D219847A36BB6
:100C400020009B5998477BE710B5437B04000A00BE
:100C5000842B09D98023816BCB582C219847AC2356
:100C6000A26B2000D3589847002010BD10B5437BDD
:100C700004000A00842B09D98023816BCB582D21D5
:100C80009847AC23A26B2000D3589847002010BD92
:100C9000F8B5836B05009B6E0C0016009847071E85
:100CA00002D00027002E01D13800F8BDAF68B7424E
:100CB0001BD8287800F080FAA423AA6B2800D35808
:100CC0009847AB7B002B12D0002F07D0E6190020ED
:100CD00000F038FA20700134B442F8D1288800F0CE
:100CE00065FAAB68DB1BAB60DEE73700E1E7013399
:100CF000AB73002000F026FAE6E7C0464A1E5342D6
:100D00005A418023816B70B50400CB58D201302149
:100D10009847AC23A26B2000D3589847637B842B61
:100D200008D984260825A36B442120009B599847A5
:100D30000542F8D1002070BD4A1E53425A41022399
:100D4000816BD20170B51A4304007E33CB58302139
:100D50009847AC23A26B2000D3589847637B842B21
:100D600008D984260825A36B442120009B59984765
:100D70000542F8D1002070BD012370B5C373C36B69
:100D800004000D00002B3BD08023826B2021D35820
:100D900001229847AC23A26B2000D3589847637B6D
:100DA000842B13D980222A438023A16B2000CB58A7
:100DB00021219847AC23A26B2000D3589847A82341
:100DC000A26B2000D3589847002070BD0D2DE9D8A4
:100DD0000D4AAB00D3589F468922E5E78122E3E71D
:100DE0008C22E1E78222DFE78422DDE78622DBE74F
:100DF0008722D9E78822D7E78B22D5E78A22D3E753
:100E000001204042E1E7C046105D001070B51E00B1
:100E1000037C04000D0093420AD08023816BCB58E1
:100E2000027420219847AC23A26B2000D358984726
:100E3000637CAB4216D0637B6574842B06D80D2D82
:100E400004D8184AAB00D3589F4601258023A26BD3
:100E50002000D35821212A009847AC23A26B200000
:100E6000D35898478023A26B01212000D358320029
:100E70009847A823A26B2000D3589847002070BD44
:100E80000925E3E70C25E1E70225DFE70425DDE797
:100E90000625DBE70725D9E70825D7E70B25D5E7A2
:100EA0000A25D3E7485D0010F8B50D00017C040069
:100EB000836B91420DD08027AC2602742021DB5930
:100EC0009847A36B20009B599847637B842B20D8BD
:100ED000A36B627CAA4216D0627B6574842A06D812
:100EE0000D2D04D81A49AA008A5897460125802258
:100EF00021219B5820002A009847AC23A26B200098
:100F0000D3589847A36BA82220009B5898470020ED
:100F1000F8BDA36B65742000DB592A002121984796
:100F2000A36B20009B599847D2E70925DFE70C25E2
:100F3000DDE70225DBE70425D9E70625D7E7072506
:100F4000D5E70825D3E70B25D1E70A25CFE7C0462B
:100F5000805D00108423826B10B5D35804004021BB
:100F60009847AC23A26B6073D35820009847637BEB
:100F70007F33DBB2062B1CD80F4A9B00D3589F4609
:100F80000E4B0F4A1A600F4A0F4B136020001430AB
:100F900016CB16C016CB16C016CB16C010BD094A0C
:100FA0000A4B5360F2E7074B5B68EFE7054B9B6822
:100FB000ECE7044B1B68E9E7B85D00101011002056
:100FC000885B001090960020A41000208010002064
:100FD0008023826B70B504000721D35840229847C4
:100FE000AC23A26B2000D35898472000FFF7B2FF34
:100FF000637B7D33DBB2012B02D8224B2362A362D9
:101000008426A36B41219B59200098473F2344220B
:10101000AC250340A354A36B20005B599847A36BF6
:1010200042219B59200098470F2345220340A35497
:10103000A36B20005B599847A36B43219B59200069
:1010400098471F2346220340A354A36B20005B59FB
:101050009847A36B49219B59200098474723E054A8
:10106000A36B20005B5998473223A16BE25C4E339F
:101070002000CB580A219847A36B20005B59984762
:10108000002070BDFFFF000010B5836B1B68984700
:1010900010BDC04610B5836B5B68984710BDC04655
:1010A00010B5836B9B68984710BDC04610B5836B25
:1010B000DB6A984710BDC04610B5836B1B6B984721
:1010C00010BDC04610B5836B1B6D984710BDC04660
:1010D00010B5836B5B6F984710BDC04610B5836B2E
:1010E0009B6D984710BDC04670B50D000E4B0F4A62
:1010F000EEB21A600E4A04005A600E4A9A6000F07E
:1011000033F8300000F046F8300000F055F80023C6
:101110006373E381084B20002382084B2560A3639F
:10112000074BA36470BDC0469096002010110020AC
:10113000EC100020C810002004100000D45D001046
:101140003411002010B584B06B460F246C44D91DB7
:10115000087001232200034804F0B6FC207804B094
:1011600010BDC0460000044010B50849084804F00E
:10117000A1FA01210C2000F08FF901210B2000F0D1
:101180008BF901210A2000F087F910BD001BB70080
:101190000000044010B5040000F098F90123D022AB
:1011A000A340120600205362536110BD0123D022D8
:1011B00083401206536170470123D02283401206F8
:1011C0009361704710B5194C1949200004F072FA68
:1011D0000222184963680A602168134005325140B1
:1011E000C8320A40144904200A60144A01211360DD
:1011F00000F052F90121072000F04EF901210620EC
:1012000000F04AF9152000F061F9D024802324066B
:101210009B036362052000F059F9202314206362C8
:1012200000F054F980235B03636210BD00C00340EB
:1012300000093D0004F0034000D0034004E00340F7
:10124000D02380221B069203002801D05A617047E8
:101250009A61FCE770B58023D024202524069B03E7
:10126000A5610A0063610100024804F025FCA56144
:1012700070BDC04600C0034030B583B06B46D91D79
:101280002C23D0240B708023202524069B03A561EA
:101290000122A361024804F00FFC656103B030BD78
:1012A00000C00340F0B54E46DE4657464546E0B521
:1012B00085B08A4602A9CE1DD02480212025019325
:1012C0002A233D4F240689038846337000928346C3
:1012D000A5610122A1613800310004F0EDFB00217D
:1012E0006561894631704146A5610122616138001E
:1012F000310004F0E1FB5946A56131704146A5611A
:10130000012261613800310004F0D6FB4946A56135
:1013100031704146A561012261613800310004F05D
:10132000CBFB5146A56131704146A5610122616147
:101330003800310004F0C0FB2B234146A561012297
:1013400033703800A561A161310004F0B5FB494656
:10135000656131704146A56101226161380031004B
:1013600004F0AAFB009AA561327042463100A561E3
:1013700038006261012204F09FFB4A46A561327089
:1013800042463100A56138006261012204F094FBFD
:10139000019BA56133704346A561012231003800ED
:1013A000636104F089FBA56105B0F0BCBB46B246A1
:1013B000A946A046F0BDC04600C00340F0B5CE46E9
:1013C0004746D024802580B524066D0383B081462E
:1013D000A561642000F0FAFE6561C82000F0F6FE09
:1013E0006B46DE1D0123337080232025294F9B038C
:1013F00031000122A5613800A361984604F05CFB2E
:10140000C820656100F0E2FE1123337043463100CD
:101410000122A5613800A36104F04EFBC82065617C
:1014200000F0D4FE3A23337043463100A561012217
:10143000A361380004F040FB4B46656133704346BE
:101440003100A56101226361380004F035FB3423CB
:10145000A5613370434631000122A5613800A361C4
:1014600004F02AFBC820656100F0B0FE2923337028
:10147000434601223100A5613800A36104F01CFB42
:10148000C820656100F0A2FE03B0C0BCB946B046FA
:10149000F0BDC04600C00340094A83009A1810B549
:1014A00014684022544080322240064CC000A446BA
:1014B00063441A60044B9C466044416010BDC046C2
:1014C00004C0014004D00140004001400123D0226B
:1014D0008340120693629361094A83009A18116847
:1014E0004022514080320A400649C0008C46634485
:1014F0001A60054B9C460523604443607047C04614
:1015000004C0014004D00140004001408023DB05BD
:101510001868000F7047C0460FB400B5084883B084
:1015200001F0B8FC049B002B07D005A9180001911D
:1015300001F042FB034801F0ADFC012001F054FB37
:101540009C5B0010AC5B001070B5EFF3108C72B6B2
:101550000D4D2B68002BFCD0BFF35F8F0724CB0809
:10156000C618C05C01230C40A3401C000440034289
:1015700007D118433070BFF35F8F2C608CF3108855
:1015800070BD1000FFF7C8FF2C0100D0F8B547462A
:10159000CE46884680B5EFF3108C72B6214D2C688C
:1015A000002CFCD0BFF35F8F9A422CD8D4080727B9
:1015B000055D061901241740BC402C421FD00721AD
:1015C0000127894609E0D408055D06194C46390013
:1015D0001440A1400C00294211D001329342F2D2B2
:1015E00001204042BFF35F8F00220E4B1A608CF344
:1015F000108800280FDBC0BCB946B046F8BD2543B3
:1016000010003570EEE7BFF35F8F00232B608CF383
:101610001088012040424346002BECD00898FFF789
:101620007BFFC0462C0100D0044A1078431CDBB27B
:10163000172B00D9102313707047C04639110020B2
:1016400010B5064B064C82B00100009318221F23F0
:101650002000FFF79BFF02B010BDC046B05B00103A
:101660003C9E00200021044B044ABFF35F8F02C35D
:101670009342FAD17047C046000100D0800100D0EB
:10168000054B064A1360064A136053609360D360AB
:1016900013615361936170478080808000E400E0B3
:1016A00004E400E01F2318401E3B8340002905D0BE
:1016B000C021044A490053501360704780220149F9
:1016C0008B50FAE700E100E001228240034B1B68E7
:1016D00013405A1E9341D8B27047C04600E100E063
:1016E00001238340014A13607047C04600E200E0D6
:1016F000064B10309B688000C358054A00209B1A97
:101700002F229A424041C0B27047C04600ED00E02F
:101710003C11002070B50D00EFF3108672B60F4A31
:101720001368002BFCD0BFF35F8F0D4B10309B680C
:1017300084001B590B4A934203D09D4201D001F013
:1017400001F8074B9B681D51BFF35F8FBFF35F8F9D
:101750000022024B1A6086F3108870BD240100D06D
:1017600000ED00E0C1010010F0B557464E46DE46E0
:101770004546E0B585B0060000911700EFF3108BE9
:1017800072B66A4A1368002BFCD0BFF35F8F002546
:10179000674B5D579A46002D00DAA9E06B00654C57
:1017A00001935B199B009846A146C1444B465246A3
:1017B0009B7910361370604BB6009B6899590B1BD0
:1017C0002F2B33D95D4B994200D0ACE0019B4246B0
:1017D0009C465B4B6544AD0063535A4B0232A218E2
:1017E000043B9B1A1B05584A5B0D651913436B801C
:1017F000564B0121AB80FF23AB71009BEF71AB60B7
:101800004B460B4319004C4B9B689951BFF35F8FBC
:10181000BFF35F8F0022454B1A608BF3108805B031
:10182000F0BCBB46B246A946A046F0BD01200A0066
:101830008243D3798C46BB4231D845461300444994
:101840001B1B5B415943090D3D4B63533D4B023517
:101850006519043B5B1B1B053B4D5B0D2B43AA46E7
:101860004D466B800425AC465546E044131F444466
:101870001B1B1B055B0D1D434B46997100999D80F9
:1018800099604946DF71334B01431360BBE7580051
:10189000C01880002018C179B9422FD90200062350
:1018A000D356002BF3DA02932B4B61460393131D9F
:1018B0009A4604235B429C46E14450464B461B1A21
:1018C0001B055B0D9C46204B957198466346404630
:1018D00003439380019B5A199200039BA418A38091
:1018E000029B1C4AA371009B2260E771A3608AE7F8
:1018F00000F028FF002553465D574FE7908802937C
:101900004005131D9A46031561469C464046D44443
:10191000634604302018181AE0230005400D1B020E
:1019200018430390C5E700F00DFF4FE7240100D0F6
:10193000F3A300203C11002000ED00E0C1010010E5
:1019400000A1FFFF6C11002000E0FFFF01BDFFFFC1
:10195000AAAA00000148804701BD000070B501241B
:101960000443EFF30581EFF3108C72B6214A13683C
:10197000002BFCD0BFF35F8F1F4B05001F4AED1AF1
:101980006D416A43120D1E4D8900AE6852B2765801
:10199000A6421CD00621595691421CD012215956FC
:1019A000914222D01E215956914220D02A215956C7
:1019B0000324914210D0134B19781A708171BFF330
:1019C0005F8F00220B4B1A608CF3108870BDAB68E0
:1019D0000D4C5C50EFE700246100091989005B1889
:1019E000FF21997109499980E5E70124F4E7022470
:1019F000F2E7C046240100D03C110020AAAA000052
:101A000000ED00E0F3A30020C101001001BDFFFFC5
:101A100010B5084B084C82B001000093002205234A
:101A20002000FFF7B3FD002801DB1F23181A02B0C6
:101A300010BDC046CC5B0010F7A30020024B9C46B3
:101A400061448900016070474000003470B5114C5A
:101A5000114DAC420FD2FF262368002B0CD0FFF7AC
:101A6000E3FD01002000FFF7E9FFA680BFF35F8FD1
:101A70000834AC42F0D370BDFFF7D6FD0100200062
:101A8000FFF7DCFF2671BFF35F8F0834AC42E3D36E
:101A9000F1E7C046F81100200812002010B504003C
:101AA000FFF7C2FD01002000FFF7C8FFFF232371ED
:101AB000BFF35F8F10BDC04610B504000120FFF7D3
:101AC000BFFD034BC3189B002360BFF35F8F10BDA6
:101AD00040000034034B9C46614489000160BFF321
:101AE0005F8F7047400000340A4B1968EFF3108095
:101AF00072B60A68002AFCD0BFF35F8F1B68BFF381
:101B00005F8F00221A6080F3108840BF0020002100
:101B10007047C046D0A30020F0B5DE4657464E467B
:101B20004546E0B583B0EFF3058203231340B54A81
:101B3000990052580091904601229A409346B24B28
:101B40001A60B24B01935B46B14843634346082297
:101B50009B5E9946002B3ADA43469B881BB2002BCA
:101B600000DB9DE043469B79002B00D0E1E043463B
:101B700008241C5F002C20DB43465A6963001B19B4
:101B8000DB00D3189D68DC686B1C00D103E1A04822
:101B9000009984466144826A0B69AE1A9B1A9E4280
:101BA00013D35A46036A1A420FD0994800F0B0FB8B
:101BB0008C4202DCC7D18542C5D940BF03B0F0BC1E
:101BC000BB46B246A946A046F0BD0D61EDE74246D0
:101BD00052695B0092464B44DB009A4453469E6830
:101BE000DF6800F095FB8F42B6DC00D1F8E0002FF3
:101BF00000DAD9E05246534654691B69019A934270
:101C000000D1CCE0414652460820085E52880004CC
:101C100021001043984704000D0023002B4300D1FE
:101C2000C2E0002D00DBDFE030003900001BA941DD
:101C300053469860D96000229A5E002A00DA8BE74A
:101C400043465D6953009C18E4002C19A768E468BA
:101C50008C4200DD80E702D1874200D97CE746460E
:101C6000328108360DE08C4200D1C6E01E00002310
:101C7000F25E002A0ADB53009C18E4002C19A768C6
:101C8000E4689B18DB00EB188C42ECDD53461A80AD
:101C90004B46338043469B881BB2002B00DA61E73A
:101CA00043461A69EFF3108172B61368002BFCD01B
:101CB000BFF35F8F43469E88012342465B42938079
:101CC00036B21369BFF35F8F00221A6081F3108868
:101CD000002E00DA46E743465D69083342469C46DB
:101CE0007700BF19FF00EF19BB68604698460823CC
:101CF000D15E9246FC68002907DA0EE0A24246D087
:101D000018000023C15E002906DB4B005B18DB00D6
:101D1000EB18DA68A242F1DD524606800023FE5E2F
:101D20003980002EDCDA904643469B79002B00D1A7
:101D30001DE7002342469371434646460821595EFB
:101D400008364B1C00D138E747468946556902E002
:101D500006004B1C18D04B005B18DB00E8180A008B
:101D60008C46E95E43881BB2002BF1DA01235B420B
:101D7000DC178360C4604A4503D031803B8903800F
:101D80003A81E1464B1CE6D1B8464C46F2E69A68E9
:101D90004245B5D9C0E7631C00D0F8E605E720004E
:101DA00023699847002825D1534642461B88138152
:101DB0001269EFF3108372B611680029FCD0BFF3EB
:101DC0005F8F4246514652880A80424649465180BA
:101DD0001269BFF35F8F0021116083F31088BBE6A7
:101DE000864200D803E7B7E6094800F091FA0019E7
:101DF00069411DE7656824680FE7874200D835E729
:101E000044E7C046B4A200203C700540191B0010F6
:101E10000040054070B52E4C2569002D04D00A21E4
:101E20002C48FFF70BFE70BD2B4E0321300000F055
:101E300065FAE660FFF7F8FB284B03229C46D023A7
:101E400022701B061B6801216370254B6044A36050
:101E50000F23800020610220638063694942A180D2
:101E600019800231198647311D83585218315A5250
:101E700075325C3999521832013199521832013158
:101E80009952183201319952083518329D52023157
:101E9000183299521832013199521832013199523F
:101EA00018320131995218320131995218320131E8
:101EB00099520C4B0C49DC6001303562FFF72AFC6B
:101EC00001210320FFF7EEFB084B1D60A7E7C0468A
:101ED00084110020D0A300200040054040000034C1
:101EE000FFFF1000B4A20020191B0010386005404D
:101EF0000048704784110020F8B51F0008AB1B781C
:101F000004001600002B08D100F00AFA32003B0052
:101F1000121A8B41002B00DA53E02269EFF3108094
:101F200072B61368002BFCD0BFF35F8F0223E15E13
:101F300063694A005218D2009B18002937DB1A88BF
:101F400062802269BFF35F8F0025156080F31088DF
:101F5000069A9E60DF601A61079A5A615A880132B8
:101F60005204520C101C002A1FD082B25880080460
:101F700010432669EFF3108772B63268002AFCD04E
:101F8000BFF35F8FA2881A80A1802369BFF35F8FA0
:101F900000221A6087F310880B4923788C4601329F
:101FA0009A40E36863441A60F8BD0120DDE72369C5
:101FB000BFF35F8F00221A6080F310880120404237
:101FC000F2E70020F0E7C0463C20000070B50100B9
:101FD0000469EFF3108C72B620680028FCD0BFF3C0
:101FE0005F8F02200D5E4C6968004019C000241804
:101FF000002D37DB208848800869BFF35F8F0026FB
:1020000006608CF31088E3606388049801332061D4
:102010005B0405985B0CA26060611A1C002B1FD04A
:1020200093B22804628018430A69EFF3108C72B6E9
:102030001368002BFCD0BFF35F8F8B8823808D80CB
:102040000B69BFF35F8F00221A608CF310880B7846
:1020500001329A40CB6808498C4663441A6070BDCF
:102060000122DDE70B69BFF35F8F00221A608CF35A
:10207000108801204042F2E73C20000010B543895F
:102080000A1493421ADD53009B184269DB00D318EF
:102090000469EFF3108C72B62268002AFCD0BFF3FB
:1020A0005F8F5A88090494B2090C8A4208D00369E8
:1020B000BFF35F8F00221A608CF31088002010BDE0
:1020C0008022120214435C80012302698371BFF3F2
:1020D0005F8F002111608CF31088044902788C46D0
:1020E0009340C268012062441360E8E73C2000008E
:1020F00040787047F0B504000D0006267642F717C9
:10210000C64636196F4100B582B08F4214D811D03F
:1021100000F006F932003B00121A8B41002B17DC4D
:10212000002B47D02000290000F004F902B080BC49
:10213000B846F0BD8642EBD90022002316001F00EE
:1021400000F0EEF832003B00121A8B41002BE7DD65
:1021500000F0E6F832003B00121A8B41002B0ADB3C
:1021600000230193154B3200009315483B00FFF705
:102170002DFF0028D6DB00239C46B046114A124EA4
:10218000736A9F4204D8B16A8845CBD99F42C9D1AE
:102190001168EFF3108072B60B68002BFCD0BFF310
:1021A0005F8F1368BFF35F8F6146196080F31088FB
:1021B00020BFE5E7002AB5D0CAE7C046E91A0010FB
:1021C00084110020D0A300200040054070B5060017
:1021D00000F0A6F8FA2204000D00002330000021D0
:1021E000920000F07FFC8023001969411B06994290
:1021F00002D3012002494042FFF77CFF70BDC04678
:10220000FFFFFF7FF0B5D6464F464646C0B50400F7
:102210000D0082B0EFF305878946002F0ED03449B8
:1022200000204B6AAB4203D38A6A0130A24226D314
:1022300002B0E0BCBA46B146A846F0BD2D4B984668
:10224000DB689A46434650461E7800F061F80B0062
:10225000514602000436B600715820008E1A29003B
:10226000801A99418F4211DC0ED020BF204A0020F5
:10227000536A4B45DCD3926A0130A242D8D25B1B31
:102280005A1E9341D8B2D3E78642EED900F048F8FF
:1022900022002B00121A8B41002B1ADB0023019322
:1022A000154B2200009340462B00FFF78FFE011EC6
:1022B0000FDD0F4B5A6A4A4517D39B6AA34212D3CC
:1022C0004046FFF7DBFE0A4A0020536A4B45AFD376
:1022D000D1E7074A0020536A4B45A9D3926A0120EF
:1022E000A242A5D2CBE74A45EAD120BFE8E7C046E3
:1022F0000040054084110020E91A001010B5024A80
:102300000248FFF721F910BDE85B0010409E002055
:102310000300416A0A00986A596A8A42FAD17047F2
:10232000034B596A0A00986A596A9142FAD1704778
:1023300000400540064A536A9942FCD807D1044B35
:1023400002E05A6A914202D19A6A8242F9D37047F6
:1023500000400540F8B5DE464E4657464546E0B5D6
:102360008B4605000A991800160000F029FB0A9B0D
:102370006C001F02324B64199C46A40064446368DD
:1023800081469F4200D967602B1FDBB29846012B24
:1023900030D9C02380229B01E31812011A60294B17
:1023A000AD0059599A4600291BD17301E0262268D5
:1023B00053401E40802342465B01E3181E60012A01
:1023C00030D9802380229B01E31812011A60534602
:1023D0004A4667605A51F0BCBB46B246A946A04681
:1023E000F8BD586900F0ECFA013043001B18033BBC
:1023F000FDD2DAE75B46012BCBD1C02303229B0140
:10240000E3181A60023AA3681A42FCD07301E0266E
:102410002268AD0053401E4080230A4A5B01924669
:10242000E3181E605A462168514003220A401A6090
:1024300001225B469A40A3681A42FCD0C1E7C0461D
:1024400000800040449E0020F0B546464F46D646E8
:10245000C0B51F00344B44009C462418A4006444BB
:10246000636888461600FF2B02D880235B006360F8
:10247000031FDBB29A46012B30D9C02380229B0177
:10248000E31812011A60294B850059599946002911
:102490001BD17301E026226853401E408023524620
:1024A0005B01E3181E60012A30D9802380229B0142
:1024B000E31812011A6080235B0063604B465F5192
:1024C000E0BCBA46B146A846F0BD586900F078FABB
:1024D000013043001B18033BFDD2DAE74346012BD2
:1024E000CBD1C02303229B01E3181A60023AA368F0
:1024F0001A42FCD07301E0262268850053401E403A
:1025000080230A4A5B019146E3181E604246216817
:10251000514003220A401A60012342469340A268B8
:102520001342FCD0C1E7C04600800040449E00201A
:10253000014B8000C0587047449E0020F8B504004D
:1025400021481E0017000D0000F03AFA0100380083
:1025500000F036FA069B36041B031E432368002B4B
:1025600020DB1A4B1A49E3185A1E9341802292012C
:1025700094465B421B0B174A1B0363441360164AC5
:1025800013601F000A689743FBD1144B2560E218C3
:102590002123A06013602368002BFCDA0823E66087
:1025A0001360F8BD3F2322681340AB42D9D1A36822
:1025B0001B051B0D8342D4D1EE22E368D2021340E7
:1025C000B342CED1EDE7C046001BB7000040FDBFCF
:1025D00008C0004000E0004000F00040043000006F
:1025E00010B580241C4BE4051C6000281AD0012380
:1025F0001A4C18431A4BDC611A4C44401C62596255
:1026000098628021144BC905196017481749086062
:10261000E021C9041960002A07D18022144B120658
:102620001A6010BD0E4BD861EBE753019B1A9B005B
:102630009A18802312015B049A4209D213000D49B3
:102640000B60074B5A608022094BD2051A60E8E7FD
:10265000094B1A00F3E7C04600B00540D3C007B0ED
:10266000008005402D3FF84FFCFF0100082001408D
:1026700000A00540A4A20020FFFFFF008023024A23
:102680009B000B43D362704700800540142310B5B4
:102690000100188804331B88984710BD162310B515
:1026A0000100188802331B88984710BDF8B54746CB
:1026B000CE4680B50F1E19D014239946043304006A
:1026C0000025012698464B461888434621681B88FA
:1026D000984701C4431E9841013540420640AF422D
:1026E000F1D13000C0BCB946B046F8BD0126F8E7CC
:1026F000142370B50400188804331B880D000549A5
:10270000984703000020002C01DB0130A040290085
:102710009847C04655420000AA23064A1B01136091
:102720008D235B00D3600449044B19605368002B70
:10273000FCDA70470040024000B0FA00006002403E
:102740007047C04610B50148FEF7E6FE0C5C00106D
:1027500070B5074D074EB54209D20024013E761BE5
:10276000B60808CD984723000134B342F9D170BDB3
:10277000085B0010445B001070B5074D074EB54272
:1027800009D20024013E761BB60808CD98472300E5
:102790000134B342F9D170BD3C5B0010445B0010C2
:1027A000054B064A06491A60064A074B1A60100094
:1027B0000B689843FBD1704700E00040BFCDFBFEA3
:1027C00008C00040FE7F3C0000F00040044BDB6C82
:1027D000002B03D18022034BD2021A607047C046FF
:1027E000000011504C201150044A054B1A60054A54
:1027F0001368DB018033FBD17047C046FFFFFF0148
:1028000000F0004008C000404022034B9A675A671E
:102810001A67DA667047C04600F0014010B5FEF74F
:1028200021FF10BDF8B52749274C284D641AA61082
:102830003200302E00D930222800920000F0AEF98C
:10284000BC2C3BD830202F232C196407204A801B36
:10285000E40F9B1B052B16D93700002C02D0B300C8
:10286000771CEA50001B33199B004108EB18C90084
:10287000C9181A605A6008339942FAD101230342F9
:102880001CD09843C619B300EA50731C2F2E15D0E4
:102890009B00EA50B31C2E2E10D09B00EA50F31C74
:1028A0002D2E0BD09B00EA50331D2C2E06D09B0002
:1028B000EA50731D2B2E01D09B00EA50054B9D6002
:1028C000F8BDC04600010010C0010010000000204B
:1028D000C101001000ED00E0002310B5294C82B0CA
:1028E000A367FFF719FF0122274B1A60636C012BC6
:1028F000FCD10322254B1A60224A936B012BFCD199
:10290000013300930121224A22480433FFF716FEC7
:10291000052301210093204A2048FFF70FFE0022E3
:10292000022104201E4BFFF78FFD0022012105200C
:102930001C4BFFF789FD0022002107201A4BFFF7EF
:1029400083FD002200210820174BFFF77DFD802327
:10295000DB000093002200210920134BFFF7FAFC53
:102960000022104B00210620FFF76EFD0420FFF728
:10297000DFFD0E4900F024F801000020FFF77EFE85
:1029800002B010BD008000403CB0004030B00040BC
:10299000002F685900800240008C864700C002402A
:1029A000001BB70040597307006CDC0240420F0067
:1029B00001480421014B1847A0110020AD2600104A
:1029C000114A936F9B0813D210665166002905D0F7
:1029D000FFE7FFE7FFE7516F106F704704B500286E
:1029E00001D00020C04303F04FF8002104BDC046D1
:1029F000F0B5146E556E576F166FFFF7E5FF14664E
:102A0000556657671667F0BD000000D010B5014845
:102A1000FEF782FD185C0010132370B51D78012DA0
:102A200019D014DD1D48FFF739FE06001C48FFF7DA
:102A300035FE1C4C80223100200000F0AFF8022D42
:102A400006D01948FFF722FE184B186070BD154CD0
:102A5000174BA364F5E7174B124C23606360A36028
:102A6000E36023616361A361E36123626362A36244
:102A7000E36223636363A363E36323646364A36424
:102A8000E36423656365A365E36523666366A36604
:102A9000E36623676367A367E367D9E753440000EE
:102AA00053460000909300204C330000CCA200203D
:102AB000B92A00100D2A001007B5604601880A0ADD
:102AC0000230DF2AFAD1C9B2820804D302884088D2
:102AD0000004104300E00068014A5050039007BD15
:102AE0009093002051434343C9188C46110C83B284
:102AF0004B4310B4040C614392B280B25043624322
:102B00001C041B0C001910BC59411304120CC018F2
:102B1000514161447047000010B50148FEF7FCFCCC
:102B2000945C0010132310B510481C78FFF7B6FD15
:102B30000100012C0AD003DD80220D4800F02EF8A0
:102B40000C48FFF7A3FD0C4B186010BD084C542235
:102B5000200000F023F82200084980322368002B6F
:102B600000D1216004349442F8D1E9E753460000D3
:102B7000D0A200204C330000CCA20020192B001062
:102B800001480421014B1847B0110020AD26001068
:102B9000014B1B6818470000B0110020014B5B6817
:102BA00018470000B011002010B5002800D110BD5A
:102BB00000F024F9FBE7C04610B5094A0300146889
:102BC00084B0002C08D0012200910648524203A98B
:102BD000A047012004B010BD00F05CF90020F9E727
:102BE000A0A20020A92B001000BEFDE710B5FFF742
:102BF000FBFFC04670B5FFF7ABFD074D074EB54272
:102C000009D20024013E761BB60808CD9847230060
:102C10000134B342F9D170BD445B0010505B001029
:102C2000030010B5080011001B68984710BDC0468E
:102C3000F0B5C64600B5437D07000D001600002B19
:102C400038D0002A2EDD00216A1E90466A5C037D82
:102C50004C1C00200A2A0CD0A64216D043461B5D0D
:102C600021000D3B5A4253416A5CDBB24C1C0A2ADC
:102C7000F2D1002BF0D1884217DB022110483B68CB
:102C80009847A64207D02000E8E7864203DD311AC4
:102C90003B6828189847AD19013D2B780D3B5A42E7
:102CA00053413B7580BCB846F0BD091A3B682818F3
:102CB0009847E2E70368110028009847F2E7C0460A
:102CC000E45E0010F0B5DE4657464E464546E0B598
:102CD00085B017001C0006000D00FFF721FB002344
:102CE000314A12184B41802109068B4202D301223E
:102CF0002E4B52422E4908008A4602F0EDFE01900A
:102D00006B1C03D1300002F009FE0500002C26D018
:102D1000284B9846284B1C68002C15D0002F21D139
:102D2000264F02E02469002C0ED02368002BF9D036
:102D30003B68002B01D09C42F4D120002A003100D6
:102D4000C0472469002CF0D1019B002B28D128001A
:102D500005B0F0BCBB46B246A946A046F0BD184B34
:102D60009846D7E7154B994602ABDF1D0A239B46D1
:102D700002E02469002CE7D02368002BF9D04B46F1
:102D80001B68002B01D0A342F3D12A0031002000A0
:102D9000C0475B460122390020003B70C047E8E78E
:102DA000504602F051FED2E740420F00FFFFFF7F86
:102DB00000120020312C0010949E00209C9E0020C8
:102DC000212C00100A4A1368002B05D10CE01A00D0
:102DD0001B691032002B07D09842F8D1002902D18C
:102DE00003691360016170470029FCD01060FAE7A5
:102DF000949E002010B500F08DFA10BDF0B5CE46BF
:102E0000474680B583B06B460600DD1D2870FFF78E
:102E100087FA00231A4A12184B41802109068B4277
:102E200002D30122174B524217490800884602F08C
:102E300053FE164B81461C68002C14D0144F02E040
:102E40002469002C0FD02368002BF9D03B68002B9D
:102E500001D09C42F4D1200001222900FFF7E8FEB6
:102E60002469002CEFD14B46002B05D1300003B074
:102E7000C0BCB946B046F0BD404602F0E5FDF5E7FE
:102E800040420F00FFFFFF7F00120020949E0020B1
:102E90009C9E002070B5040002F040FD012301005B
:102EA000050001222000FFF70DFF084B1C68002CD5
:102EB00006D06368002B05D098472469002CF8D110
:102EC000280070BD2469002CF3D1F9E7949E0020FE
:102ED0007047C0460022014B1A707047F4A30020CF
:102EE0004B790020FF2B0BD18B79002B08D1CB79AC
:102EF000012B05D1082A03D9024B8A7809301A70B0
:102F00007047C046F4A300200120704710B5012986
:102F100001D0012010BD13495379107909781B02A3
:102F2000034300209942F5D15378012B08D0022B9E
:102F3000F0D1002064220021FFF752FB0120E9E7D5
:102F4000D37891781B021943DB0507D54A0A100094
:102F500001231A407E331940FFF7CAFB01204A0AB9
:102F60004042F5E7F4A3002000487047B05F00102E
:102F700070B5050014000120012909D15378002003
:102F8000012B05D1637912791B021343072B00D063
:102F900070BD21002800024A9F3301F05FFAF7E775
:102FA000085F00100123037000487047E85E0010BE
:102FB0004B780A781B0213438A7810B512041A431F
:102FC000CB781B0613439622D200934200D010BD4B
:102FD0000022012011004042FFF78AFB024B1860DB
:102FE000024B19607047C046349E0020389E002076
:102FF00010B5024B1878FEF773FB10BDF5A3002047
:10300000154B70B51A68002A22D0EFF3108172B602
:1030100010680028FCD0BFF35F8F00200F4A596072
:1030200010701B68BFF35F8F186081F31088002455
:1030300000250B4E3078FEF747FB002804D1002412
:1030400000252900200070BD3078FEF749FBF8E725
:10305000FA240025A400ECE7ACA20020F6A300208F
:10306000F5A3002070B5040000200E0001F016FB4F
:10307000002836D0002001F027FB002831D0FFF7D0
:103080004FF90023184A12184B41802109068B4240
:1030900016D2164D280002F01FFD002821D0002076
:1030A00001F0FCFA00280FD101200021404200F07D
:1030B00009FD03246442280002F0C6FC200070BD14
:1030C00001220B4B5242E4E7002001F0FDFA0028F8
:1030D000EAD021003200002001F000FB041EEAD1FA
:1030E000E7E703246442E9E740420F00D4A300204D
:1030F000FFFFFF7F10B5FFF713F900230E4A1218E8
:103100004B41802109068B4202D301220B4B5242D4
:103110000B4C200002F0E0FC00280CD00120002124
:10312000404200F0CFFC002001F022FB0028F5D146
:10313000200002F089FC10BD40420F00FFFFFF7F1E
:10314000D4A30020F8B5DE46574680B505000C0034
:10315000FFF7E6F80023374A12184B418021090691
:103160008B4202D30122344B5242344908008A4632
:1031700002F0B2FC002803D1C0BCBB46B246F8BD89
:10318000002001F08BFA00284AD00026002C43DDF5
:103190002B4B9B4614E0A919002001F023FB0700EC
:1031A00001200021404200F08DFC002001F0E0FAF7
:1031B000FFF7B6F8224BF61918605960B4422BDDC0
:1031C000002001F02FFBA71B0200B84200DD3A00EF
:1031D000002AE0D101200021404200F073FC0020D1
:1031E00001F0C6FA002001F059FA002814D000209E
:1031F00001F018FB0028E1D1FFF792F85B460F00C1
:103200001A685B68002184460E4812184B419F42A1
:1032100002D8D3D19445D1D9504602F015FCABE782
:1032200000200021064B18605960504602F00CFC4B
:10323000A2E7C04640420F00FFFFFF7FD4A300205B
:103240008893002020A1070030B52B4C85B00021C9
:10325000200002F021FC00281CD1284B1A68002A0B
:1032600016D0EFF3108172B610680028FCD0BFF3BF
:103270005F8F01242248596002781B68D2B2047023
:10328000BFF35F8F0020186081F31088002A17D0E9
:1032900005B030BD01200021404200F013FC0020A9
:1032A00001F012FA0500200002F0CEFB002DEFD055
:1032B000144B1B68002BEBD0134A10689847E7E7C4
:1032C000FEF716FE0400FFF72BF8FA220023920007
:1032D00012184B41802109068B4202D301220B4B6D
:1032E00052420121029100210191094920000091DF
:1032F000FEF702FECCE7C046D4A30020ACA200201B
:10330000F6A30020349E0020389E0020FFFFFF7FA0
:1033100001300010D02310B51B0684B01C68FEF7E6
:10332000E7FDFEF7E5FEA04202D0002004B010BD8C
:103330002A4B002100201B7801F070FD284803680B
:10334000002B47D00120FEF763FBFF23254C2649C5
:1033500020701840FEF7DEF920780121FEF7A2F96F
:103360000520FEF7C5F9002826D1082200211F48B4
:10337000FFF70EFCFEF7BCFD0400FEF7D1FFFA22BA
:103380000023920012184B41802109068B4202D380
:103390000122174B5242012102910021019115494E
:1033A00020000091FEF7A8FD0028BEDB1248012195
:1033B000FFF708FD0120B9E70120FEF741F90B4BAB
:1033C00001001800FEF786FB002205200B49FEF7DE
:1033D000CBF9EBE7FEF762FBB4E7C046646100108F
:1033E000D4A30020F5A3002049320010ACA2002095
:1033F000FFFFFF7F01300010C0110020F12F0010EF
:10340000004870474C60001000487047F85F00109B
:1034100010B5040017480378002B20D0002C06D1EB
:10342000154B16484380063BFF3B038010BD052C1F
:1034300019D8134BA400E05812490123013804E0C5
:1034400001330A800231142B0FD0C25C002AF7D15D
:10345000C022DBB25B00920008481343E5E711216C
:1034600000F01AF8DAE70020E0E7CA2303489B00DF
:10347000DBE7C046DCA30020090400006C9E0020AE
:10348000E05F00106E9E002010B5024800F0D8F8F2
:1034900010BDC046C4A2002030B54B1E012900D18A
:1034A000A7E0664A11780D092C0030349F2900D915
:1034B000A2E00470012B00D1BEE00F21147821405E
:1034C0000C003034092900D998E04470022B00D157
:1034D000B2E054782509290030319F2C00D990E0C2
:1034E0008170032B00D1A7E00F2121400C00303464
:1034F000092900D987E0C470042B00D19CE094789E
:103500002509290030319F2C00D97FE00171052B5E
:1035100000D191E00F2121400C003034092900D95D
:1035200076E04471062B00D186E0D4782509290085
:1035300030319F2C00D96EE08171072B00D17BE0E8
:103540000F2121400C003034092966D8C471082BA2
:1035500000D171E014792509290030319F2C5FD802
:103560000172092B68D00F2121400C003034092949
:1035700058D844720A2B5FD054792509290030317C
:103580009F2C52D881720B2B56D00F2121400C005A
:10359000303409294BD8C4720C2B4DD094792509AD
:1035A000290030319F2C00D9073101730D2B43D0F6
:1035B0000F2121400C003034092901D937310C008A
:1035C00044730E2B38D0D1790C09220030329F2958
:1035D00000D9073282730F2B2ED00F220A40110020
:1035E0003731092A01D830321100C173102B23D092
:1035F00010300023037030BD07345AE737310C0018
:1036000063E707316CE737310C0074E707317DE77A
:1036100037310C0085E707318EE737310C0095E72D
:1036200007319DE737310C00A3E70731AAE73731AF
:103630000C00C4720C2BB1D1C018DAE7C4A2002070
:1036400010B588B004000D2200216846FFF7A0FAEB
:103650000D22002104A8FFF79BFA4B236A46684617
:10366000137004A90D2202F0E7F9152108222000A9
:103670006944FFF793FA08B010BDC046F8B500F0F2
:1036800043F90C23194DFF22AB6705201849FEF7BB
:103690006BF8184C402200212000FFF779FA4027F0
:1036A000002301262121144A66702783A26013603B
:1036B00063545F31618445396354104A1049636033
:1036C000E2602787A1620B606362E26202F0C4F9E4
:1036D00080239B052E64EB6490230A4A0120EA5064
:1036E0008022094B5202DA64F8BDC0460000115036
:1036F000E1040020A09E0020840010500001105022
:103700008000105010D001000020115010B5012190
:103710000520FDF7C7FF10BD10B5002200210248AB
:1037200000F012F910BDC046C09E0020044B197075
:10373000002904D080219023024A8902D150704789
:10374000EEA30020002011500B785B0602D14B78CD
:10375000052B00D070478A78014B1A60FAE7C04603
:1037600000001150F0B5C646C87800B58007830F39
:103770001800012B60D08F780A794B797F2139406E
:10378000FC091B024E001343334D32195201AA1893
:10379000977001276740577000275B055B0DD77056
:1037A0001383D076B846CA00012C32D02B4FBC46CA
:1037B0008F016244BC46AC446746BA604746176016
:1037C000002932D0264AC9009046624641445160E1
:1037D0003F223F339343022837D0224937190A68E2
:1037E0007F01D3180B602049EF19FA608B422ED865
:1037F00036197601AD19EB7E1C499B064A401343EE
:103800008022120613436A681360012080BCB84608
:10381000F0BD174FBC468F016244BC46AC446746BE
:10382000BA6247461760002908D1002364012C19A9
:103830006360104BE360E8E70020E7E70B4AC9004C
:103840009046624641445162C2E75B00C5E7FEF71D
:1038500079FFFA68CCE7C046A09E00208400105093
:1038600004001050A8A20020FF0F105000001050BC
:10387000800010500001105010B502F0EDF810BD9E
:1038800010B57F200C0020404000E4091100001911
:103890001A00034B4001C01800F056F8012010BD7B
:1038A000A09E00207F23180010B50840CA090B42D3
:1038B00003D107497D3B9B1A8B664000801880220C
:1038C000044B40010021C018120102F015F910BD8F
:1038D00000201150A09E00207F22130010B50B4045
:1038E0000A4200D110BDC9095B005B1804485B01A6
:1038F000C018002300220349C37002F0FDF8F1E76D
:10390000A09E0020FFF7FFFF80220A4B520410B553
:103910001A60094B09491A6010000B689843FBD1E3
:103920008022002152010648FFF732F90922054B97
:103930005A6710BD00E0004000F0004008C00040A1
:103940000000105000001150002310B5C382013355
:10395000828283760161040002F086F8002804D098
:1039600080219023074A8902D150200002F084F878
:10397000002802D00123237710BD200002F0B4F804
:10398000FAE7C046002011507047C0467047C04655
:1039900000207047002070477047C0467047C046FF
:1039A0007047C0467047C046024B5878431E984146
:1039B000C0B270474C980020024B18784007C00FE7
:1039C0007047C0464C980020F0B5D6464F46464654
:1039D000C0B5314B07009A461B780E00FF2B01D073
:1039E000012044E0002941D0002154222B48FFF758
:1039F000CFF800222A4C2B4B20001A70FEF74EF80D
:103A0000294B1C60294C2000143CFEF755F820007F
:103A100001F00CFE264B274D1C60274B002B2BD0B2
:103A20002800FFF7BFFA254B2A78186024490024A4
:103A3000894622490023884610E043461B686201FC
:103A40009B18002B12D05B68002B0FD098472A7868
:103A50000134E4B2511C2300A1420FDBA242ECD896
:103A60009B1A5B014B445B68002BEFD10020E0BC4C
:103A7000BA46B146A846F0BD2A78D7E7534631008A
:103A800038001F70FFF7FAFD0028EFD03800FFF76D
:103A90003DFE0120EBE7C046F41100204C980020C9
:103AA00044980020EFA30020A0980020EC110020F3
:103AB000A4980020EDA30020A52F00109C960020C4
:103AC00008610010F0B5DE4657464E464546E0B563
:103AD000C84B91B002931B78FF2B00D13EE1C64B3F
:103AE000C64E9B465F46C64B0DAC0193C54B00933B
:103AF00035686A69EFF3108172B61368002BFCD049
:103B0000BFF35F8FA9612800210001F0BDFB6A6946
:103B1000AB69BFF35F8F0021116083F31088002829
:103B200000D11BE16378082BE2D89B00FB589F462D
:103B30006368002BDCD0A0689847D9E77F22217901
:103B4000AF4D0A405300EB189846C80980444046E0
:103B50000123303005799D430571057903339D4379
:103B60000571002A00D100E14346A74A1B7D127867
:103B7000934200D3EFE0A54A5B011568ED18002DD4
:103B800000D1EBE0A36862792078AD69A847AFE780
:103B90009F4A1378002B00D1E0E01378013BDBB2A1
:103BA00013701378002BA3D10122954D01212B789E
:103BB000042013432B703423EA5C8A43EA54EA5C02
:103BC0008243EA540133EA5C8A43EA54EA5C824362
:103BD000EA54237800209B4600F0A0FC6022237961
:103BE0001A40602A00D1EFE0402A00D1F5E0DB0660
:103BF000DB0E012B00D113E1022B00D1C7E0002B1B
:103C000000D0E1E0202A00D11CE2002A00D0DBE055
:103C10006379092B00D9D7E07E4A9B00D3589F4691
:103C2000774D2B78DB0700D462E7FFF7BBFE5FE739
:103C3000019BDB78DB0700D45AE76068FFF7A6FE3C
:103C400056E76F4D2B78DB0700D451E72878000743
:103C5000C00FFFF7A5FE4BE723786A4999468B46CC
:103C6000694B6A4998468A4639001A7847460023C4
:103C7000B04600254E46894610E053461B686A014F
:103C80009B18002B00D176E0DB68300098473A782B
:103C90000135EDB2511C2B008D4244DC9542ECD332
:103CA0009B1A5B015B44EFE7237858499946564BD2
:103CB0008A4698463100BB464E461A7800250023B6
:103CC000474689460FE053461B686A019B18002B44
:103CD00055D0DB68300098473A780135EDB2511C79
:103CE0002B008D4207DC9542EDD39B1A009A5B01B5
:103CF00094466344EDE7019D542200212800FEF71D
:103D000047FF1022FF214448FEF742FF28002022EF
:103D1000FF2114304E465F46FEF73AFF00F0F4FBF9
:103D2000FFF73CFEE4E6364D542200212800FEF762
:103D30002FFF1022FF21281DFEF72AFF2800202236
:103D4000FF21143046464F46FEF722FF00F0DCFB11
:103D50002379AB70CCE6501C984213DA11B0F0BC5A
:103D6000BB46B246A946A046F0BDA368627920785A
:103D700000F0E8FBBCE646464F46214DE6E74E46DE
:103D80005F46CBE71F4D9B1A5B015D19FAE6702376
:103D9000217A0B4218D1C80982460F330B405B00D1
:103DA00098461948EB1853441B7D00789946834286
:103DB00066D216485B01006881469944002A00D10A
:103DC0005FE14B46002B68D120780021FFF76AFDA8
:103DD00080212078FFF766FD8AE6104800F09EFB00
:103DE000012158460EAAFFF7C3F8002800D07FE64D
:103DF000EAE7C046F411002060600010A49800209B
:103E00004C98002008610010EDA300209C96002033
:103E1000EFA300208460001050980020712F001044
:103E2000237A0F2BD0D8CF4AEB181B791578AB42E9
:103E30003ED3691C9942C7DB5D1BCB4B6D01ED186E
:103E4000686900F06BFB012158466B690EAA984720
:103E5000002800D04CE66022150023791D401A424C
:103E6000B2D163790A3B012BAED800F057FB6379DE
:103E70000A2B00D199E158460EA900F0D9FA37E68D
:103E8000431C4B4500DAF7E04B461B1A5B01994691
:103E9000B5488144002A00D1F3E04B46586900F050
:103EA0003DFB4B46012158465B690EAA98479CE7AB
:103EB000AE4A5B011568ED18002DC1D184E7A379E6
:103EC00099466B789945D6D06B78002B00D033E1BA
:103ED0004B466B70002B00D12BE148460138C0B235
:103EE000FFF792FA002800D17EE143780793022B76
:103EF00000D079E10122C179B1468B1149111340FB
:103F00000A40302112015B0113432A78A8468A43F4
:103F100013432B7009239A4682445646BA46C37807
:103F200082781B021343C31805938E4B04938E4B68
:103F300008938E4B09938E4B0A93059BB34200D88E
:103F400055E1737801220B2B03D13378F278F61800
:103F50007378042B00D044E1059B00279B1B9BB288
:103F60000693049B0B921D78002303931BE0099A90
:103F70007B011568ED18002D00D132E13100584663
:103F80002B69069A98478446082803D9069A8242E4
:103F900000D313E1049B01371D78FFB26B1C03971C
:103FA0009F4200DD1DE1BD42E1D8039B5D1B089BE4
:103FB0006D019C466544E1E76B780CAA02321370F0
:103FC000584601230EA900F049FA91E5E3881A0A40
:103FD000D8B20F2A00D9F7E666499300CB589F461E
:103FE0000EA800F0A1FA5846A179FFF795FB02222E
:103FF0002B7813432B707BE5E388012B00D0E3E69D
:1040000008222B78584693430EA92B7000F010FA23
:104010006EE5022029780CAB9A1C8B068908DB0F11
:1040200001400B431380584602230EA900F016FAF4
:104030005EE5E388012B00D0C6E608222B78134307
:104040002B7018E7237A0F2B00D9BDE6EB181D79EA
:10405000444B1B789D4228D2444B6D011B685D196F
:10406000002D00D1B0E6686900F058FA01215846E9
:104070006B690EAA9847B8E6002A00D0A4E6002390
:10408000994662790220130003928343012B15D0D5
:10409000002A00D098E62B004344534430331B7968
:1040A0000CAA9B07DB0F0232BCE75A1CAA4200DABB
:1040B0008AE6ED1A2C4B6D01ED18D4E7E388002B4E
:1040C00012D1029B1878039B012B23D0FFF7EAFB48
:1040D00043460221EB18534430331A790A43012135
:1040E0001A711A790A431A714B46002B00D1FFE46A
:1040F000586900F013FA4B4601215B690EAA584635
:104100009847002000F00AFA3523EB5CDB0700D566
:10411000EEE4B0E6FFF7E0FB43460221EB18534420
:1041200030331A798A431A711A7903998A431A71BA
:10413000DAE7FFF733FC9EE600215846FFF7F6FA70
:104140005846FFF799FBAB78074903930491054B59
:10415000064998461A780591002329001D008A46D1
:104160001BE0C046EDA30020086100109C960020D3
:1041700060980020AC600010059B6A011B689B18CA
:10418000002B4DD0DB685846984743461A780135D6
:10419000EDB2511C2B008D422EDC9542ECD39B1AC4
:1041A000049A5B0194466344ECE70CAB9A1C5846B6
:1041B00001230EA9157000F051F999E40B9A012A18
:1041C0004FD0002A3CD00023B07804E00133DBB2AA
:1041D0000F71934234D2C118C9B241440D79FF2DF9
:1041E000F4D04E464546574600236B70ECE54E46EC
:1041F0005746FFF7D1FB3EE65546542200212800E2
:10420000FEF7C6FC1022FF21281DFEF7C1FC280086
:104210002022FF211430FEF7BBFC039BAB7057E656
:104220005546FAE7FEF7A0FE021E00D1CCE5D37892
:1042300091781B020B4358460EA900F00FF9D4E504
:1042400065463B002A0031000A9800F08DFEAC461E
:10425000049B039A1B7866440133934200DB6CE6AF
:10426000BFE7174B29699942ADD1079AABE7FFF732
:104270008FFB021E00D1A7E5584613780EA900F067
:10428000EDF8B2E52189FFF7C3F8021EF4D19BE5F2
:10429000022A0FD0FFF77EFB021EC8D194E5FFF77C
:1042A000AFF8021E00D18FE5122358460EA900F088
:1042B000D5F89AE5FFF7A8F8021EB8D184E5C04604
:1042C00029490010F8B557464E46DE4645460C00D3
:1042D000E0B516001F00002A3CD01F4B00259A466F
:1042E000702399461D4B9B4617E05B46200099784A
:1042F00000F0FCFD00281FD021004046FFF732FAF5
:10430000002819D0A378DA09012A1CD00A9A0135AD
:1043100013702378E418B5421CDA6378052B0BD1AF
:10432000E3789B079B0FBB4206D153464A461B7856
:104330009846A3781A42D8D00020F0BCBB46B246BB
:10434000A946A046F8BD0B9A013513702378E418EE
:10435000B542E2DB0120F0E7F41100204C98002088
:10436000702270B5094B0C001D788B781A4201D071
:10437000002070BD064B2000997800F0B7FD0028A2
:10438000F6D021002800FFF7EDF9F2E7F411002044
:104390004C9800200B007F2010B51840DB09343307
:1043A0004000044AC018044B1168C01800F05AFDC0
:1043B00010BDC046A09800204C9800200B007F2024
:1043C00010B51840DB0934334000044AC018044BD0
:1043D0001168C01800F06EFD10BDC046A098002006
:1043E0004C98002070B57F240F480C4064000419DD
:1043F000CD09641930342079C00701D5002070BD83
:10440000012625790948354300782571FFF738FAE8
:104410000028F4D1012223799343237123790332B5
:1044200093432371EAE7C0464C980020F411002022
:1044300070B5094C0600082220000D00FEF7AEFB07
:1044400000238021E360A3602B7830009943002291
:104450000023FFF7C7FF70BD2C980020F8B5CE46AB
:1044600047469046264E80B58146082230000D0012
:104470001F00FEF793FB4346B3600023F381EC7902
:10448000AB7924021C43231CBC4200D93B1C9FB2C5
:10449000B381002C0ED0002F18D04346002B2CD017
:1044A0003B1C402F1BD89FB233787F2B1CD8002198
:1044B000144A0FE080212B780022994348460023BC
:1044C000FFF790FFC0BCB946B046F8BD7F2300227D
:1044D000317899433B004846FFF784FFF2E74023D9
:1044E0009FB233787F2BE2D9064C3A004146200038
:1044F000FEF754FB80212200ECE70020E2E7C046F3
:104500002C980020EC97002010B5142200210248BE
:10451000FEF73EFB10BDC0462C980020014B1861F1
:104520007047C0462C98002010B5054C01000822A9
:104530002000FEF733FB0023A360E36010BDC046FC
:104540002C98002070B5384C1D0023780600DA093D
:10455000C9098A4210D00020002D00D070BD210072
:104560003000FFF7F1F82369002B03D0220003216C
:10457000300098470120F1E7A0687F2B05D800287C
:1045800034D02A002949FEF709FBE289A1685219B3
:10459000E38892B24919E281A160934214D03F2D81
:1045A00012D9A389981A051C80B240282AD82078ED
:1045B000ADB27F2828D800219A4232D01B4A2B0066
:1045C0003000FFF70FFFC9E72369002B05D0220059
:1045D00002213000984700280AD080212378002249
:1045E000994330000023FFF7FDFEB7E70020B5E751
:1045F00000213000FFF756F930008021FFF752F913
:104600000120ABE74025D2E79A4207D0074C2A00A9
:104610002000FEF7C3FA80212200D0E7802100228B
:10462000CDE70022CBE7C0462C980020EC97002075
:1046300070B50500FFF7B8F9002800D170BDFFF78D
:10464000BBF90028FAD1C8236B43124CE618F17865
:104650000029F3D010331C19200000F0FFFD3F2883
:10466000ECD90020F178FFF795FE0028E6D0200075
:1046700000F0F4FD3F2808D9074BEA01D218F17881
:1046800040230020FFF7AEFED8E7F1780020FFF7C7
:1046900095FED3E724970020A096002010B50400D3
:1046A000FFF782F9002801D1002010BDFFF784F93F
:1046B0000028F9D1C8226243024B01309B181B79B4
:1046C0001840F2E724970020C82310B5434302485E
:1046D000181800F0A5FD10BD34970020F0B5C824CF
:1046E000C646802344431F4F1034050000B53C19D3
:1046F0005B029A4200D31C4A200092B200F012FEE4
:104700008046FFF751F9002803D1404680BCB846E7
:10471000F0BDFFF751F90028F7D1C8266E43BE1946
:10472000F378002BF1D0200000F098FD3F28ECD961
:104730000020F178FFF72EFE0028E6D0200000F0E0
:104740008DFD3F2808D9094BEA01D218F1784023A2
:104750000020FFF747FED8E7F1780020FFF72EFE94
:10476000D3E7C04624970020FFFF0000A09600205A
:10477000F8B50600FFF718F9002801D10020F8BDB0
:10478000FFF71AF90028F9D1C82474432500134F04
:104790002435ED19280000F043FD0028EED03F1924
:1047A0000020B978FFF7F6FD0028E7D00C4BF401A4
:1047B000E41821002800402200F0B4FDB978051E5D
:1047C00008D0030022000020FFF70CFE0028D5D0FF
:1047D0002800D4E70020FFF7F1FDCFE72497002061
:1047E000E096002070B5C82444430C4B0500E41843
:1047F00080235B029A4200D3094A200092B200F063
:1048000059FE0600200000F00BFD3F2801D83000C3
:1048100070BD2800FFF7ACFFF9E7C04648970020BD
:10482000FFFF0000C82310B543430248181800F0EA
:1048300015FD10BD48970020F0B50025184C83B039
:10484000C82200212000FEF7A3F9164B21001D709D
:10485000FF236371E1235B02A36020000823402251
:10486000A37338310095073B103000F0A3FC2700FC
:104870000123210020002600402278310093B83720
:10488000243000F097FCC0363800FDF707F93000FF
:10489000FDF704F9E56127622663656303B0F0BDA7
:1048A00024970020209700200B4B196B00290AD079
:1048B0001A6A002A0DD000221A621A63DA610022F5
:1048C0005A63012070471A6A002AFAD0D961196226
:1048D000F7E71A63F3E7C0462497002070B50F4C42
:1048E000052200212000FEF753F90D4D2B78DA0741
:1048F00007D50C4C9B070CD50121200000F0B6FE1B
:1049000070BD2000103000F091FE2B78054C9B0705
:10491000F2D4200000F08AFEEEE7C0462497002083
:104920002097002048970020F0B54B79060083B00F
:10493000022B02D18B79022B03D00025280003B073
:10494000F0BD214FBB78002BF7D18B7809253B7048
:104950000C780C196378242B0BD1082A02D80FE0AD
:10496000AA420DD32378E4185D196378ADB2242BE5
:10497000F6D0052B08D0042B02D163790A2B11D075
:104980000020FFF755FED9E721003000FFF7E8FCD3
:104990000028D2D0A3787B7023785D19E41863785F
:1049A000ADB2E8E7094B2778019301330093022267
:1049B00002233000E119FFF785FC0028BDD00E3539
:1049C000ED19ADB2DCE7C046249700202697002001
:1049D000F8B5602314001278050013400020202B46
:1049E00007D1304A6379277916781B023B439E42F0
:1049F00000D0F8BD6378222B1AD007D8202B34D0F2
:104A0000212BF6D101293ED00120F2E7232BF0D152
:104A1000012940D00329F7D1234B002BF4D0E178B2
:104A2000A37809020020194300E000BF0120E0E75D
:104A3000012930D00329E7D101252E00A378E4789D
:104A4000023924021C4314712640243210007140A4
:104A500000F00CFE154B002BD6D062080020310070
:104A60002A4000E000BF0120C3E701290BD0032941
:104A7000CAD10F4B002BC7D0083200201100FEF71F
:104A800097FA0120B5E7072321002800094AFFF71C
:104A9000E5FC0120ADE721002800FFF7C9FC01205B
:104AA000A7E7C04624970020000000000000000097
:104AB000B12F00102C970020F0B54F464646D64641
:104AC000364DC0B5EA781F0080460C00AB788A42AC
:104AD0003BD08B4210D00020E0BCBA46B146A8467D
:104AE000F0BD2F4B002B04D02E4800F0AFFB002868
:104AF00051D00020FFF79CFDAB78A34201D00120EC
:104B0000EAE7294B002B02D0002000E000BF002084
:104B1000FFF72EFE0028F2D1244C200000F080FB8D
:104B20000028ECD1002FEAD0BF06E8D1243C404653
:104B3000A178FFF72FFC0028E1D000230022404697
:104B4000A178FFF74FFC0120C6E710239A46184EC4
:104B5000AA4431005046BAB200F0ACFC154B002B11
:104B6000BFD06B79FF2BBCD0002FBAD0F219914681
:104B700003E00136B145B4D06B7932789A42F8D16E
:104B8000504600F063FB0028F3D15346103B59799F
:104B900000E000BFEDE700E000BFAAE72497002097
:104BA000000000003497002000000000489700201B
:104BB000A0960020000000009322F0B5134C85B0B1
:104BC000002120009200FDF7E3FF23002000802653
:104BD00040270F4D4D337600FF3329300295009367
:104BE00000220023002103970196FF3000F0D6F940
:104BF0004035201D2834002301220021039702950F
:104C00000196009400F0CAF905B0F0BDE8990020C3
:104C10006899002010B5054C200000F0F5F920003F
:104C20002538FF3800F0F0F9012010BD109B00205E
:104C300070B5084C002520003130FF30257000F0A1
:104C4000F5FC20000C3000F0F1FC2A23FF33E55482
:104C5000657170BDE8990020F8B557464546DE46B7
:104C60004E46E0B54B7980460F00FF2B27D1424BD3
:104C70000C7899462A234946FF33CB5C002B1ED182
:104C80004E79002E1BD1BB783C190B703B79002B61
:104C900012D098235B004B449A460C234B449B460E
:104CA000A5186378052B05D110E02378E418637804
:104CB000052B0BD0A542F8D8E01B80B200E0002005
:104CC000F0BCBB46B246A946A046F8BDA542F3D902
:104CD00021004046FFF744FB0028F0D0A3780136BE
:104CE000F6B2DB09012B29D0504600F09FFC2A23A5
:104CF0004946A278FF33CA54637922791B021343D1
:104D00001E4A5B0594465B0D942163445A4253410D
:104D10004A4602204900525C5B00824313434A46E4
:104D2000535451464046083900F0D6F90028C6D001
:104D30002378E4183B79B342B3D8BDE7584600F076
:104D400075FC5A46A3780C3A5371637921791B029A
:104D50000B430A495B058C465B0D634459424B414A
:104D6000022011795B0081430B435946002008392A
:104D7000137100F07FF9DBE7E899002000FEFFFFE8
:104D800070B505002A201F4CFF30205C1E0063799F
:104D9000884203D000208B421DD070BD9A235B0057
:104DA000E35A002B0DD1184B002B04D000201749DB
:104DB000B2B200E000BF2800154900F08DF90120D3
:104DC000EBE72000962331305B00E158B2B2FF30B0
:104DD00000F070FBE7E70F4B002B04D031040020FC
:104DE000090C00E000BF0C4C2800210000F042F943
:104DF0000028E4D132002100280000F007F901204A
:104E0000CBE7C046E8990020000000006899002028
:104E1000109B002000000000EC99002000B503006A
:104E200083B0002910D00020012B07D80A78002A6F
:104E300004D00B48C2540120012A01D003B000BDA8
:104E40001800FEF7C1FDF9E7012301A900200B803E
:104E5000FEF7BAFD0028F1D00122014B1A70EDE7F0
:104E600040980020037870B5DB0704000E00DD0FCA
:104E7000002B17D103785B0701D5280070BD0121F5
:104E80003000494200F010FE2378DB07DD0F002BD5
:104E90000AD123785B0708D4042223780125134321
:104EA000237002E00025E8E70025300000F0CCFD8B
:104EB000E3E7C04670B50C0001210600494220001E
:104EC00000F0F2FD33785B07DD0F002B04DB2000E0
:104ED00000F0BAFD280070BD3378DB0704D404224B
:104EE000337893433370F2E70025F0E74379027992
:104EF0001B021343C2785B0592075B0D920F022AD7
:104F00001DD0032A0CD00020012A08D102394A42C0
:104F10005141124A9446614499424041C0B270479F
:104F200002394A1E91410E4A494211408022D20064
:104F300094460020614499424041C0B2EFE7022903
:104F400005D0002040229A424041C0B2E7E7054A1E
:104F5000981843425841C0B2E1E7C046FF03000041
:104F600040FCFFFF00FEFFFF8A1870B5914207D298
:104F70007F264C78052C04D00C7809198A42F8D881
:104F800070BD34008D782C4064000419ED09635520
:104F90000C7809198A42ECD8F2E7C046F0B5C6464B
:104FA00000B582B0150008AA40CA040017880BAAF1
:104FB0001288012090460A00217802408143200097
:104FC000114321703A00009331000123083000F0B2
:104FD000F1F8002E01D0002F08D10A9B0120636058
:104FE0004346638002B080BCB846F0BD26001C3644
:104FF0003000FCF753FD0023002D01D033000026C4
:105000006361A661E9E7C04601207047F8B5022454
:105010000B7807001C4063425C41144B64421C4007
:10502000134B08009C4608300D001600644400F045
:10503000F7F8002807D1002E05D0344203D101240F
:105040002B781C4201D00020F8BD38006978FFF7AA
:10505000A1F90028F7D02B781C42F4D100230022BC
:1050600038006978FFF7BEF9EEE7C04640FEFFFF63
:10507000FF010000F8B50D000835060028000C00FF
:1050800000F0CEF8002803D0012723781F4201D07A
:105090000020F8BD30006178FFF77CF90028F7D0D8
:1050A00028006288616800F03DF92378051E0BD066
:1050B0001F42EDD10300626830006178FFF792F97A
:1050C0000028E5D02800E4E71F42E1D130006178F4
:1050D000FFF774F9DCE7C046F8B5CE46474680B521
:1050E0008A8905000C000B78002A07D101261E4290
:1050F0003FD00020C0BCB946B046F8BD9B0734D5B0
:10510000FE2380261B029946B60027000837380088
:1051100000F0A4F88642ECD80122237890461A4287
:10512000E7D128006178FFF735F90028E1D0380091
:1051300000F094F8864231D84146237862881942BB
:10514000D7D14B461840061C904200D9161CB6B267
:1051500000226178002E00D0626833002800FFF73B
:1051600041F90028C5D03000C4E7114B40269946CC
:10517000CBE74978FFF70EF90028BAD02278638888
:105180001642B6D100226178002B00D06268280058
:10519000FFF728F90028ACD06088ABE742462378B7
:1051A0001A42A6D128006178FFF708F9A1E7C046A6
:1051B000C0FF0000F0B5C64600B5040006A805789B
:1051C0008020884617001E000002824226D8E06830
:1051D000002803D00121494200F066FC2069002824
:1051E00003D00121494200F05FFC43462360730471
:1051F0005B0CED031D430023E0686381A780E5801D
:105200002381002801D000F01FFC2069002801D074
:1052100000F01AFC012080BCB846F0BD0020FAE77F
:1052200010B5048941898288A3B288B28C4207D321
:105230001B1A9BB2101C9A4200D9181C80B210BDD8
:105240005100091A5B189BB2F4E7C04603894089F4
:10525000181A43425841C0B27047C04610B504897D
:1052600041898288A3B288B28C4207D31B1A9BB2B1
:1052700000209A4201D9D21A90B210BD5100091AE9
:105280005B189BB2F4E7C04670B5040000690E00DD
:10529000002803D00121494200F006FC25896089DD
:1052A000A288A9B283B285422CD3CD1AADB2002D0B
:1052B0002ED0AA4208D2914230D3891A8BB2638190
:1052C0009A4203D89B1A9BB29A42FBD9E288216882
:1052D0005204520C53433000C918FDF75FFC638938
:1052E0000125591C89B2A2888B4213D90021520092
:1052F000891A89B220696181002801D000F0A4FBDD
:10530000280070BD5500ED1A4D19ADB2002DD0D159
:10531000618989B252009142ECDBE9E789188BB2CE
:105320006381CDE7F0B546464F46D646C0B5060088
:10533000006989469046002803D00121494200F0C7
:10534000B3FB31897289B5888BB294B2914254D340
:105350001F1BBFB2002F4AD0BD4205D2AB4251D273
:105360005B199CB22F0074814346B8453DD89FB26B
:10537000A54203D8641BA4B2A542FBD9F2883168C8
:105380005204520C904662432B1B9BB28918424632
:105390009F4225D953439BB21A0048469A46FDF7CF
:1053A000FDFB434648467D1B64195C43316850440D
:1053B000A2B2FDF7F3FB7189B588CB199BB26A00E5
:1053C000994216D99B1A9BB230697381002801D08B
:1053D00000F03AFB3800E0BCBA46B146A846F0BD42
:1053E00048467A43FDF7DAFBE5E73B1CBFE77389E4
:1053F0009BB26A009342E7DBE4E76F003F1BDF19D3
:10540000BFB2A7E75B1B9CB2ACE7C046F8B504008F
:10541000C0680E00002803D00121494200F044FB7F
:10542000258920896189A288ADB283B28FB2884272
:1054300029D3DB1B9BB29A4209D8E779FF0906D131
:10544000E068002801D000F0FFFA3800F8BD95426E
:105450001ED32B009B1A9BB29342FBD2E28820689A
:105460005204520C53433100C018FDF797FB6B1CDC
:105470009BB2A2889D4218D9002352009B1A9BB26E
:1054800001272381DCE75100C91B5B189BB2D2E7DF
:105490002B00E28820685204520C53433100C0189C
:1054A000FDF77CFB0135A288ABB252009342E7DBEB
:1054B000E4E7C046F0B557464546DE464E46E0B501
:1054C000140005000F0083B0002A75D0C0680028C2
:1054D00003D00121494200F0E7FA2E89E9796A896F
:1054E000AB88B6B292B2C90945D1964200D36DE0FD
:1054F00059008A1AB21892B2002189469A4234D2CF
:105500009A1A111C92B2A24200D9211C8AB2914669
:10551000EA885204520C90464A46B21892B2924619
:105520004A46D21A92B2934634009E4203D3E41AFA
:10553000A4B29C42FBD24246624328681B1B9BB22A
:10554000801842464B4554D34B4639005A43FDF729
:1055500025FBAB885B00564501D89A4503DB5246D4
:10556000D31A9BB29A4653462B81E868002825D06F
:1055700000F06AFA22E0E9884904490C88469C4216
:1055800027D2964247D3B11A89B28C465800E11A05
:1055900089B28B4661460919814208DBD11889B26C
:1055A0000E1BB6B28A46B2423BD9361AB6B2A2191F
:1055B00092B29246A146B7E700239946484603B007
:1055C000F0BCBB46B246A946A046F0BDB21A92B2A4
:1055D00092E700218946002BC7D04146E41A4C438C
:1055E0001600D118002289B28A46994693463F197F
:1055F0009AE753439BB21A0039005C440193FDF7CC
:10560000CDFA414622004A43019B286892B2F9181C
:10561000FDF7C4FA9DE75800811A711889B28C46CB
:10562000B5E7A146B04200DD7EE7BEE710B5040055
:10563000C068002803D00121494200F035FA2069F2
:10564000002803D00121494200F02EFA0023E0682F
:1056500063812381002801D000F0F6F92069002839
:1056600001D000F0F1F9012010BDC04670B5040072
:10567000C0680D00002803D00121494200F014FA4F
:105680002069002803D00121494200F00DFA7F2152
:10569000E379ED011940E0682943E171002801D068
:1056A00000F0D2F92069002801D000F0CDF90120E6
:1056B00070BDC046484B02009C466244531E9A414E
:1056C0008023F0B54E46DE46574645465B029C4673
:1056D000E0B5424B1204624485B002901A60404B20
:1056E0000E0040491A6010000B689843FBD1062059
:1056F000FCF71EFF0223029904008C464A680190C1
:105700001A4003920A1D9046374AF10D62449146B1
:105710001360700200295AD1A04258D88024640036
:105720000227A246B446B30DB20204E0019E96429F
:105730000AD322002B000237574505D004000D0084
:10574000A4185D41002BF1D06646019B80259A4646
:10575000B3463C02E41B6D002E00013D002D38D005
:1057600021005046FDF72CF9E41B8345F4D23100AB
:1057700079432D02029CFF228026A44627612368DC
:1057800012026B4076016644134033608023039A13
:105790009B0143441A604D460222072760682A6035
:1057A000256810406F40CF253D40356018600F4898
:1057B000844603206444206001981A60FDF700F9D4
:1057C00005B0F0BCBB46B246A946A046F0BD0227D4
:1057D000BBE73900CEE7C0460040FCBF00E0004018
:1057E00000F0004008C00040043000002420000009
:1057F00003BDC04610B50400FCF7BEFFA04710BDB6
:10580000D02202211206136D1942FCD0506540BF10
:105810007047C046D0221206136DDB0704D4012165
:1058200020BF136D1942FBD0D0231B06986D704723
:10583000F0B5040087B00F200E001700FBF744FFFF
:10584000002105000F20FBF72DFF0023002200920E
:10585000019301230293D02304960594002600248B
:105860000121022003971B06002C14D01A6D104250
:10587000FCD05C6540BF1A6D114203D120BF1A6D88
:105880001142FBD09A6DA2420AD000266C46B200AB
:10589000A458E9E79A6D1A6D1142FBD140BFE5E7C4
:1058A0000136062EF2D129000F20FBF7FBFE07B0D0
:1058B000F0BDC0460D4B0E4A70B5934210D31C008C
:1058C0000C4A99180B4D0C4A92686051FF20C00099
:1058D00023500A4B0A4823500A48FFF7A9FF70BD1E
:1058E00001235B421C000849ECE7C0460008042085
:1058F00000000420F407000000ED00E0F557001060
:10590000FC070000F1570010F307000010B501007C
:1059100000230022002000F043F810BD10B58307DB
:105920000AD00300032102E001330B4205D01A78AC
:10593000002AF9D1181A10BD030019680C4A0D4C41
:105940008A188A4322420FD15968094A04338A18B7
:105950008A43224208D15968054A04338A188A4387
:105960002242F1D000E001331A78002AFBD1E1E7AE
:10597000FFFEFEFE8080808070B5074C074D641BE3
:10598000A41005D0013CA300EB589847002CF9D196
:1059900000F04EF870BDC046505B0010505B001028
:1059A000F0B5C6461A4C00B52568002D2AD06C68A3
:1059B0001F2C2ADC002808D10020631C0234A4001C
:1059C0006B60615180BCB846F0BD8827A600AE1957
:1059D000F2510137FF37BC460122AC446746A24072
:1059E0003F68904617436246176084277F00F35153
:1059F0000228E1D1280042468D30FF30036813436E
:105A00000360D9E7034D2560D1E701204042D9E783
:105A10003C960020AC940020034B10B5002B02D024
:105A20000248FFF773FF10BD000000007959001015
:105A3000F8B5C0460000000001B40248844601BC2D
:105A4000604700BF0903002001B40248844601BC3E
:105A5000604700BF2D02002001B40248844601BC0B
:105A6000604700BFD903002001B40248844601BC4E
:105A7000604700BFD50B002001B40248844601BC3A
:105A8000604700BFFD0B002001B40248844601BC02
:105A9000604700BFDD0F002001B40248844601BC0E
:105AA000604700BFC100002001B40248844601BC29
:105AB000604700BF9D01002001B40248844601BC3C
:105AC000604700BF910F002001B40248844601BC2A
:105AD000604700BF1D0F002001B40248844601BC8E
